:020000040800F2
:1000000040150020E51300083502000837020008FB
:1000100000000000000000000000000000000000E0
:100020000000000000000000000000009315000820
:100030000000000000000000FF0000083F1600085C
:10004000F713000800000000F7130008F71300087A
:10005000F7130008F7130008F7130008F713000858
:1000600000000000F7130008F7130008F71300085A
:10007000F7130008F7130008F7130008000000004A
:1000800039020008F713000800000000F713000809
:10009000F7130008F7130008F7130008F713000818
:1000A000F7130008F7130008F7130008F713000808
:1000B000F71300080348854602F07CFC004800471F
:1000C000A101000840150020084B1968086820307D
:1000D00080F30988022080F31488BFF36F8F3FBC40
:1000E000AE4608BC04BC62B61847000038000020C9
:1000F000EFF3108072B6704780F310887047EFF30B
:1001000009800E4B1A6820381060F0C044464D46F6
:1001100056465F46F0C008B572B601F082FD62B681
:100120000CBC116808681030F0C8A046A946B24659
:10013000BB4680F309882038F0C8184738000020F3
:1001400008B57D24E40001F0A3FE0925314EED063B
:1001500000902146684601F08FFC002204212846C9
:1001600000F0FFF901220421304600F0FAF9F0E72F
:1001700008B5AF24A40001F08BFE264D0926F60633
:1001800000902146684601F077FC002204212846B1
:1001900000F0E7F901220421304600F0E2F9F0E72F
:1001A00086B002A800F0B1F904A800F0AEF9012170
:1001B000480400F0D9FB0121880400F0D5FB04219C
:1001C000002568460291C573022444730126067314
:1001D0000491C57544750675092002A9C00600F092
:1001E0005CF904A90B4800F058F90096E6010023D9
:1001F0000195324608A10A4801F001FB002332466E
:1002000008A10B480195009401F0F9FA01F01AFEDB
:10021000FEE70000000400484D79205461736B0034
:10022000410100084D79205461736B3200000000D9
:10023000710100087047FEE710B5074C0121204608
:1002400001F00EF8002806D00121204601F014F834
:10025000012000F02FF810BD000400407CB50446DA
:10026000850043480121405900F07EFB4049600071
:100270000A39085A009001206946087100208871E7
:10028000C871032048713B48405900F006F97CBD15
:10029000374A41000A3A515A364A80001058816163
:1002A0007047334A41000A3A515A324A8000105886
:1002B000018570472F49820089588A8A2C4B40005B
:1002C0000A3B185A42408A827047F3B505468700B8
:1002D000274885B0001FC059012100F045FB0121CE
:1002E000084600F04AFB002668460673C67320489D
:1002F0006C001438005B02901E4802A9001FC05910
:1003000000F0CBF80698012823D119480E38015D7A
:10031000801E005D00F0B4FB15481238005B0090B1
:1003200068460671002D01D0082000E00C206946C7
:10033000487101256846857100F028F80C480C3892
:10034000015D6846017403214174857404A800F0BE
:100350002BF907B0F0BD064A10B54100143A515AC6
:10036000044A8000121F105800F0E5F810BD00008C
:10037000242A00080400002032483149016000218D
:1003800041608160C16030494161704710B5837937
:100390002C490268002B26D00B6893430B604A68F7
:1003A00003689A434A600279521813680468234329
:1003B00013608A6803689A438A60CA6803689A432C
:1003C000CA604279102A05D051180A6800680243B1
:1003D0000A6010BD8A6803681A438A60CA680068A8
:1003E0000243CA6010BD0079401801689143016062
:1003F00010BD0021016001710C22427181717047B2
:1004000010490A6902430A6170470E4A014652695F
:1004100000200A4200D0012070470A494861704715
:10042000084A01461368002052690B400A4202D074
:10043000002B00D00120704702494861704700003E
:100440000000940F00040140FFFF6B00092110B56C
:10045000C906884202D101214C0404E04D4988427A
:1004600009D101210402204600F099FA002120461A
:1004700000F095FA10BD4849884202D101210402DA
:10048000F1E74649884202D101210C05EBE74449D6
:100490008842EFD101218C05E5E7F0B50022012467
:1004A00023460D6893401D409D422AD10D79012DB0
:1004B00001D0022D12D1876855000326AE40B74304
:1004C00087604E79AE4085682E43866085889D435F
:1004D000858085888B7993401D438580066855000B
:1004E0000323AB409E4306600E790768AE403E434F
:1004F0000660C6689E43C660CB79AB40C5682B4397
:10050000C360521C102ACBD3F0BD264901600021E4
:100510000171022242718171C1717047012208B5D7
:1005200012040A430092C261C1610099C161C169AC
:10053000C069009008BD0246128A00200A4200D01D
:1005400001207047008A70470246928A00200A42C2
:1005500000D001207047808A704781617047018513
:100560007047002A01D08161704701857047818200
:1005700070474B07DB0E9A40C90810B58900081870
:10058000016A0F249C40A1430162016A1143016288
:1005900010BD00000004004800080048000C00489E
:1005A00000140048FFFF000030B583780121027875
:1005B000002B15D09408174BA400E4182368920769
:1005C000D50EFF22AA40934342789207120EAA400A
:1005D0001A4322600078C006C00E81400E4804E035
:1005E000D006C00E81400C488030016030BD0B4AFF
:1005F0000029116901D0014300E081431161704776
:10060000042207490428086902D090430861704712
:100610001043FBE700E400E000E100E000ED00E053
:1006200000E000E0F74801680122114301604168E1
:10063000F54A114041600168F44A114001600168C7
:10064000012292049143016041683F2212049143C8
:100650004160C16A09090901C162016BFF2254327C
:1006600091430163416B4908490041630021816066
:100670007047E44900228A70887070470346002062
:10068000E0495A090CD0012A0CD0022A0CD0496B3F
:10069000DA06D20E012393400B4200D001207047AE
:1006A0000968F5E7096AF3E7496AF1E718B5002038
:1006B0000524240200901120FFF7E0FF0099491C57
:1006C0000091A14201D00028F5D01120FFF7D6FFFC
:1006D000002800D0012018BDCA4A1168F8239943A8
:1006E000C000084310607047C6490028086802D05F
:1006F0000122104301E04008400008607047C14AF1
:10070000516BF8239943C000084350637047BD49BB
:100710000028486B02D00122104301E0400840004D
:1007200048637047B74904220028486B01D09043C2
:1007300000E0104348637047B2490A6A5208520009
:100740000A620A6A04239A430A620A6A02430A6234
:100750007047AC490A6A18239A430A620A6A02433C
:100760000A627047A7490028486A02D00122104354
:1007700001E0400840004862704710B5A14A536844
:100780003D242404A3435360536808430343536048
:1007900010BD01229B4912060028086801D01043B1
:1007A00000E0904308607047964AD16A0909090140
:1007B0000143D162704701229249D204002808689F
:1007C00001D0104300E09043086070478D49C87124
:1007D00070478C4A5168890889000143516070470D
:1007E000884840680C2108407047864A5168F023C9
:1007F0009943014351607047824A516807231B02A5
:1008000099430143516070477E494A6801239B0325
:100810009A434A604A6883B21A434A600A6B8B154E
:100820009A430A630A6B000C02430A6370477549D6
:100830000A6B40239A430A630A6B02430A637047B8
:1008400070490A6B10239A430A630A6B02430A63D6
:1008500070476C490A6B920892000A630A6B024364
:100860000A637047F8B5674D044668680C21684E06
:10087000084003D0042801D0082801D0266012E0E7
:10088000696868680122890212040F0F1040BF1CBA
:1008900000281CD0E86A0107090F3046491C02F005
:1008A00059F87843206068685A4B0006000F1A5CBC
:1008B00020680146D14061606A685205520F9A5C17
:1008C000D140A1602A6BD20505D4534A09E05348B0
:1008D00047432760E7E76A68520401D44A0800E00A
:1008E0008A08E2602A6B53064D4A03D44C4B1233FC
:1008F000236100E022612B6BDB0601D4666100E01E
:1009000060612B6B9B070FD0296B8907890F012929
:100910000CD0286B8007800F022809D0286BC043B9
:10092000800700D1A661F8BDA161F8BDA061F8BD46
:10093000A261F8BD33490A6A02430A62704731492D
:100940000028374A086A01D0104300E0904308624B
:10095000704701222B4912040028086A01D0104375
:1009600000E0904308627047264A0029516901D08F
:10097000014300E0814351617047224A0029916997
:1009800001D0014300E08143916170471D4A002975
:10099000D16901D0014300E08143D1617047194A18
:1009A0000029916A01D0014300E0814391627047C0
:1009B000144A0029D16801D0014300E08143D1608D
:1009C0007047104A0029116901D0014300E08143BA
:1009D000116170470B4A0029517A01D0014300E0B0
:1009E0008143517270470748416A01221206114340
:1009F00041627047034A0146926800200A4200D0D3
:100A000001207047001002400CB8FFF8FFFFF6FE0F
:100A100000127A000C000020809FD50000093D00E4
:100A20000080000001498872EBE7000000100240DE
:100A3000244801688907890F016000218160C16035
:100A400001614161816982151143816170471D4ACD
:100A5000116889088900014311607047194A00290B
:100A6000116801D0014300E0814311607047154ACD
:100A70000029116801D0014300E0814311607047F3
:100A80008A07130F10B50F229A408C080D49A40055
:100A900061188C6894438C608A68984002438A602D
:100AA00010BD08498A6902438A61704705490020E0
:100AB0008969C90500D50120704702498A69024346
:100AC0008A61704700000140F84910B5884202D1A0
:100AD0000121C41430E001218907884206D1012197
:100AE0000846FFF76EFF0021012008E0F049884228
:100AF00008D101210220FFF764FF00210220FFF747
:100B000060FF10BDEB49884206D101211020FFF79C
:100B100058FF00211020F2E7E749884207D18415E9
:100B200001212046FFF74DFF00212046E7E7E3497A
:100B3000884209D101210C042046FFF739FF00212A
:100B40002046FFF735FF10BDDD49884202D1012163
:100B50004C04F1E7DB498842F5D101218C04EBE735
:100B600010B50288D14B984206D00124A407A042B8
:100B700002D0CF4CA04203D17024A2434C88224320
:100B8000CC4CA04203D0D04C22400C89224302809E
:100B90004A68C2620A880285984208D0C74A9042D1
:100BA00005D0C74A904202D0C64A904201D1897A04
:100BB00001860121818210BD0021C94341600021CD
:100BC0000180018141808172704701858282704776
:100BD000028870239A430A4302807047416270473B
:100BE000C1627047406A7047008D70470222002939
:100BF000018801D0114300E0914301807047042235
:100C00000029018801D0114300E091430180704721
:100C100080220029018801D0114300E09143018026
:100C20007047028808239A43028002880A430280A0
:100C300070470288A44B1A40028002880A4302804F
:100C400070470029018802D00122114301E04908C0
:100C500049000180704710B50A884B88CC881A4338
:100C60008B8823431A430B891A434B8989891A437A
:100C70000A434030828010BD002101804180818084
:100C8000C180018141818181704740300029818884
:100C900003D00122D203114301E04904490C8180B1
:100CA000704730B5028C520852000284038C82884F
:100CB000048B7025AC43A4080D88A40025430224AE
:100CC000A3438C891C434B882343784CA04208D013
:100CD0007A4CA04205D07A4CA04202D0794CA04276
:100CE0000DD10824A343CC891C4304239C438B8847
:100CF0002343754C22400C8A14434A8A2243828043
:100D0000058389684163038430BD70B5028C10236C
:100D10009A430284048C8288038B6C4D2B400D789F
:100D20002D062D0C1D4320239C438B891B051E0C77
:100D30004B8826431B051B0C5C4C3343A04215D14A
:100D40008024A343CC892405240C1C4340239C43CA
:100D50008B881B051B0C23435D4C22400C8AA4048A
:100D6000240C14434A8A9204120C22438280058385
:100D700089688163038470BD30B5028C554B1A407D
:100D80000284038C8288848B7025AC43A4080D8870
:100D9000A4002543504C23400C7B2406240C1C4308
:100DA0008B781B061B0C2343404CA04215D14B4CA7
:100DB00023408C7B2406240C1C43494B1C400B799C
:100DC0001B061B0C2343474C22400C8A2405240C91
:100DD00014434A8A1205120C224382808583896853
:100DE000C163038430BD30B5028C3F4B1A4002848E
:100DF000048C8388828B354D2A400D782D062D0C6E
:100E000015433A4A14400A7B1207120C22438C788D
:100E10002407240C1443254A904205D1344A134038
:100E20000A8A9205120C13438380858389680164C2
:100E3000048430BD002101804180818081608181F6
:100E4000C18101824182704730B5034618330124C5
:100E5000058C8C40A5430584002910D008290ED0AC
:100E6000091F0804400CC018016807231B0399439D
:100E7000016001681206120C1143016030BD480880
:100E8000C01801687023994301600168F4E7416369
:100E9000704781637047C163704701647047028B7C
:100EA00070239A430A43028370470000002C0140DC
:100EB00000040040001000400020004000400140BD
:100EC0000044014000480140FFFC0000FF8C00008E
:100ED000FFF30000FFFE0000FFFD0000FFF7000031
:100EE000FFFB0000FFCF0000FFEF0000FFDF00006E
:100EF000FFBF0000028BF64B09021A401143018329
:100F0000D2E7828B70239A430A438283CCE7828B99
:100F1000EF4B09021A4011438183C5E700298188FC
:100F200002D00122114301E0490849008180BBE75A
:100F3000028B08239A430A430283B5E7028BE54BF1
:100F400009021A4011430183AEE7828B08239A43BA
:100F50000A438283A8E7828BDE4B09021A401143C1
:100F60008183A1E7028B04239A430A4302839BE710
:100F7000028BD94B09021A401143018394E7828BFB
:100F800004239A430A4382838EE7828BD24B090261
:100F90001A401143818387E7028B80239A430A43D7
:100FA000028381E7028B5204520C09021143018330
:100FB0007AE7828B80239A430A43828374E7828B89
:100FC0005204520C0902114381836DE7028C022303
:100FD0009A430A43028467E7028C08239A430A4330
:100FE000028461E7028C20239A43090111430184A2
:100FF0005AE7028C80239A4309011143018453E785
:10100000028CB64B09021A40114301844CE7028C52
:10101000B04B09021A401143018445E7028CB04BE2
:1010200009031A40114301843EE7028908239A43C9
:10103000028102890A43028136E710B50123048C3C
:101040008B409C430484038C8A401343038410BD6B
:1010500010B50423048C8B409C430484038C8A4089
:101060001343038410BD04220029818801D0114359
:1010700000E09143818017E7828B9A4B1A4082836C
:10108000828B09020A4382830EE7828B0C239A43E8
:101090008283828B0A43828306E7028B914B1A403C
:1010A0000283028B09020A430283FDE6F0B5048C39
:1010B0001026B4430484058B048C8B4F1B03090159
:1010C0003D402B4312021A43A0239C430C4334435C
:1010D00002830484F0BD028B0C239A430283028BAB
:1010E0000A430283E0E670B5048C6408640004845B
:1010F000058B048C1B011343F3260A22B54394434A
:101100002B430C4301210C430383048470BDF8B5C9
:10111000044608884E888A880B890D4600281DD011
:10112000042824D00828208C2AD070490840208424
:10113000A08B278C31036C4E1202304002431803FF
:1011400010436B4AA08317400F43012109030F434B
:101150002784E9882046FFF78FFFF8BD31462046F7
:10116000FFF7C1FFE9882046FFF7B5FFF8BD31461C
:101170002046FFF79BFFE9882046FFF78EFFF8BD6A
:101180005C4908402084A18B208C3702F3261B0188
:10119000B14313430B435849A3830840FF2138430D
:1011A000013108432084E9882046FFF76EFFF8BD2F
:1011B00000210180418001228280C180018173E68B
:1011C000F8B50C464988002601250746002900D1BC
:1011D0000226A288012A00D102252088238900281E
:1011E000384610D0FFF762FFE1883846FFF755FF19
:1011F00023892A4631463846FFF775FFE18838468D
:10120000FFF769FFF8BDFFF76EFFE1883846FFF78B
:1012100062FF23892A4631463846FFF747FFE188B7
:101220003846FFF73AFFF8BD406B3DE6806B3BE682
:10123000C06B39E6006C37E6002A828901D00A4388
:1012400000E08A4382812FE681822DE60246128ADF
:1012500000200A4200D0012026E6C943018223E68D
:101260000246138A002092890B400A40002B02D0CC
:10127000002A00D0012017E6C943018214E6114379
:101280004030018110E6002A828901D00A4300E043
:101290008A43828108E608220029818801D011430F
:1012A00000E091438180FFE50189C908C9000181FF
:1012B000FAE5028970239A430A430281F4E510B5E6
:1012C0000446FFF7F6FF208907210843208110BD5F
:1012D000FF8F0000FFF70000FFFB0000FFFD000094
:1012E000FFDF0000FFF30000FF0C0000FFEF000035
:1012F000FF5F0000FFFE0000FFF5000070B516461E
:101300000D46044660290CD001223146FFF7EBFE62
:1013100029462046FFF7CDFF208907210843208179
:1013200070BD01223146FFF7C1FEF1E710B5048917
:101330001B021343E4B20B432343038110BD10B5DA
:101340000446FFF7F3FF2089C108C90007200143C5
:10135000702081430143218110BD10B50446FFF781
:10136000E5FF2089012189030843208110BD82887F
:1013700070239A43828082880A43828094E502899E
:10138000D208D200028102890A4302818CE50289D7
:1013900080239A43028102890A43028184E570B561
:1013A0000689048B058CF608F6000E430C4906816D
:1013B0000C40FF2102310C43AA218D431901114336
:1013C00029430483018470BD80220029818801D0D3
:1013D000114300E09143818066E54030018263E57E
:1013E000FCFC00000448804704480047FEE7FEE795
:1013F000FEE7FEE7FEE7FEE701140008B50000087F
:10140000704770B5154E71680C2001401448154C9A
:1014100003D0042901D0082901D0206010E07168B0
:10142000726801231B041A4089020D0FF16AAD1C7A
:101430000907090F491C002A0BD00B4845432560BA
:1014400070680A490006000F085C2168C1402160ED
:1014500070BD01F07FFA6843DFE700000010024032
:1014600000127A001C00002000093D002C2A000810
:101470000146083100224160D243C16082600161AF
:1014800000210160704700210161704742684A6095
:1014900093688B6093685960916008610168491C8A
:1014A0000160704730B50B685A1C02D00246083202
:1014B00002E0026904E02246546825689D42FAD998
:1014C00053684B6099608A60516008610168491CEB
:1014D000016030BD4368826801699A608368426830
:1014E0005A604A68824201D182684A6000220261E1
:1014F0000868401E086008687047000070B5044620
:101500000025400704D06007400F0821081A04197D
:1015100000F0ADFA11484168002903D11049C9080B
:10152000C900416001680F4B0A199A4204D28A42ED
:1015300002D9436802605D1800F01BFA284670BDAE
:10154000002801D072B6FEE7704704490020086009
:101550007047024803490068081A704720000020BD
:101560007C000020F80F000072480068401C72B632
:1015700000D0FEE7FEE710B50124031F24061C601F
:101580001B1F1960191F6C4B0B60143940380A601F
:1015900010BD704770B569487D21C900006801F031
:1015A000D9F9644D044601466860654801F0D2F9F6
:1015B000A8602D20E8606349002008618861601EF2
:1015C00048610720086170BD10B55F48016AFF22BD
:1015D000120411430162016A120211430162FFF712
:1015E000D9FF544900200860FEF76EFD002010BDB1
:1015F00050487D210068C900884201D072B6FEE7DC
:1016000070470120504900074860BFF34F8FBFF378
:101610006F8F704772B647480168491C0160BFF37D
:101620004F8FBFF36F8F704742490868002804D07E
:10163000401E086000D162B6704772B6FEE710B572
:10164000FEF756FD044600F03AF9002803D00120C9
:101650003D49000748602046FEF74EFD10BDF8B535
:10166000344E0546B068854200D90546354C2069A0
:10167000400840002061A16970686A1E50430F183D
:10168000F068874200D93F1A72B6BFF34F8FBFF39D
:101690006F8F00F067FE01460120002929D06761A5
:1016A0000021A161216901432161002D04D0BFF314
:1016B0004F8F30BFBFF36F8F62B6BFF34F8FBFF353
:1016C0006F8F72B6BFF34F8FBFF36F8F062020610D
:1016D0002069C00313D5A0697168381A081AF26826
:1016E000401E904201D3884200D9481E6061681EA6
:1016F00012E0A169616121690143216114E028467A
:101700007568A1696843471A2946384601F022F9ED
:10171000411C6943C91B61610021A161216901224A
:101720001143216100F0E6FC7068401E606162B602
:10173000F8BD000028000020691500081C000020EA
:10174000FFFFFF0000E000E000ED00E0F8B5054617
:10175000FFF760FFFC4CA068401CA0602068FB4FB6
:10176000002803D06069002827D02CE02560A068FD
:10177000012828D1002614207043C019FFF778FEF5
:10178000761C052EF7D3F1486430FFF771FEEF4861
:101790007830FFF76DFEED488C30FFF769FEEB48BF
:1017A000A030FFF765FEE948B430FFF761FEE74877
:1017B000643060631430A06305E02068E96AC06AA1
:1017C000884200D82560606A401C60622864E86A2C
:1017D0002169884200D9206114214843C019291D7C
:1017E000FFF754FEFFF720FF6069002806D020684D
:1017F000E96AC06A884201D2FFF703FFF8BDFFB56E
:1018000085B0164690000F9FFFF778FE05001AD0AE
:101810005820FFF773FE040012D0256300210E98B4
:1018200003910197009002943246089B069905980F
:1018300001F00BF82046FFF789FF012009B0F0BD49
:101840002846FFF77DFE0020C043F7E770B5054648
:10185000FFF7E0FEBC4C002D00D12568281DFFF7E6
:1018600039FEA86A002803D028461830FFF732FE58
:10187000606A401C60622068854208D1B348291D17
:10188000A030FFF703FE6068401C606007E0A068BE
:10189000401EA060284601F031F801F021F8FFF762
:1018A000C3FE6069002809D02068854206D1206BFC
:1018B000002801D072B6FEE7FFF7A3FE70BDF8B5B1
:1018C000A14C0027206B002804D0A069401CA06117
:1018D0003846F8BDE668761CE6600ED1606B00689D
:1018E000002801D072B6FEE7606BA16B6163A06354
:1018F000206A401C206200F0F3FFA06A86420AD3EF
:10190000606B0068002814D0606BC068C5686868A8
:10191000864211D2A06220681421C06A48438B49D4
:101920000858012800D90127E0690028D0D00127F4
:10193000CEE70020C043EDE7281DFFF7CBFDA86AE6
:10194000002803D028461830FFF7C4FDE86A216953
:10195000884200D92061142148437C494018291D40
:10196000FFF794FDE86A2168C96A8842C8D3012755
:10197000C6E7F8B5744C0025206B2E46002808D029
:10198000FFF748FE206B401E2063206B002802D02A
:101990003DE072B6FEE7A1686C4F8C3700291CD180
:1019A00035E0F868C56828461830FFF793FD281D14
:1019B000FFF790FDE86A2169884200D9206114216F
:1019C000484362494018291DFFF760FDE86A216815
:1019D000C96A884201D30120E06138680028E0D15B
:1019E000002D01D000F07CFFA569002D09D0012752
:1019F000FFF765FF002800D0E7616D1EF8D10020D9
:101A0000A061E069002802D00126FFF7FAFDFFF788
:101A10000BFE3046F8BDF8B54B4C0F46E668054660
:101A200020680021403041752068001DFFF752FDFD
:101A3000681C08D1002F06D021684448091DB43025
:101A4000FFF724FDF8BD2068751945602168B5428F
:101A500004D2A06B091DFFF725FDF8BD606B091DC1
:101A6000FFF720FDA06A8542F7D2A562F8BD36488F
:101A7000016B491C0163704770B50D46040007D027
:101A8000002D07D0304A106B002805D072B6FEE753
:101A900072B6FEE772B6FEE7FFF7E9FFD268236889
:101AA0005919934204D98B420AD9914202D807E0CE
:101AB0008B42FAD9881A21600021FFF7ACFF00E0C1
:101AC0002160FFF756FF002801D1FFF79AFD70BD96
:101AD00010B502000FD01C48006B002801D072B670
:101AE000FEE7FFF7C4FF00211046FFF794FFFFF762
:101AF00040FF002801D1FFF784FD10BDF8B50400B8
:101B000005D0114E3068844203D10020F8BD72B672
:101B1000FEE7FFF77FFD6569776BB66BFFF784FD26
:101B2000BD4201D0B54201D10220F8BD0748B43012
:101B300085420DD1A06A0028F6D14034207D0128CD
:101B4000F2D00320F8BD00003800002074100020FF
:101B5000FE48854203D0002D01D00120F2E7042089
:101B6000F0E710B50446FFF755FD002C01D1F84809
:101B70000468E46AFFF758FD204610BD10B504461E
:101B8000FEF7B6FA002C01D1F1490C68E46AFEF7C1
:101B9000B3FA204610BDF8B500270D4604460529C6
:101BA00001D372B6FEE7FFF735FDE94E002C00D1F8
:101BB0003468A16CA94231D030688D4206D9844284
:101BC00007D03068C06AA84202D902E0844200D13E
:101BD0000127E06A814200D1E562A564A16900297C
:101BE00002DB0521491BA161D84D14225043A03DC1
:101BF0006169401981420DD1201DFFF76BFCE06A3D
:101C00003169884200D93061142148434019211DAF
:101C1000FFF73CFC002F01D0FFF7F3FCFFF704FDBA
:101C200090E710B5CA48016B002902D00121C161BB
:101C300010BD0021C1610169C44AA03A02E0002937
:101C400015D0491E14234B43D358002BF7D014232F
:101C50004B439A18536814465B6808345360A34298
:101C600001D15B685360DA680260016110BD72B631
:101C7000FEE770B50446FFF7CDFCB54D002C00D152
:101C80002C68201DFFF726FCA06A002803D0204600
:101C90001830FFF71FFCAD48211D1430FFF7F6FB8D
:101CA00020464030017D0026012900D10675FFF74E
:101CB000BBFC6869002805D0FFF7ACFC00F010FE03
:101CC000FFF7B2FC2868844209D16869002807D070
:101CD000286B002801D072B6FEE7FFF792FC70BDBA
:101CE0009A4814300068A968884201D12E6070BDFE
:101CF000FFF797FF70BD70B5040024D0944D28689D
:101D000084421FD0FFF786FC204600F000FE00282A
:101D100016D0201DFFF7DEFBE06A2969884200D952
:101D20002861142148438949A0394018211DFFF733
:101D3000ADFBE06A2968C96A884201D3FFF761FCFC
:101D4000FFF772FC70BD72B6FEE7F8B5002604001E
:101D500010D0FEF7CDF90746204600F0D8FD002848
:101D600020D07B4D286B002806D0214677481831BB
:101D7000143815E072B6FEE7E06A2968C96A88423D
:101D800000D30126201DFFF7A5FBE06A29698842E0
:101D900000D92861142148436C49A0394018211DFD
:101DA000FFF774FB3846FEF7A7F93046CAE66848E5
:101DB00000210269002A00D001210268D26A002AAB
:101DC00001D000207047614AA03A1268012AF8D871
:101DD0000029F6D1816AC068081A70475C4C5B4ED6
:101DE00011E0FFF717FCF068C568281DFFF772FBCC
:101DF000A068401EA0606068401E6060FFF714FC91
:101E0000284600F07BFD60680028EAD14F48A038E2
:101E10000068012801D9FFF7F4FBFFF7C8FF02288B
:101E2000DDD3FFF724FEA06AE168884201D272B6D2
:101E3000FEE7FFF7BCFF022801D3FFF710FCFFF716
:101E400098FDCCE71CB5424800242C30FF220190BD
:101E5000234601323FA100944048FFF7D0FC0128FF
:101E600003D0401C0BD172B6FEE772B60021384891
:101E7000C943816201214161C460FFF7A5FB1CBD1C
:101E800010B572B6002032494861FFF7B1FB10BDB2
:101E90002F48C06870472E48C06870472C4880683B
:101EA0007047002801D12A480068002801D034304A
:101EB000704772B6FEE7F0B502680025002A27D009
:101EC00042685368024608324360934201D15C681D
:101ED00044604368DB689C4643685B6843609342A8
:101EE00001D15C6844604368DC680023E618203652
:101EF000367DCF5CB74204D1002E05D05B1C0A2B87
:101F0000F4D3002D04D101E02546FAE76445E3D17E
:101F10002846F0BDF8B50746052500F043FD0A2820
:101F200001D372B6FEE7FFF7A2FD084EA03E1420D3
:101F30006D1E684380193946FFF7BDFF040025D1A7
:101F4000002DF4D1024D3946686B09E014110020D0
:101F50003800002049444C4500000000DD1D000809
:101F6000FFF7A9FF040011D13946A86BFFF7A3FFC3
:101F700004000BD13946F748FFF79DFF040005D157
:101F8000F44839461438FFF796FF0446FFF7F1FC92
:101F90002046D7E5F8B50C46EF491746002815D07E
:101FA00005462846343025606060E86A2061286B69
:101FB000E061286CA0600026A86CA6616061052B1A
:101FC00013D00868854203D1267312E00D68E8E754
:101FD0002373032B0DD1FFF74AFDA86A002801D017
:101FE00002202073FFF7C5FC03E02846FFF786FDBB
:101FF0002073002F04D0286B00F09DFC2084A1E505
:1020000026849FE5F7B5086882B00C4600260028B4
:1020100021D060682546406808356060A84201D13B
:10202000416861606068C068009060684068606096
:10203000A84201D14168616060680299C7682420A4
:102040007043411801223846049BFFF7A3FF009814
:10205000761C8742E9D1304605B0F0BDF8B5174689
:102060000A46064600240525FFF701FDBA488068A8
:10207000824234D3B74914206D1E6843B4394118E5
:102080002420604380190122FFF7BCFF0419002DB2
:10209000F0D12420B04D604380190222696BFFF714
:1020A000B1FF04192420604380190222A96BFFF7B5
:1020B000A9FF04192420A749604380190422143978
:1020C000FFF7A0FF04192420604380190322A149CF
:1020D000FFF798FF0419002F01D000203860FFF7A8
:1020E00048FC20462EE59C48C06A002801D172B603
:1020F000FEE770479849CA688B6A12189A4201D95C
:1021000072B6FEE7CA681018C860704710B5924AE8
:102110000346106B002801D072B6FEE7FFF7A7FC5C
:102120009069C0189061FFF724FC10BDF8B5040059
:102130000BD0FFF79CFC2046FFF7E0FC022806D0FE
:102140000026FFF716FC3046FCE472B6FEE70126D7
:10215000201DFFF7BFF9FFF75DFAA06A01270028ED
:1021600005D020461830FFF7B5F955200755FFF781
:102170005BFA794DE06A2969884200D92861142107
:1021800048437449B4394018211DFFF77FF9E06ACC
:102190002968C96A8842D4D9EF61D2E710B50C46E4
:1021A000002809D06C4909681831FFF77BF9012133
:1021B0002046FFF730FC10BD72B6FEE710B514469E
:1021C000030012D06448026B002A10D00122D2070B
:1021D000114302689161016818461831FFF756F9FA
:1021E00001212046FFF717FC10BD72B6FEE772B65C
:1021F000FEE770B5C068C468002C15D020461830C2
:102200000646FFF767F9544D286B00280ED0514859
:1022100031462838FFF73AF9E06A2968C96A8842E6
:1022200017D90120E86170BD72B6FEE7201DFFF7E7
:1022300051F9E06A2969884200D92861142148438C
:102240004449B4394018211DFFF720F900F048FB3C
:10225000E2E7002070BD70B53F4D2A6B002A22D006
:102260000122D20711430160C468002C1DD0FFF782
:1022700031F900F035FB201DFFF72CF9E06A2969E0
:10228000884200D92861142148433249B4394018A2
:10229000211DFFF7FBF8E06A2968C96A884201D965
:1022A0000120E86170BD72B6FEE772B6FEE710B5B8
:1022B000040009D0FFF7AEF92748016A2160C06821
:1022C0006060FFF7B1F910BD72B6FEE722490A6AF5
:1022D0000260C96841607047F8B50C46050011D02E
:1022E000002C11D0FFF796F91B4BDA686E6818685E
:1022F000911B4030407D002808D0196800204031F3
:1023000048750CE072B6FEE772B6FEE72068471C1F
:1023100007D02F681B6A9F4208D0964206D8012436
:1023200000E00024FFF780F920460BE4884205D93D
:10233000401A20602846FFF7C9FFF2E7002020601E
:10234000EDE705490120C8617047002800D0406CC6
:102350007047000028110020380000200028F7D026
:102360004164F5E7FE4901200968002901D00020F9
:10237000EEE7FC49CA69002AF9D1F94A2832126805
:102380008968491E8A42E3D10220E1E710B500289E
:1023900001D1F4480068006B00F0CDFA10BD10B513
:1023A000002801D1EF480068006B00F0C4FA10BDAE
:1023B000EC480068CCE7EB484169002904D0006B89
:1023C000002803D00020C3E70120C1E70220BFE7B7
:1023D00070B504460020002C2BD0E24DE16A2A683B
:1023E000D26A914226D2A069002804DB2868052120
:1023F000C06A081AA061E06AD94E142250438C3E8C
:1024000061698019814210D1201DFFF763F82868A7
:10241000C06AE0622969884200D9286114214843D2
:102420008019211DFFF732F802E02868C06AE062D7
:10243000012070BDA16C2A68D26A9142F8D370BDA8
:1024400070B500210446002829D0C64D2868844272
:1024500001D072B6FEE7E06C002808D0401EE064B0
:10246000A36CE26A9A421AD0002802D017E072B632
:10247000FEE7201DFFF72EF8A06C0521E062081A88
:10248000A061E06A2969884200D928611421484383
:10249000B3498C394018211DFEF7F8FF0121084689
:1024A00070BD70B5040030D0E26C002A0ED0A06C74
:1024B000884200D30146E06A884226D0012A24D10E
:1024C000A84D2A68944203D172B6FEE772B6FEE7C1
:1024D000E162A269002A02DB0522511AA161A04E25
:1024E000142250438C3E6169801981420DD1201D18
:1024F000FEF7F0FFE06A2969884200D928611421BB
:1025000048438019211DFEF7C1FF70BD9549086839
:102510000A688069D26A052309689A1A8A6117E7EE
:1025200090490868002803D00868C26C521CC26435
:1025300008680DE770B50C460646FFF76BF8894D45
:102540002868006D00280AD12868012140300175F3
:10255000002C04D02046FFF75EFAFFF752F8FFF791
:1025600063F8FFF757F82868046D0020002C07D0A7
:10257000002E02D02968086502E02A68611E1165F4
:10258000296840310875FFF74FF8204670BDFFB548
:1025900081B01E4615460746FFF73CF8714C20688F
:1025A0004030007D02280ED02068016DB9430165DE
:1025B0002068012140300175002E04D03046FFF71D
:1025C0002AFAFFF71EF8FFF72FF8FFF723F8002D80
:1025D00002D02068006D286020684030007D02280D
:1025E00001D0002505E02068016D029A9143016544
:1025F00001252068002140300175FFF715F82846B5
:102600002AE5FFB5012681B01F460D46002814D0EB
:102610000446FEF7FFFF002F01D0206D38602046F2
:1026200040300146007D02220A7503990B0000F03C
:10263000D3F9051806090F0D130072B6FEE7216DD8
:10264000294301E0216D491C21650AE0022801D0DF
:10265000256506E0002625E0216D491C01D072B6F3
:10266000FEE701281ED1201DFEF734FF3D4DE06A34
:102670002969884200D928611421484338498C3996
:102680004018211DFEF702FFA06A002801D072B693
:10269000FEE700F025F9E06A2968C96A884201D995
:1026A000FEF7AFFFFEF7C0FF3046D5E4FFB50126C9
:1026B00081B01F460D46002815D00446FDF718FDD1
:1026C0000090002F01D0206D386020464030014638
:1026D000007D02220A7503990B0000F07DF90518B0
:1026E00006090F0D130072B6FEE7216D294301E0C4
:1026F000216D491C21650AE0022801D0256506E00C
:10270000002633E0216D491C01D072B6FEE7012896
:102710002CD1A06A002801D072B6FEE7114D286BBB
:10272000002803D0214618310D480DE0201DFEF78A
:10273000D1FEE06A2969884200D928611421484302
:1027400007498C394018211DFEF7A0FEE06A296870
:10275000C96A88420AD90A990120002905D003E0F4
:1027600000110020380000200860E8610098FDF7A3
:10277000C3FC304670E4F8B50E4600280ED004467F
:10278000FDF7B6FC074620464030017D0222027567
:10279000206D401C2065012902D028E072B6FEE7BA
:1027A000A06A002801D072B6FEE7684D286B0028A9
:1027B00003D02146183166480DE0201DFEF78AFE41
:1027C000E06A2969884200D9286114214843604998
:1027D0008C394018211DFEF759FEE06A2968C96A44
:1027E000884204D90120002E00D03060E8613846CC
:1027F000FDF782FC03E410B500280BD00446FEF779
:1028000009FF4034207D022807D00024FEF70CFF8A
:10281000204610BD4D480468F1E7002020750124D2
:10282000F4E770B5494D0E4600280CD00246144618
:10283000FEF7F0FE2868056D206DB0432065FEF7B9
:10284000F3FE284670BD2A68F1E7FFB581B0970016
:102850000C9C0E460A9DA5223946206B00F090F88C
:10286000206B3F1FC019C708FF00780701D072B660
:10287000FEE721462031002E0DD000202318325CC7
:1028800020331A75325C002A02D0401C0A28F5D386
:102890000020487701E000200875052D00D30425AD
:1028A000E5620026E664201DA564FEF7ECFD2046E7
:1028B0001830FEF7E8FD24610520401B6462A0612A
:1028C000266520464030067546753846049A0199BB
:1028D000FEF751FE20600B98002800D004608FE6C0
:1028E0001A48416B0968002905D0416BC968C9685D
:1028F000496881622CE50021C943FAE710B5044616
:10290000006BFEF71DFE2046FEF71AFE10BD0021EB
:1029100000280BD00E4B426928339A4209D1806AB5
:102920000B4A904205D0002802D002E072B6FEE7C2
:10293000012108460CE5002101E0401C491C0278F9
:10294000A52AFAD08803000C02E500003800002018
:102950000011002030B50B46014600202022012442
:1029600009E00D46D5409D4205D31D469540491BC3
:102970002546954040191546521E002DF1DC30BD0C
:10298000D2B201E00270401C491EFBD27047002207
:10299000F6E710B513460A4604461946FFF7F0FF5E
:1029A000204610BD421C0178401C0029FBD1801A32
:1029B00070470000064C0125064E05E0E36807CC91
:1029C0002B430C3C98471034B442F7D3FDF776FB09
:1029D0003C2A00085C2A000830B47446641E25783E
:1029E000641CAB4200D21D46635D5B00E31830BC43
:1029F000184702E008C8121F08C1002AFAD1704720
:102A00007047002001E001C1121F002AFBD170476E
:102A100001000100000000000500000200010000AC
:102A20000000020000000800000008000000000094
:102A30000000000001020304060708095C2A0008E0
:102A40000000002074000000F2290008D02A0008CD
:102A500074000020CC140000022A00080000004886
:102A600000080048000800480000000001020304BC
:102A7000010203040607080900127A0000000000A2
:102A800000000000AAAAAAAA00000000000000009E
:102A90000000000000000000000000000000000036
:102AA0000000000000000000000000000000000026
:102AB0000000000000000000000000000000000016
:102AC0000000000000000000000000000000000006
:04000005080000B53A
:00000001FF
