:020000040800F2
:10000000785D002069020008B72100083D1F000844
:10001000B5210008EF030008B13C00080000000013
:10002000000000000000000000000000A90100081E
:10003000CF06000800000000050200084923000860
:10004000830200088302000883020008830200087C
:10005000830200088302000883020008830200086C
:10006000830200088302000883020008830200085C
:10007000830200088302000883020008830200084C
:1000800083020008830200088302000800000000C9
:1000900000000000000000000000000083020008D3
:1000A000830200088302000883020008830200081C
:1000B000830200080D240008830200088302000860
:1000C00083020008830200088302000883020008FC
:1000D0008302000883020008830200080000000079
:1000E0008302000883020008830200080000000069
:1000F0000000000000000000000000008302000873
:100100000000000083020008830200088302000848
:1001100000000000000000000000000000000000DF
:10012000830200088302000883020008830200089B
:100130008302000800000000000000000000000032
:10014000000000000000000000000000B9210008CD
:10015000830200088302000883020008830200086B
:100160008302000883020008000000000000000075
:10017000000000000000000000000000000000007F
:1001800000000000830200080000000000000000E2
:1001900083020008DFF80CD000F0ECF800480047BC
:1001A000F13C0008785D00202C4B19680868B0E825
:1001B000F04F80F30988BFF36F8F4FF0000080F39A
:1001C000118870470000000008480068006880F34C
:1001D00008884FF0000080F3148862B661B6BFF360
:1001E0004F8FBFF36F8F00DF00BF00BF08ED00E04F
:1001F000DFF80C00016841F470010160704700BF36
:1002000088ED00E0EFF30980BFF36F8F134B1A689E
:100210001EF0100F08BF20ED108A20E9F04F10608B
:1002200009B44FF0500080F31188BFF34F8FBFF334
:100230006F8F04F027FC4FF0000080F3118809BC99
:1002400019680868B0E8F04F1EF0100F08BFB0EC56
:10025000108A80F30988BFF36F8F704788000020F1
:10026000EFF30580704700000648804706480047C6
:10027000FEE7FEE7FEE7FEE7FEE7FEE7FEE7FEE756
:10028000FEE7FEE7FD230008950100082DE9F05F79
:100290000546002092469B468846064681464024F5
:1002A0001BE0284641464746224600F053F8534695
:1002B0005A46C01A914110D311461846224600F002
:1002C0003AF82D1A67EB01084F462246012000211B
:1002D00000F031F817EB00094E41201EA4F1010493
:1002E000DFDC484631462A464346BDE8F09F40EAF7
:1002F00001039B0703D009E008C9121F08C0042AA4
:10030000FAD203E011F8013B00F8013B521EF9D28A
:100310007047D2B201E000F8012B491EFBD27047B2
:100320000022F6E710B513460A4604461946FFF7C1
:10033000F0FF204610BD202A04DB203A00FA02F12B
:10034000002070479140C2F1200320FA03F31943C3
:1003500090407047202A04DB203A21FA02F0002165
:10036000704721FA02F3D040C2F1200291400843C5
:1003700019467047064C074D06E0E06840F001035F
:1003800094E8070098471034AC42F6D3FFF706FF15
:10039000E05500080056000870B58C1810F8015B95
:1003A00015F0070301D110F8013B2A1106D110F80E
:1003B000012B03E010F8016B01F8016B5B1EF9D112
:1003C0002B0705D40023521E0DD401F8013BFAE798
:1003D00010F8013BCB1A921C03E013F8015B01F803
:1003E000015B521EF9D5A142D8D3002070BDFEE7B3
:1003F00010B5D0F8BC220446002A30D092F8183448
:10040000022B07D0032B05D0052B03D0062B01D0E0
:10041000092B13D1022082F81804002382F810342B
:1004200082F8113482F8123482F8133482F81404FA
:1004300082F81534C2F80034C2F804340848407D0C
:10044000C00607D5204602F07AFF2046BDE81040DE
:1004500002F020BE4888BDE8104000F03BB910BD56
:10046000480100200A46D0F8BC1200292BD0D388BE
:10047000002B91F8183410D0022B01D0052B10D18D
:100480005388C1F80034D2880323C1F8042481F8CA
:10049000183481F8143402F0B4B8052B04D0022BC0
:1004A00002D0114602F0A2B8012081F819040622F8
:1004B00081F81824002081F8110481F8120481F8D1
:1004C000130481F81424704770B50546D5E9AF4090
:1004D000002C51D094F818240021032A02D0062AB7
:1004E00042D125E0D4F8042402B3042284F818246D
:1004F00084F8111484F8121484F8131484F8142462
:10050000D4F8001411B92178412908D0D4F808345E
:10051000866904F5826201211846B04724E0D4F8C8
:10052000083404F5826200218669F5E7052011E0B0
:1005300094F81904012801D038B115E0072084F897
:100540001804012284F8112408E00C48007D4007BB
:100550000AD5022084F8180484F8111484F81214BF
:1005600084F8131484F8140404F582612846BDE865
:100570007040062202F05FB870BD00004801002004
:1005800010B5D0F8BC12002911D0164B002281F80A
:1005900019241B7D5B070BD5062081F8180481F810
:1005A000112481F8122481F8132481F8140410BD59
:1005B000082381F8183481F8112481F8122481F875
:1005C000132481F8143402F0BAFEBFF34F8F0648AB
:1005D0000168064A01F4E06111430160BFF34F8FE7
:1005E00000BFFDE7480100200CED00E00400FA0523
:1005F00070B505460B46D5E9AF46002C66D0D988C4
:10060000002099B394F81814022906D0092904D0BF
:10061000C4F80404C4F8000447E05988C4F800147E
:10062000DA88C4F80424E9B1012933D9092384F80C
:10063000183484F8110484F8120484F8130484F83C
:1006400014348802D4F80814A0F5006008447369D3
:1006500021469847D4F8042401462846BDE8704056
:1006600001F0E9BF032A02D9022101E023E00921B8
:1006700084F8181484F8110484F8120484F813041C
:1006800084F814142070212060704120A07003228F
:100690002146E2E70F2184F8181484F8110484F845
:1006A000120484F8130484F814142846BDE870403A
:1006B000194601F09BBF022184F8181484F8110434
:1006C00084F8120484F8130484F8141470BD70477D
:1006D00072B6FEE770B5044600F00AF90546601CE4
:1006E00002D004480078044400F002F9401BA04204
:1006F000FAD370BD780000202DE9F84FDFF8B4A1DF
:10070000002201240AF1040B03254FF00F090BF11D
:10071000040E00BF0B6804FA02F63340B34272D1F4
:100720000F7907F00307012F01D0022F16D1876838
:100730004FEA420805FA08FC27EA0C07D1F80CC07A
:100740000CFA08FC4CEA070CC0F808C04768B7432D
:100750000E79C6F3001696403E4346600E79F64386
:10076000B6070DD0C768560005FA06FC27EA0C0745
:10077000D1F808C00CFA06FC4CEA070CC0F80CC013
:100780000E7906F00306022E10D1D60800EB86087B
:10079000D8F8206057074FEAD76C09FA0CF7BE4328
:1007A0000F6907FA0CF73743C8F8207006684FEA5C
:1007B000420C05FA0CF7BE430F7907F0030707FA5E
:1007C0000CF7374307604E68F6006DD53A4E376830
:1007D00047F480473760366822F0030706F4804606
:1007E0000096364E07EB060CDCF8086897073F0FBB
:1007F00009FA07F826EA0806DFF8C480404503D165
:100800004FF000081EE04FE0DFF8B880404502D10D
:100810004FF0010816E0DFF8B080404502D14FF0FC
:1008200002080FE0DFF8A480404502D14FF0030832
:1008300008E0DFF89C80404502D14FF0040801E059
:100840004FF0070808FA07F848EA0608CCF80888C5
:10085000DAF800605746D1F804C09E435FEACC3C0A
:1008600000D51E433E60DBF800605F46D1F804C04F
:100870009E435FEA8C3C00D51E433E60DEF800607C
:100880007746D1F804C09E435FEACC2C00D51E43C6
:100890003E60084F0C373E68D1F804C09E435FEAC3
:1008A0008C2C00D51E433E60521C102AFFF432AF40
:1008B000BDE8F88F003C0140443802400030014060
:1008C000000002400004024000080240000C024008
:1008D00000100240426921EA02030A4043EA024151
:1008E000816170470AB1816170470904FBE700002C
:1008F00001488068704700007800002070B504004F
:1009000025D094F83D00002520B984F83C502046BD
:1009100000F0B8F8242084F83D002068016821F038
:10092000010101602068016841F400410160206814
:10093000016821F40041016000F0D8FE4D4A616871
:10094000914201D84C4900E04C49884201D2012033
:1009500070BD4B492368B0FBF1F15E6826F03F069D
:100960000E435E606368934206D94FF49673594311
:100970004FF47A73B1FBF3F12368491C1E6A26F029
:100980003F06314319626168914210D84900401E08
:10099000B0FBF1F2521CC2F30B02042A01D2042074
:1009A00022E0B0FBF1F0401CC0F30B001CE0A26899
:1009B000F2B301EBC10303EB0116431EB3FBF6F3E5
:1009C0005B1C43F480431B0549D092B301EBC10289
:1009D00002EB0111401EB0FBF1F0401CC0F30B0014
:1009E00040F4804040F400402168CA694CF6FF732F
:1009F0009A431043C861D4E9071001432068026894
:100A000022F0C00211430160D4E9030101432068D0
:100A1000826848F2FF339A4311438160D4E90501AB
:100A200008432168CA6822F0FF021043C86001E051
:100A30000EE016E02068016841F0010101602564C4
:100A4000202084F83D00256384F83E50002070BDCE
:100A500001EB4106431EB3FBF6F35B1CB3E7012039
:100A6000C2E701EB4101401EB0FBF1F0401CC0F3B6
:100A70000B00B7E7A086010080841E0000093D003E
:100A800040420F0010B586B0044614216846FFF7B7
:100A900047FC13492068884220D11248016841F080
:100AA000020101600068694600F002000590C02064
:100AB0000090122001900120029003200390042056
:100AC00004900948FFF718FE06481030016841F409
:100AD00000110160006800F40010059006B010BD20
:100AE000005400403038024000040240024881684F
:100AF0000278114481607047780000200B4810B5DF
:100B0000016841F400710160016841F48061016095
:100B1000016841F480710160032000F08DF800202D
:100B200000F006F800F03EF8002010BD003C024046
:100B300010B5014688B000221D2000F05DF81D2090
:100B400000F04CF813480024016841F002010160F4
:100B5000006805A900F002000690684600F0A0FDBC
:100B600000F0C4FD0C490D4AB0FBF1F10C48491EE0
:100B7000026040F2E732C0E90324C0E9011401F049
:100B800051F810B1012008B010BD054801F078F807
:100B9000F9E700004038024040420F0000040040E6
:100BA000580F00200C4882B0016841F48041016078
:100BB000006800F4804000900748001F016841F081
:100BC000805101600068002200F0805000900F21E9
:100BD000901E02B000F010B844380240002809DB33
:100BE00000F01F02012191404009800000F1E02047
:100BF000C0F8001170470000F0B40E4B1B680C46A3
:100C0000C3F30223C3F10705042D00D90425191DE0
:100C1000072901D2002300E0DB1E012606FA05F1B8
:100C2000491E214099409E40761E16403143F0BC3B
:100C300003F03FB80CED00E0064900F00702086839
:100C40004FF6FF03184040EA0220034A10430860B1
:100C5000704700000CED00E00000FA0570470068E6
:100C6000416200207047F0B50368586A39B19C6A48
:100C70004FF4827600EB144400204D1E0AE040EA57
:100C8000024098620FE006EB8007DF59401C04EB3E
:100C90001744C0B2A842F6D344EA02404FF480722F
:100CA00002EB810158500020F0BDD0F8040402F09E
:100CB0002DB8C1EBC10200EB8202D0F80404926CA3
:100CC00001F09ABFC1EBC10200EB8202D0F804042C
:100CD000D2F8082201F0E4BFD0F8040402F018B8FA
:100CE00070B5044601F00F006268904201D90120FE
:100CF00070BD0B0601F00F01C1EBC10104EB8101D6
:100D00004FF001024FF0000503D581F83D203C3142
:100D100003E081F8FD5101F5FE718D70087094F8C3
:100D2000BC03012808D084F8BC23206802F052FDDF
:100D300084F8BC53002070BD022070BD2DE9F04145
:100D400004460F0601F00F00C0EBC00104EB810167
:100D50004FF001064FF0000503D581F83D603C31AE
:100D600003E081F8FD5101F5FE7108708A60CB70D7
:100D70004A7802B1C880022B00D10D7194F8BC03EF
:100D8000012809D084F8BC63206802F0EBFA2846F9
:100D900084F8BC53BDE8F0810220FBE770B50C4637
:100DA00001F00F05C5EBC50100EB8101C1F8103260
:100DB000C1F808220023C1F8143281F8FD3181F80E
:100DC000FC51036901F5FE71012B00D10A61220774
:100DD000027C006803D002F055FD002070BD02F0D7
:100DE00041FCFAE770B504460D4601F00F0061685A
:100DF000884201D9012070BD29064FF000064FF04E
:100E0000010207D5C0EBC00104EB810181F83D2050
:100E10003C3107E0C5EBC50104EB810181F8FD61C0
:100E200001F5FE718A70087094F8BC03012807D0A0
:100E300084F8BC23206802F0F9FC280702D007E000
:100E4000022070BD217C04F57172206802F096FCCE
:100E500084F8BC63002070BD70B50C4601F00F052E
:100E6000C5EBC50100EB81010B658A6400234B656E
:100E7000012381F83D3001F83C5F0369012B00D16B
:100E80000A612207027C006803D002F0FBFC00200C
:100E900070BD02F0E7FBFAE72DE9FC5F0568044648
:100EA000284602F018FE00287ED1206802F03FFE9E
:100EB000002879D0206802F03AFE800704D5216826
:100EC000486900F002004861206802F030FEC10667
:100ED00004F57170009034D52068816921F010010B
:100EE00081612F6A07F00F00C0EBC00004EB8006A1
:100EF000C7F3434006F5FE76022802D0062811D03B
:100F00001AE047F6F070074216D0C7F30A121746E8
:100F10002846F16802F00FFEF0683844F060B069CE
:100F2000384408E008222846009902F004FEB0691F
:100F3000C7F30A110844B0612068816941F01001CB
:100F40008161206802F0F3FD00034FF0010A4FF0C9
:100F5000080B5BD50026206802F0C8FD0746DFF8C5
:100F6000689351E0F8074DD0F1B2206802F0D7FD48
:100F70008046C00707D005EB4611C1F808AB3146E3
:100F8000204601F01FF95FEA087022D505EB4611F3
:100F9000C1F808BB2068016C00EB46100191D0F845
:100FA000082B494507D900E08BE1110403D54FF424
:100FB0000041C0F8081B204600F073FA019848452C
:100FC00007D92069012804D120680121009A02F084
:100FD000D5FB5FEAC86004D505EB46111020C1F8C7
:100FE000080B5FEA886004D505EB46112020C1F8A4
:100FF000080B5FEA884005D505EB46104FF4005119
:10100000C0F8081B7F08761C002FABD1206802F0C7
:101010008EFD40034FF000095CD5206802F05FFDB3
:101020000746002654E0F80750D0F1B2206802F0DD
:1010300064FD8046C00723D006F00F020AFA02F0D2
:10104000D5F834288243C5F8342805EB4610C0F89B
:1010500008A9206901280FD1C6EBC60004EB800067
:10106000D0E911211144816436B9206D20B920687E
:101070000121009A02F082FBF1B22046FFF719FE2F
:101080005FEA087003D505EB4611C1F808B95FEABD
:10109000C86004D505EB46111020C1F808095FEAC5
:1010A000486004D505EB46114020C1F808095FEA05
:1010B000887004D505EB46110220C1F808095FEAE3
:1010C000086003D53146204601F0E2F87F08761C1F
:1010D000002FA8D1206802F02AFD002811DAD5F8E7
:1010E000040820F00100C5F8040894F8F40301286E
:1010F00029D0204600F0B9F92068416901F000418B
:101100004161206802F013FD00050BD5D5F80808F1
:10111000C00702D0204600F011FA2068416901F4AE
:1011200000614161206802F002FDC00468D5D5F875
:10113000040820F00100C5F804081021206802F01E
:10114000ABFC002127E084F8F49300212046FFF750
:1011500085FDD1E705EB41104FF67F32C0F8082935
:10116000D0F8003923F40013C0F80039D0F8003962
:1011700043F00063C0F80039C0F8082BD0F8002B0A
:1011800022F40012C0F8002BD0F8002B42F00062CD
:10119000C0F8002B491C60688842DBD8D5F81C08D1
:1011A00040F00110C5F81C08206B60B1D5F8840828
:1011B00040F00B00C5F88408D5F8440840F00B0057
:1011C000C5F844080CE0D5F8141842F22B0001438E
:1011D000C5F81418D5F8100840F00B00C5F8100831
:1011E000D5F8000820F4FE60C5F80008217C2068CE
:1011F000009A02F0C3FA2068416901F4805141610C
:10120000206802F094FC800415D5206802F0EAF80A
:10121000206802F053FCE06000F062FA0146227B95
:10122000206802F0BFFC204600F00CF920684169FC
:1012300001F400514161206802F079FC000707D5F4
:10124000204600F016F92068416901F0080141616B
:10125000206802F06CFCC00208D50021204600F096
:1012600035F82068416901F480114161206802F07D
:101270005EFC800208D50021204600F02BF8206893
:10128000416901F400114161206802F050FC400006
:1012900007D52046FFF709FD2068416901F080412C
:1012A0004161206802F043FC40070AD52068456888
:1012B000680702D52046FFF70FFD206841682943E3
:1012C0004160BDE8FC9F00000A30544FD0F8040490
:1012D00001F06ABDD0F8040401F076BD2DE9F041BB
:1012E0008AB0040005D094F8BD032668002520B11B
:1012F00008E001200AB0BDE8F08184F8BC53204624
:1013000000F05EF8032084F8BD03F06BC00500D444
:101310002561206802F0A0F904F110012822884616
:101320006846FEF7E4FF94E80F0002F069F8022631
:10133000C8BB0021206802F00CFC002001270EE051
:10134000C0EBC00104EB810181F83D7001F83C0F56
:10135000C880CD708D60CD60401CC0B24D616168A9
:101360008142EDD8002011E0C0EBC00104EB810107
:1013700081F8FD5181F8FC0181F8FF51C1F8045258
:10138000C1F80852401CC0B2C1F8105261688142D5
:10139000EAD8282241466846FEF7A9FF94E80F00E4
:1013A00002F0A0F810B184F8BD63A2E784F83850C9
:1013B00084F8BD73206802F087F800209AE70000E7
:1013C00010B586B0044614216846FEF7A9FF2068D0
:1013D000B0F1A04F2FD119480021026842F001025C
:1013E0000260006800F0010005904FF4C0500090CA
:1013F0000220CDE90101032003900A2004906946F0
:101400000F48FFF779F90D48001D016841F0800190
:1014100001600A481430016841F4804101600068AD
:10142000002200F48040059005214320FFF7E4FBF3
:101430004320FFF7D3FB06B010BD00003038024058
:101440000000024070B50446C0680125022801D0A2
:10145000FFF73EF92946D4F8040401F021FDD4F841
:101460000404BDE8704001F0D4BCD0F8040401F0DD
:10147000FDBCD0F8040401F003BD10B5044690F89B
:10148000BC0301280BD0012084F8BC0384F8381079
:10149000206802F075FB002084F8BC0310BD022018
:1014A00010BDD0F8042400F57171104601F004BDA0
:1014B00010B50446006894F8BC13012906D0012138
:1014C00084F8BC13A16A012902D008E0022010BDF3
:1014D000A169012903D0816B41F4803181632068C7
:1014E00002F0C4FA206801F0E1FF002084F8BC0398
:1014F00010BD70B50446006894F8BC130546012978
:101500000FD0012184F8BC1302F0A6F8206801F086
:10151000DBFF1021206802F0BFFAA06A012802D088
:1015200008E0022070BDA069012803D0A86B20F458
:101530008030A863002084F8BC0370BD10B5044659
:10154000D0F8040401F003FD2068D0F8001E41F03B
:101550000101C0F8001E206A002804D0024801687A
:1015600041F00601016010BD10ED00E02DE9F047EB
:101570000E46050065D0DFF81481D8F80000F7B2F8
:1015800000F00700B04207D288F80070D8F80000D9
:1015900000F00700B04254D128683D4C810712D5B5
:1015A000400703D5206840F4E05020602878000709
:1015B00003D5206840F4604020602068A96820F0CE
:1015C000F000084320602878C0072DD030496868B3
:1015D0000839012812D0022813D0032811D0096835
:1015E000890700292DDA216821F0030101432160D8
:1015F000FFF77EF9814641F2883A0EE009688903D7
:10160000EFE709688901ECE7FFF772F9A0EB090140
:10161000514502D90320BDE8F0872068696800F0D1
:101620000C00B0EB810FEFD1D8F80010404601F06C
:101630000701B14207D90770006800F00700B04207
:1016400001D00120E7E72878400705D52068E96840
:1016500020F4E050084320602878000706D5206871
:10166000296920F4604040EAC100206000F05EF883
:101670002168084AC1F30311515CC840064908605B
:1016800006480068FFF754FA0020C4E7003C024017
:10169000083802404C550008840000207C000020DF
:1016A0000F2202600C4A136803F0030343601368BF
:1016B00003F0F0038360136803F4E053C36012681F
:1016C0004FF4E05303EAD20202610448006800F0DC
:1016D000070008607047000008380240003C0240E4
:1016E0000148006870470000840000200448054954
:1016F00000680968044AC1F38221515CC840704700
:1017000084000020083802405C5500080448054960
:1017100000680968044AC1F34231515CC84070470F
:1017200084000020083802405C550008154810B5B8
:10173000006810F00C02144813D01449042A0FD08A
:10174000082A0ED10F4C241F2268236802F03F02A2
:101750005B0207D52068C0F38810A0FB010106E0FA
:10176000084610BD2168C1F38811A1FB00010023C8
:10177000FEF78CFD2168C1F30141491C4900B0FB13
:10178000F1F010BD083802400024F40040787D01DB
:101790002DE9F84F04006ED02078DFF84C93C00795
:1017A000A9F104054AD009F104000168C1F38101DF
:1017B000012908D00068C0F3810002280AD1D9F8B5
:1017C0000000400206D52868800337D560680028ED
:1017D000E1D033E06068B0F5803F10D0B0F5A02FC5
:1017E000286810D020F480302860286820F48020F9
:1017F00028606068A8B1FFF77BF806460DE028680E
:1018000040F48030F4E740F480202860F7E700BF20
:10181000FFF76EF8801B642873D828688003F7D51B
:101820000CE0FFF765F8064605E000BFFFF760F83B
:10183000801B6428F0D828688003F7D42078DFF86C
:10184000AC8280074FF0000A3ED5A748001D016812
:1018500011F00C0F08D00068C0F3810002280BD1F2
:10186000D9F80000400207D42868800716D5E06840
:10187000012800D112E033E1E068B8B10120C8F8D6
:101880000000FFF735F8064605E000BFFFF730F827
:10189000801B0228C0D828688007F7D528682169EE
:1018A00020F0F80040EAC10028600DE0C8F800A070
:1018B000FFF71EF8064604E0FFF71AF8801B02281F
:1018C0001FD828688007F7D42078000722D5864FD4
:1018D00087486169703771B101210160FFF708F82D
:1018E000064604E0FFF704F8801B022809D8386890
:1018F0008007F7D50EE0C0F800A0FEF7F9FF064616
:1019000005E082E0FEF7F4FF801B02287DD83868EE
:101910008007F7D42078400768D5DFF8CCB10027DE
:101920000BF13C0BDBF80000C0000BD4DBF800101F
:1019300041F08051CBF80010DBF80000012700F0E7
:10194000805000906B4E3068C00510D4306840F471
:1019500080703060FEF7CCFF009005E0FEF7C8FF16
:101960000099401A022850D83068C005F6D55E4E5E
:10197000A0686C3601280FD00528306810D020F000
:1019800001003060306820F004003060A068B8B119
:10199000FEF7AEFF00900FE0306840F00100F4E782
:1019A00040F004003060F7E7FEF7A2FF0099411A0B
:1019B00041F28830814266D830688007F4D50EE065
:1019C000FEF796FF009007E0FEF792FF0099411A9C
:1019D00041F28830814256D830688007F4D42FB164
:1019E000DBF8001021F08051CBF80010A069C8B3DB
:1019F0003D49091D0968C1F3810102294AD0022825
:101A0000504607D0C8F8600000E03CE0FEF770FFE9
:101A100004463BE04746C8F86000FEF769FF06460B
:101A200005E000BFFEF764FF801B02282BD8286862
:101A30008001F7D4D4E907010843A16A2E4A490876
:101A400002EB0141626A41EA8211084394F82C10CA
:101A500040EA0161C9F8001001203866FEF748FF2E
:101A6000044606E03EE000BFFEF742FF001B0228EE
:101A700009D828688001F7D534E000BFFEF738FFA9
:101A8000001B022802D90320BDE8F88F28688001D6
:101A9000F4D427E00128F7D0D9F80000E26900F477
:101AA000800191421CD1226A00F03F01914217D17E
:101AB00047F6C071626A0140B1EB821F10D1A26A81
:101AC0004FF0FF3300F4403103EB5202B1EB024F11
:101AD00006D194F82C1000F07060B0EB016F01D0CB
:101AE0000120D1E70020CFE7043802400000474240
:101AF000800E4742007000400000FFFF70B50400F8
:101B000009D0606A002540B125616561A56294F83D
:101B1000510040B10CE0012070BD6068B0F5827FDB
:101B2000F4D0E561F2E784F85050204600F044F824
:101B3000022084F851002068016821F04001016012
:101B4000A088218900F4827001F404410843A1892E
:101B500001F400610843217C01F002010843217D6A
:101B600001F001010843218B01F400710843217F3A
:101B700001F03801084394F8201001F08001084377
:101B8000218D01F40051084321680860A0690421F7
:101B900001EA104094F8241001F010010843216874
:101BA00048602068C16921F40061C1616565012058
:101BB00084F85100002070BD10B586B00446142191
:101BC0006846FEF7ADFB13492068884220D11248D1
:101BD0000021026842F480520260006800F48050E4
:101BE00005900D481438026842F001020260006856
:101BF00000F001000590F02000900220CDE90101E5
:101C0000032003900520049069460448FEF774FD04
:101C100006B010BD003001404438024000000240D0
:101C20007047704710B5040003D094F83D0010B120
:101C300007E0012010BD002084F83C00204600F0A1
:101C40001EF8022084F83D00211D206800F0E4FB0E
:101C5000012084F8460084F83E0084F83F0084F8B0
:101C6000400084F8410084F8420084F8430084F87E
:101C7000440084F8450084F83D00002010BD704702
:101C800090F83D10012901D001207047022180F811
:101C90003D100168CA6842F00102CA6000680E493E
:101CA00088420ED0B0F1804F0BD00C49884208D04A
:101CB0000B49884205D00B49884202D00A49884224
:101CC00004D1816801F00701062903D0016841F0C1
:101CD0000101016000207047000001400004004045
:101CE00000080040000C004000400140704770B503
:101CF0000446006801694FF00005C943890715D4FF
:101D0000C168C943890711D4E91E01610120207708
:101D1000206880698007204602D0FFF7E7FF04E0D3
:101D200000F098F8204600F096F8257720680169C1
:101D3000C943490717D4C168C943490713D46FF091
:101D400004010161022020772068806910F4407F3F
:101D5000204602D0FFF7CAFF04E000F07BF82046DF
:101D600000F079F8257720680169C943090716D47E
:101D7000C168C943090712D46FF00801016104204A
:101D800020772068C0698007204602D0FFF7AEFFA9
:101D900004E000F05FF8204600F05DF82577206849
:101DA0000169C943C90617D4C168C943C90613D418
:101DB0006FF010010161082020772068C06910F4DD
:101DC000407F204602D0FFF791FF04E000F042F888
:101DD000204600F040F8257720680169C943C9070B
:101DE00008D1C168C943C90704D1891E01612046D1
:101DF00000F032F820680169C943090609D4C168B6
:101E0000C943090605D46FF0800101612046FFF740
:101E100007FF20680169C943490609D4C168C9435D
:101E2000490605D46FF040010161204600F01EF81C
:101E300020680169C94389060BD4C168C943890672
:101E400007D46FF0200101612046BDE87040FFF724
:101E5000E8BE70BD7047704700680349884201D1F1
:101E6000FEF744BE7047000000040040704770B5A4
:101E7000040004D094F83D00002510B106E00120D4
:101E800070BD84F83C50204600F022F8242084F8ED
:101E90003D002068C16821F40051C160204600F077
:101EA00007FB2068016921F49041016120684169C4
:101EB00021F02A0141612068C16841F40051C160EC
:101EC0002564202084F83D0084F83E00002070BD89
:101ED00010B586B0044614216846FEF721FA14496D
:101EE0002068884221D113480021026842F0100284
:101EF0000260006800F0100005900E481438026877
:101F000042F001020260006800F0010005904FF409
:101F1000C06000900220CDE901010320039007205A
:101F2000049069460448FEF7E7FB06B010BD0000C8
:101F3000001001404438024000000240FEE700006B
:101F4000F0B500230A24302537261F4611E000BFD4
:101F5000B4EB107F02D905EB107C01E006EB107C9E
:101F600001F813C001EB430C00015B1C8CF80170FD
:101F7000DBB29342ECD3F0BD064D4FF480744FF4C6
:101F8000FA7621462846FEF7A5FC304601F0C3FE4E
:101F9000F7E7000000040240064D4FF480744FF450
:101FA000967621462846FEF795FC304601F0B3FEB2
:101FB000F7E700000004024000207047002070474F
:101FC00000207047002070470020704700207047B5
:101FD00010B50B4A00210B4801F0D8FE0A4C084A04
:101FE000002120602432094801F0D0FE044A6060DC
:101FF00048320021064801F0C9FEA06010BD000073
:10200000E05400083D23000800000020991F00084C
:10201000791F000870B586B014216846FEF780F974
:102020001E480024016841F004010160016801F0CC
:1020300004010591016841F080010160016801F02F
:1020400080010591016841F001010160016801F022
:1020500001010591016841F0020101600068104E24
:1020600000F0020040F20235059000222946304679
:10207000FEF738FC01200095CDE9010469463046A1
:102080000394FEF739FB0420CDE90004694630468D
:102090000294FEF731FB06B070BD000030380240FC
:1020A000000402400D4810B50B4901600C49416025
:1020B00000214FF480428160C0E9031241618161D7
:1020C000C1610162FEF71AFC002803D0BDE8104090
:1020D000FEF7FEBA10BD0000005400407001002061
:1020E000A08601000F4810B50D4901604FF48271C0
:1020F000416000218160C1604FF480220161C0E92C
:102100000512C1610162416281620A21C162FFF769
:10211000F5FC002803D0BDE81040FEF7D9BA10BD89
:1021200000300140C40100200C4810B50A4901608C
:102130004FF4E1314160002181600C22C160C0E9AF
:1021400004128161C161FFF792FE002803D0BDE84F
:102150001040FEF7BDBA10BD001001401C02002067
:1021600010B500220F49104800F02AFD08B1FEF713
:10217000AFFA0E490C4800F012FF08B1FEF7A8FABA
:102180000B49094800F03DFB08B1FEF7A1FA0648EB
:1021900000F080FF002803D0BDE81040FEF798BA99
:1021A00010BD00000C000020600200200C01002087
:1021B0005C000020FEE7FEE70148FEF76DBE000070
:1021C000500900202DE9F04103680D4604461E6CBD
:1021D00003EB4511D1F8080BD4F810E04FF4004799
:1021E0004FF0200C04F57172BEF1010F09D0DFF839
:1021F00098E0764539D1020432D500BFC1F8087B9A
:102200003FE0224B5FEA007E04D59E4239D90004AC
:10221000F4D436E05FEA806E02D5C1F808CB30E036
:1022200010F0280F2DD19E4201D90004E6D4C5EB51
:10223000C50004EB8000D1F8101BD0F80432C1F3C4
:102240001201591AC0F81412D0F808121944C0F833
:10225000081295B9D4F8100278B9012120680AE073
:1022600080060AD5C1F808CB07E035B9D4F81002CA
:1022700018B90021184601F081FAE9B22046FEF7AC
:1022800021FD0020BDE8F0810A31544F0A30544F3F
:102290002DE9F84F0E46C1EBC60100EB81048146E3
:1022A0000568D4E914103C34884202D90120BDE805
:1022B000F88F081AA168814200D20846C01C87081E
:1022C00005EB46181BE000BFA0EB010AA0685045D3
:1022D00000D282460AF10300870899F810000090A6
:1022E0001FFA8AF3F2B22846E16801F0CFFCE168F8
:1022F00001EB0A00E060A16901EB0A00A061D8F8D7
:10230000180980B2B84205D3D4E90501814201D24F
:102310000028D9D1D4E90501884208D806F00F0178
:1023200001208840D5F834188143C5F834180020BE
:10233000BDE70178407841EA00207047FFF710FFC1
:10234000012001F0E8FCFBE710B54FF0E020006948
:1023500002F010FF012803D0BDE8104002F03EBC9F
:1023600010BD000030B593B030216846FDF7D8FFAE
:1023700014210CA8FDF7D4FF1E480024016841F089
:1023800080510160006800F0805011901A48016887
:1023900021F4404141F400410160006806AA00F4C4
:1023A00040401190032000904FF4803001900120B4
:1023B000039010200490022041050F2582E823009D
:1023C0009021CDE9091005200B906846FFF7E0F950
:1023D00008B172B6FEE7CDE90C540E940F940021BB
:1023E0000CA81094FFF7C2F8002801D072B6FEE7DF
:1023F00013B030BD40380240007000400248016810
:1024000041F470010160704788ED00E00148FFF77A
:102410006EBC0000580F0020F0B502681D4B1E4C2A
:102420009F031E4D1E4E984207D0B84205D0A042D1
:1024300003D0A84201D0B04204D122F0700C4A6807
:1024400042EA0C02984210D0B8420ED0A0420CD002
:10245000A8420AD0B04208D0124CA04205D0124C7B
:10246000A04202D0114CA04203D122F44074CA68A9
:1024700022434C6922F08002224302608A68C262D1
:102480000A688262984201D10969016301214161B0
:10249000F0BD0000000001400004004000080040C2
:1024A000000C004000400140004401400048014051
:1024B00070B5044600680169E26821F44051114397
:1024C00001612169A068E269084361691143084319
:1024D0002168CA6849F20C639A430243CA602068C3
:1024E0004169A26921F44071114341613149206879
:1024F000884202D03049884202D1FFF707F901E053
:10250000FFF7F4F8E2690023192164253226B2F5B9
:10251000004F626828D0A0FB0101930F9200FDF7E5
:10252000B5FE0146B0FBF5F06FF01802504301EB29
:10253000800006EB0010B0FBF5F000F0F002B1FBFC
:10254000F5F002EB0012B1FBF5F06FF01803584301
:1025500001EB800006EB0010B0FBF5F000F00F007F
:1025600021681044886070BDA0FB010192185B4196
:10257000FDF78CFE0146B0FBF5F00201B1FBF5F072
:102580006FF01803584301EB800006EBC000B0FB6E
:10259000F5F000F0F80002EB4002B1FBF5F0584313
:1025A00001EB800006EBC000B0FBF5F000F0070087
:1025B000D6E70000001001400014014010B5D0F82B
:1025C000B8220AB152689047002010BD134610B5DA
:1025D0000A46002100F014FC002010BD134610B57F
:1025E0000A46002100F0BCFC002010BD10B50446D6
:1025F000802100F091FC2046BDE81040002100F051
:102600008BBC10B50323C0F89432C0F85821134690
:10261000C0F85C210A46002100F0F2FB002010BD4A
:1026200010B50521C0F8941200231A46194600F08F
:10263000E7FB002010BD10B50223C0F89432826180
:102640001346C2610A46002100F08AFC002010BD3A
:1026500010B50421C0F8941200231A46194600F060
:102660007FFC002010BD70B5D0F8BC120446B9B193
:102670000025C1F800540220C1F8045481F8180460
:1026800081F8105481F81404D4F8C00204F52F74B2
:1026900080688047206800F05FFE0020256070BDE4
:1026A000022070BD002070477CB50246D2E9AF40E1
:1026B00084B394F81814042902D0072958D029E0CB
:1026C000D4F80014002571B1012931D98902D4F858
:1026D0000824A1F5006111440369D4F804242046BC
:1026E0009847B8B924E0D4F80414012920D005296A
:1026F0000BD0C4F804540120ADF806008DF800504A
:1027000069461046FFF772FF12E02178212903D0B5
:1027100041291DD003207CBD6078A17800EB012009
:10272000E17800EB0140217900EB0160C4F8080476
:10273000C4F804540320C4F8005484F8180484F83E
:10274000115484F8125484F8135484F8140412E0D9
:102750006178A27801EB0221E27801EB0241227953
:1027600001EB0261C4F80814C26808469047B8E754
:102770001046FDF705FF00207CBD00001B210180F5
:1027800000487047480100200A2101800048704736
:102790006401002010B5D0F8C002062905D80068F1
:1027A000034900F0DDF9024810BD002010BD000013
:1027B0007458002010B5044640F21C4000F0CEFDD5
:1027C0000021D0B1C4F8BC0200F580604FF0006277
:1027D000C0E9022101604160417602220276017463
:1027E00041748174C17402754175D4F8C0024068A7
:1027F0008047002800D0032010BD0220C4F8BC127E
:1028000010BD19B1C0F8C0120020704703207047F6
:1028100000207047F8B500240D46D0F8BC122646BB
:1028200022462346ADF8004031B12F7817F06007FB
:1028300063D0202F75D101E00320F8BD6E7802220D
:10284000072E6ED2DFE806F05504080C0F32360072
:102850002946FDF707FE87E02946FDF7C9FE83E01C
:10286000FDF732FE80E091F818040A2811D00A2002
:1028700081F818040E2281F8102481F8113481F8AF
:10288000123481F8133481F8140400BF81F8153430
:102890006AE081F8182481F8103481F8113481F845
:1028A000123481F8133481F81424EFE7012201F582
:1028B000836142E091F81804022807D0032805D06C
:1028C000052803D0062801D009284DD181F8182405
:1028D00081F8103481F8113481F8123481F81334FE
:1028E00081F8142481F81534C1F80034C1F8043497
:1028F0003AE02946FDF77CFD36E06B78062B11D0D7
:1029000003DC3BB1012B2BD12EE00A2B18D00B2B73
:1029100026D11DE090F89C12032921D1022269469C
:102920000BE01DE069882123B3EB112F04D1EA8865
:10293000104E092A00D909223146FFF77CFE13E028
:1029400090F89C22032A0BD1012201F20C41F4E7FA
:102950006A8812F0FF0F03D190F89C32032B05D048
:102960002946FFF743FE03242046F8BDD0B2C1F844
:102970000C04F9E75A01002010B50A46024903A0E9
:1029800000F0EEF8004810BD580D002044465520D8
:10299000436F6E6669670000122008800048704728
:1029A0002C00002010B50A46024903A000F0D8F818
:1029B000004810BD580D002044465520496E7465EE
:1029C000726661636500000004200880004870475B
:1029D0002800002010B50A46024903A000F0C0F804
:1029E000004810BD580D002053544D6963726F6547
:1029F0006C656374726F6E696373000010B50A468C
:102A0000024903A000F0ACF8004810BD580D0020AA
:102A100053544D333220446F776E4C6F61642046BF
:102A200069726D776172652055706461746500002C
:102A300010B51A2008800A480168001D0468001DAE
:102A40000068081809D008220649FFF779FA0549F5
:102A5000042210312046FFF773FA0248801E10BD91
:102A6000107AFF1F42000020F8B504460020ADF8A0
:102A7000000048880D46010A082968D2DFE801F005
:102A8000670409176767454ED4F8B412207C0A68BA
:102A900019E0207C02260028D4F8B80205D0C16ACB
:102AA000684688470146467042E0816AF8E7C1B24D
:102AB000062921D2DFE801F0030A1014181CD4F80B
:102AC000B402426805E06946904725E0D4F8B402B4
:102AD0008268DAB3207CF6E7D4F8B402C268F8E77B
:102AE000D4F8B4020269F4E7D4F8B4024269F0E71A
:102AF000D4F8B4028269ECE7D4F8B8128B6B2BB32C
:102B0000C1B26A462046984706E0207CF0B9D4F866
:102B1000B802416B68468847014609E0207CA8B9A5
:102B2000D4F8B802016B6846884701460720487010
:102B3000EA888AB1BDF8000040B1824200D902465D
:102B4000ADF800202046FFF776FDF8BDFFE72946E7
:102B50002046FFF74BFDF8E72046FFF779FDF4E745
:102B600070B5002300281ED00025044602E06D1C2D
:102B7000EDB2641C2678002EF9D1022404EB450442
:102B800014801278CA545B1C0322CA5400245B1CB4
:102B900006E0CA545B1CDAB28C54521CD3B2401CFF
:102BA0000278002AF5D170BD01004FF0000004D07A
:102BB000012901D0022901D003207047012070476C
:102BC00078B10023C0F8B832C0F8C032C0F8CC32B7
:102BD00009B1C0F8B412012180F89C12027000F013
:102BE000A3B80320704710B5D0F8C402FEF778F8F8
:102BF000BDE81040FFF7D8BF70B51646044621B1B6
:102C000094F89C02032841D048E0D4F8941204F1CF
:102C100014000025022932D1D0E902318B4206D9B5
:102C20005A1A826031462046FFF7D8FC0FE09942DD
:102C300014D14068884211D3D4F8981288420DD23A
:102C4000002211462046FFF7C9FCC4F89852002321
:102C50001A461946204600F0D3F810E094F89C027A
:102C6000032805D1D4F8B802C16809B120468847C5
:102C70008021204600F050F92046FFF7D1FC94F85F
:102C8000A00201280AD184F8A05207E0D4F8B802C3
:102C900042691AB120469047002800D1002070BD3B
:102CA00010B51346044621B194F89C02032823D0A2
:102CB0002AE0D4F8941204F5AA70032924D1D0E9AB
:102CC000021291420AD98A1A8260C068824200D3F5
:102CD000024619462046FFF779FC15E094F89C025D
:102CE000032805D1D4F8B802016909B12046884704
:102CF0002046FFF7ADFC07E0D4F8B80282691AB1AC
:102D000020469047002800D1002010BD00207047C9
:102D100010B5012180F89C12D0F8B82212B1526887
:102D200001799047002010BD10B5017839BB1549D5
:102D30000222C1F80404C0F8C4124FF0A040086099
:102D4000042048600020C1E90320C1E90620086290
:102D50004862C86208630846FEF7C0FA08B1FDF78A
:102D6000B7FC80210748FDF77AFF40220021054883
:102D7000FDF779FF802201210248FDF774FF002052
:102D800010BD0000500900200A0601F07F01D0F8B4
:102D9000C402C1EBC10100EB810002D590F83E00F6
:102DA000704790F8FE01704710B5D0F8B82222B1F4
:102DB00090F89C32032B02D004E0032010BD126A6D
:102DC00002B19047002010BD10B5D0F8B82222B152
:102DD00090F89C32032B02D004E0032010BD526A0D
:102DE00002B19047002010BD10B51C461346D0F824
:102DF000C4022246FDF7A2FFBDE81040FFF7D4BE93
:102E000010B5D0F8C402FDF7C9FFBDE81040FFF7C8
:102E1000CBBE70B50125044680F89C520020C4F852
:102E200094026060C4F8A402D4F8B802E0B1D4F807
:102E3000BC1221B1426812B1002120469047002205
:102E4000402311462046FFF7CFFF4026A4F86451E7
:102E50003346002280212046C4F86061FFF7C4FF9A
:102E6000A5840020266270BD032070BD90F89C12DE
:102E7000042903D190F89D1280F89C12002070471D
:102E800010B5D0F8B81221B190F89C22032A02D0D4
:102E900004E0032010BDC96901B18847002010BDBE
:102EA00001740020704710B5D0F8C402FEF7E5FAAF
:102EB000BDE81040FFF778BE70B5044600F2AA20C6
:102EC000054600F056F80120C4F89402B4F8B002A8
:102ED000C4F8980294F8AA0210F01F010AD0012940
:102EE0000ED0022912D000F080012046BDE87040CB
:102EF00000F012B829462046BDE8704000F0CCB87A
:102F000029462046BDE8704000F0F0B92946204629
:102F1000BDE8704000F04AB910B5D0F8C402FDF722
:102F200061FFBDE81040FFF73FBE10B5D0F8C40206
:102F3000FEF7BEFABDE81040FFF736BE10B5D0F878
:102F4000C402FEF7D6FABDE81040FFF72DBE90F898
:102F50009C1280F89D12042180F89C12002070477A
:102F600010B5D0F8C402FDF777FFBDE81040FFF7B9
:102F70001BBE70B5054611F8010B28700878687003
:102F80004C1C2046FFF7D5F96880A41C2046FFF7AB
:102F9000D0F9A880A01CFFF7CCF9E88070BD38B547
:102FA00004460020ADF8000049B1C4F8B812C96A5F
:102FB00019B168468847C4F8CC02002038BD032008
:102FC00038BD02460320D2F8B832002B02D01B686D
:102FD00010461847704700002DE9F0410F462C4E6F
:102FE0008978002504463170012906D939462046E2
:102FF000FFF7FCFA0320BDE8F08194F89C02022858
:103000000CD003281DD039462046FFF7EFFA31785F
:103010002046FFF7D3FA03252846ECE799B320466C
:103020006160FFF7CEFF050004D039462046FFF768
:10303000DDFAF1E72046FFF70BFB032084F89C0242
:10304000EAE74FF00208C1B1606888421BD0C1B204
:103050002046FFF7B3FA317820466160FFF7B1FFF1
:10306000050010D039462046FFF7C0FA21792046E6
:10307000FFF7A4FA84F89C82CEE784F89C8220466D
:103080006160FFF79BFA2046FFF7E2FAC4E7000011
:1030900008010020FFF749BF2DE9F0410A7800251B
:1030A00012F0600208D0202A01D0402A71D1D0F855
:1030B000B8229268904731E04B78002201260A2B13
:1030C00067D2DFE803F0415E6658660805662D2981
:1030D000FFF7CAFC5FE004468888D8B9C888C8B939
:1030E0004888802816D200F07F0794F89C020328B5
:1030F00010D084F89E7239462046FFF7D4FE204651
:10310000FFF7A6FA1FB1022084F89C0243E084F87E
:103110009C6240E020463CE0FFF75EFF05463AE057
:10312000CB88012B35D190F89C32012B04D0022B97
:1031300002D0032B2DD104E08260012200F10801AE
:1031400016E00122011D13E090F89C22012A03D011
:10315000022A01D0032A1CD1CA88022A19D1C660CA
:10316000D0F8A41209B10321C160022200F10C01C0
:10317000FFF761FA0FE0498801290CD1C0F8A46279
:1031800011E090F89C32012B08D0022B06D0032BC3
:1031900004D0FFF72BFA2846BDE8F08149880129C1
:1031A000F9D1C0F8A422FFF753FAF4E72DE9F04172
:1031B0000D46044628780026097910F060000BD0EF
:1031C000202801D040286DD1D4F8B8022946826861
:1031D00020469047064686E06878A8B3012822D0AA
:1031E00003287CD194F89C02022802D0032876D1CF
:1031F0000BE0002973D0802971D02046FFF78CFEA8
:1032000080212046FFF788FE6DE0688838B931B12B
:10321000802904D0E88810B92046FFF77DFE2046BB
:10322000FFF716FA5FE094F89C020228E1D0032829
:1032300055D16888A8BB480602D02046FFF7D3FCCA
:103240002046FFF705FABFE7FFE794F89C02002746
:10325000022802D0032842D111E009B180293ED1D1
:10326000080601F07F0000EB800004EB800101D52F
:10327000143101E001F5AA7102220F602BE008066B
:1032800001F00F0000EB800004EB80000BD5808C78
:1032900040B101F07F0000EB800004EB80051435A5
:1032A0000CE020E01BE0B0F86401C0B101F07F0049
:1032B00000EB800004EB800505F5AA7541B180297B
:1032C00006D02046FFF760FD10B10120286000E025
:1032D0002F60022229462046FFF7ADF903E0294678
:1032E0002046FFF783F93046BDE8F08170B5064609
:1032F000087800240D4610F0600003D0202801D08B
:10330000402817D196F89C02012803D0022801D04A
:1033100003280FD1287901280CD8D6F8B802826882
:10332000304690470446E888204306D13046FFF7F0
:103330008FF902E03046FFF759F9204670BD10B50D
:103340000446FFF7FBFDD4F8B80218B142682179B2
:1033500020469047002010BD70470000004870478D
:103360003005002070B50A78012302F00F054E7871
:10337000AB401B4CD0F81C58012E17D045EA034334
:10338000C0F81C3800EB4210D0F8002B12040BD40C
:10339000D0F8002B0B89C978C3F30A031A4344EA17
:1033A00081410A43C0F8002B002070BD9BB21D4331
:1033B000C0F81C5800EB4210D0F800391B04F3D4BD
:1033C000D0F800390D89C978C5F30A0589042B4363
:1033D00041EA82510B432343C0F80039E4E700007F
:1033E00000800010D0F800196FF30A01C0F800192E
:1033F000D0F8041841F48071C0F804180020704718
:1034000070B5044606990A9E049D0D98012916D0B0
:10341000E06840F04000E060204600F02BF8A16B2F
:103420001EB321F48031A163012D07D1A16841F0C1
:103430000601A160A16841F02001A16070BDA16BEF
:1034400021F48031A163E168094A1140E160E1683B
:1034500021F44011E160012803D1E06840F48010BC
:10346000E060204600F006F8DEE741F48031DAE75C
:10347000BFFFBDFF01220C4902E0521C8A420BD85B
:103480000369002BF9DA026942F0010202610122AC
:1034900004E0521C8A4201D9032070470369DB070C
:1034A000F7D1002070470000400D0300D0F8001E47
:1034B00021F00301C0F8001ED0F8041821F0020129
:1034C000C0F8041800207047D0F8001E21F0030156
:1034D000C0F8001ED0F8041841F00201C0F804182A
:1034E000002070472DE9F04F00250E460446DDF818
:1034F0002CC0DDF824B0109F2846294604EB80023A
:10350000C2F80411401C0F28F8D32046C7B1806BC5
:1035100020F40012A263A06B40F40022A2630846CC
:103520008846C4F8000ED4F800182046C4F80018E5
:10353000BCF1010F16D0D0F8001841F0030116E0DD
:10354000D0F8040840F00202C4F80428A06B40F44C
:103550000012A263A06B20F40022A263A06B20F4EF
:103560008022DBE7D0F800180BB141F00101C0F870
:103570000018102100F090FA00B10125204600F05B
:103580007BFA00B101254046C4F81088C4F81488BD
:10359000C4F81C8800214FF000694FF0904A4FF6A4
:1035A0007F3314E004EB4112D2F800C9BCF1000FE4
:1035B00006DA11B1C2F800A904E0C4F8009901E0EC
:1035C000C2F80009C2F81009C2F80839491C8E4235
:1035D000E8D8002115E000BF04EB4112D2F800CB7F
:1035E000BCF1000F06DA11B1C2F800AB04E0C4F878
:1035F000009B01E0C2F8000BC2F8100BC2F8083BB8
:10360000491C8E42E8D8D4F8101821F48072C4F80E
:103610001028A0616FF080406061BBF1000F03D102
:10362000A06940F01000A061A06909490843A061A9
:103630000C9818B1A06940F00800A061012F03D1D7
:10364000A06904490843A0612846BDE8F08F000046
:1036500000383C8004000040816821F00101816055
:103660000020704770B50D784E78434CEBB200EBFC
:103670004313012E1FD0D3F8100B6FF31200C3F8C1
:10368000100BD3F8100B2040C3F8100B486908B199
:1036900088684861D3F8100B40F40020C3F8100B81
:1036A000D3F8100B8C68C4F312042043C3F8100B3A
:1036B000012A55D058E04E69002ED3F8106932D057
:1036C0006FF31206C3F81069D3F810692640C3F8E7
:1036D00010694E698C68A64200D94C61D3F8104934
:1036E00044F40024C3F81049D3F810494E69C6F3D6
:1036F00012063443C3F81049012A22D000EB4512C8
:10370000D2F8003943F00443C2F800394A6932B3B1
:10371000D0F83428097801F00F03012199400A43B9
:10372000C0F8342826E02640C3F81069D3F81049C1
:1037300044F40024C3F81049D3F810496FF312047D
:10374000D8E7096919B100EB4512C2F8141900EB6A
:103750004510D0F8001941F00441C0F8001909E003
:10376000C86808B1C3F8140BD3F8000B40F004404C
:10377000C3F8000B002070BDFFFF07E010B5036C1D
:10378000134CA34203D9D0F8003B002B1EDB0023CF
:10379000C0F8103BD0F8103B43F40023C0F8103BB6
:1037A000D0F8103B43F01803C0F8103BD0F8103BA2
:1037B00043F0C043C0F8103B012907D1C0F8142BD7
:1037C000D0F8001B41F08021C0F8001B002010BD84
:1037D0000A30544F4A780B78012A00EB43100BD083
:1037E000D0F8002B22F40012C0F8002BC97803296E
:1037F00014D0022912D017E0D0F8002922F40012C8
:10380000C0F80029C978032901D002290CD1D0F8C9
:10381000001941F08051C0F8001905E0D0F8001BF4
:1038200041F08051C0F8001B002070470A784B78A7
:10383000D1B200EB4110012B12D0D0F8001B0029AF
:1038400006DB2AB1D0F8001B21F08041C0F8001B34
:10385000D0F8001B41F40011C0F8001B0020704795
:10386000D0F80019002906DB2AB1D0F8001921F0A0
:103870008041C0F80019D0F8001941F40011C0F8D7
:103880000019EBE7F8B50C784F78774DE3B26FF09D
:10389000604600EB4313012F26D0D3F8104B6FF393
:1038A0001204C3F8104BD3F8104B2C40C3F8104B44
:1038B0004C69002C74D08D682C44641EB4FBF5F464
:1038C000D3F8105BA4B206EAC4463543C3F8105BD4
:1038D000D3F8105B8E686643C6F312042543C3F821
:1038E000105B012A71D0A6E04F691FB3D3F810799D
:1038F0006FF31207C3F81079D3F810792F40C3F88B
:1039000010794F698D682F447F1EB7FBF5F506EAE5
:10391000C545D3F810693543C3F81059D3F8105989
:103920004E69C6F312063543C3F81059CD78012D00
:1039300010D01BE0D3F810692E40C3F81069D3F8FB
:10394000105945F40025C3F81059D3F810596FF3F6
:10395000120509E0D3F8105925F0C045C3F81059F5
:10396000D3F8105945F00055C3F81059012A18D062
:1039700000EB4413D3F8004944F00444C3F8004971
:10398000CC78012C2FD04A6962B3D0F8342809785A
:1039900001F00F03012199400A43C0F8342860E088
:1039A00036E00A691AB100EB4413C3F81429C97848
:1039B00001290FD1D0F80818C90500EB4411D1F83E
:1039C000002903D442F0005202E030E042F080527D
:1039D000C1F8002900EB4410D0F8001941F004416F
:1039E000C0F800193DE0D0F80848E405D3F80049D4
:1039F00002D444F0005401E044F08054C3F800497C
:103A000000928A8A93B20A78C96800F03FF928E0E8
:103A1000D3F8104B8D68C5F312052C43C3F8104B37
:103A2000D3F8104B44F40024C3F8104B59E7CA688C
:103A30000AB1C3F8142BC97801290CD1D0F80808B1
:103A4000C005D3F8000B02D440F0005001E040F074
:103A50008050C3F8000BD3F8000B40F00440C3F8CB
:103A6000000B0020F8BD0000FFFF07E0816841F077
:103A70000101816000207047002110220261054A87
:103A8000491C914201D9032070470369DB06F7D432
:103A900000207047400D03000022202343EA8111DB
:103AA00001610549521C8A4201D90320704703690C
:103AB0009B06F7D400207047400D0300D0F808089B
:103AC00010F0060004D0022803D0062801D00F20F1
:103AD000704702207047406900F001007047D0F83D
:103AE0001818D0F81C08084080B27047D0F8181891
:103AF000D0F81C080840000C704710B5D0F81038FA
:103B0000D0F8342801F00F0400EB4110E24002F03D
:103B10000102D0F8080943EAC212104010BD00EBC0
:103B20004111D1F8081BD0F81408084070474169CA
:103B3000806908407047D21C10B59308002200F538
:103B4000805002E00468521C10C19A42FAD3084621
:103B500010BD10B5C26822F0C042C260012902D077
:103B600029B1012010BDC16841F0005102E0C168D7
:103B700041F08041C1603220FCF7ACFD002010BD57
:103B8000D0F8002822F4FE62C0F80028D0F80028FF
:103B90004FF4FE6303EA01110A43C0F80028002035
:103BA00070470000022A3ED1264A274B0A449A4217
:103BB00001D20F2138E0254A254B0A449A4201D20E
:103BC0000E2131E0234A244B0A449A4201D20D21AE
:103BD0002AE0224A224B0A449A4201D20C2123E0D5
:103BE000204A214B0A449A4201D20B211CE01F4A71
:103BF0001F4B0A449A4201D20A2115E01D4A1E4B6E
:103C00000A449A420FD31D4A1D4B0A449A4201D2DC
:103C1000082109E01B4A11441B4A914201D20721A5
:103C200002E0062100E00921C26822F47052C2605D
:103C3000C2684FF4705303EA81210A43C260002036
:103C400070470000405327FF00350C00401E1BFF4B
:103C500040420F0000DC0BFF804F1200808CF9FE09
:103C600020D6130060B6E5FE60E3160000D3CEFE5A
:103C700040771B00C05BB3FEC091210000CA91FEDB
:103C800020753800E05459FEE09C410010B5029CBC
:103C900064B9DB1C9C0800EB0230002300F5805067
:103CA00002E004C902605B1CA342FAD3002010BDED
:103CB000FEE70907090E002804DB00F1E02080F888
:103CC0000014704700F00F0000F1E02080F8141D90
:103CD000704702E008C8121F08C1002AFAD17047D5
:103CE0007047002001E001C1121F002AFBD170477C
:103CF000FCF704FFFEF736FBFEF78CF9FEF7D2F96E
:103D0000FEF7F0F9FEF710FA00F012F8FEF760F98E
:103D100000F020F8FEE710B5EFF3058111B16FF068
:103D2000050403E0002408B100F0F8FD204610BDB2
:103D3000EFF3058010B16FF005007047044801688B
:103D400011B14FF0FF307047012101600020704732
:103D5000D800002010B5EFF3058010B16FF005001A
:103D600010BD08480168012902D04FF0FF3010BD96
:103D7000054A002182F8141D0221016000F036FE80
:103D8000002010BDD80000200BE000E02DE9FF412D
:103D90004FEA01034FF00005EFF30581039549BB9E
:103DA00040B38027182100244AB3166806B1344670
:103DB00096691EB13146761E382E02D21679F60764
:103DC00003D0002004B0BDE8F081566906B1B70801
:103DD000D2F808C0BCF1000F0DD0D5685C2D18D307
:103DE00012693AB136B18DE806103A46214601F023
:103DF00096F903900DE0D6685EB912694AB903AA34
:103E0000CDE90012BAB2214601F05CF9012800D0D8
:103E100003950398D6E700002DE9F041134C0F46B7
:103E20000546E6682068001D00F044FC681C07D1C8
:103E300037B12168BDE8F0410D48091D00F08ABC8A
:103E400020683544B5424560216805D2A06BBDE8C5
:103E5000F041091D00F066BC606B091D00F062FCBA
:103E6000A06A854200D2A562BDE8F08188000020EA
:103E7000901400202DE9F041054600F077FC2D4C10
:103E8000A068401CA06020682B4F10B1606930B35F
:103E90002BE02560A068012827D1002606EB8600CC
:103EA00007EB800000F030FC761C382EF6D3234858
:103EB00000F02AFC2148143000F026FC1F4828306E
:103EC00000F022FC1D483C3000F01EFC1B48503026
:103ED00000F01AFC194860631430A06305E0206804
:103EE000E96AC06A884200D82560606A401C606246
:103EF0006864E86A2169884200D9206100EB80008B
:103F000007EB8000291D00F025FC00F04FFC6069E4
:103F100000280CD02068E96AC06A884207D20849A4
:103F20004FF080500860BFF34F8FBFF36F8FBDE835
:103F3000F081000088000020E00F002040140020E5
:103F400004ED00E038B500F011FC104C2068C8B951
:103F50000F4800F0D9FB0E48143000F0D5FB0C4898
:103F6000E060143020610A4B0020F03B009003F128
:103F7000500210210A2000F047FE206010B105A178
:103F800000F096FCBDE8384000F010BCC4000020F2
:103F900094150020546D72510000000030B4026C82
:103FA0000B46002A0BD0C1681144C1608468A1424D
:103FB00001D30168C16030BC1846FCF798B930BC29
:103FC00070472DE9F041856B174604460026026CC8
:103FD00082B1C7B1E068FCF78AF9E168206C091A80
:103FE000E1602268914202D2A168081AE060022FC3
:103FF00016D017E02068A8B9A06801F033F906468A
:104000000020A0600EE06068FCF771F9216C606828
:1040100008446060A168884204D32068606001E0C1
:1040200005B16D1E6D1CA5633046BDE8F08110B56D
:10403000044690F8590058B101280CD002280FD03E
:10404000502080F31188BFF34F8FBFF36F8FFEE7CF
:10405000206B00F0BFFB2046BDE8104000F0BABB6B
:1040600010BD000010484FF47051420706D0C01D2B
:104070000D4920F00700411AC1F570510B4A002389
:104080000144C2E900030839183A21F00701116020
:104090004B600B600B1AC0E9001393604FF00040B7
:1040A0005360506170470000741C0020F400002031
:1040B000144E154CA6F29C474FF08058DFF84C90F8
:1040C00012E000BF00F052FBF068C568281D00F048
:1040D000F1FAA068401EA0606068401E606000F0B9
:1040E00065FB2846FFF7A3FF60680028EAD138681F
:1040F0000128F9D9C9F80080BFF34F8FBFF36F8F44
:10410000F2E700007C1400208800002004ED00E0AD
:1041100070B51D46049C51B1C4F80020C4E90F01DC
:104120000121204600F0A4FD84F84C5070BD2460AD
:10413000F4E700002DE9F05F8846DDE90B941546B1
:10414000834691009A460A9EA522206BFCF7E1F86F
:104150006FF00301206B01EB8501084420F0070795
:10416000780707D0502080F31188BFF34F8FBFF33B
:104170006F8FFEE70025B8F1000F0FD05FF0000051
:10418000221818F8001082F8341018F8001011B135
:10419000401C1028F4D384F8435001E084F83450D4
:1041A000382E00D33726E662C4E91365201D00F0DF
:1041B000B6FA04F1180000F0B2FA2461C6F1380032
:1041C0006462A061656584F8585052465946384685
:1041D00000F05AFA2060B9F1000F01D0C9F8004090
:1041E000BDE8F09F30B5114900E011460A688242EF
:1041F000FBD34B685C18844203D140681844486084
:10420000084643681C18944209D1084C183C24689D
:10421000A24209D052681A4442600A6812680260D9
:10422000814200D0086030BD0460F9E7F40000204E
:1042300070B5002441600B4D0061914206D8D11A3F
:104240008269914206D2011D286907E09A4203D291
:10425000994201D3012403E0011DE86800F062FAED
:10426000204670BDC400002010B5044600F07EFA60
:10427000A06B28B15FF0000400F098FA204610BD52
:104280000124F9E730B589B03C4D6EE00498002870
:1042900006DADDE90601059A90470498002864DBF8
:1042A000069C606910B1201D00F004FA03A800F01C
:1042B000D7F8024604980A2857D2DFE800F005052F
:1042C000052D334A05052D3394F8280040F00100F0
:1042D00084F828000599A069059B01442046FFF752
:1042E000A7FF68B3216A2046884794F82800400752
:1042F0003BD5002000900598A1690023421819467B
:10430000204601F0B9F8D8B9502080F31188BFF3E6
:104310004F8FBFF36F8FFEE714F8280F20F00100D6
:10432000207022E094F8280040F0010084F8280072
:104330000598A06128B1811813462046FFF778FF41
:1043400013E0502080F31188BFF34F8FBFF36F8FBE
:10435000FEE794F82800810703D4204600F03AFADB
:1043600003E020F0010084F82800002204A9286856
:1043700000F0D2FD002889D109B030BDC400002072
:104380002DE9FC410F46054600F074FB01A800F042
:1043900067F80446019818B100F0DCFFBDE8FC8125
:1043A000254EAFB130690068D0B30027291B3A46CB
:1043B000306800F091FA00F0CDFF0028EED11F49DF
:1043C0004FF080500860BFF34F8FBFF36F8FE5E76A
:1043D000A542EBD800F0BEFFF0682746C068C4686D
:1043E000201D00F067F994F82800410719D5A0694D
:1043F0002B4641193A462046FFF71AFFA8B1002084
:104400000346014600902A46204601F035F860B97F
:10441000502080F31188BFF34F8FBFF36F8FFEE7FB
:1044200007E020F0010084F82800216A2046884730
:10443000B4E70127BAE70000C400002004ED00E063
:104440000648416B096829B1416BC968C968496868
:10445000816270474FF0FF31FAE7000088000020CA
:1044600070B5054600F094FE064E0446B0688442DE
:1044700003D200F009F8012000E000202860204667
:10448000B46070BDC4000020F8B5194D20E0C068CC
:10449000C4680668201D00F00DF9216A204688478F
:1044A00094F82800400713D5A0693044B04206D9DB
:1044B00024616060211DE86800F034F908E0002004
:1044C0000346014600903246204600F0D5FF38B141
:1044D000E86801680029DAD12969C5E90310F8BD47
:1044E000502080F31188BFF34F8FBFF36F8FFEE72B
:1044F000C400002008484068401C4FF0500080F382
:10450000118804D0BFF34F8FBFF36F8FFEE7BFF367
:104510004F8FBFF36F8FFEE7FC000020074CE06871
:10452000016841B1C0680021D0F80000FFF728FF02
:10453000FFF7A8FEF3E701210020F7E7C400002001
:104540002DE9F041044600F011F994F9455004F1C9
:10455000240609E0606A48B1304600F0C3FE08B1A5
:1045600000F00AFA6D1E6DB2002DF3DC4FF0FF363D
:1045700084F8456000F01AF900F0F8F894F9445016
:1045800004F1100709E0206948B1384600F0AAFE9E
:1045900008B100F0F1F96D1E6DB2002DF3DC84F866
:1045A0004460BDE8F04100F001B900002DE9F041A0
:1045B0000546002700F05EFA324E306808B9FFF772
:1045C00051FD706905424ED1C5B3083568070ED05C
:1045D00005F00700C0F108000544680707D0502027
:1045E00080F31188BFF34F8FBFF36F8FFEE72DB3BA
:1045F0007068854237D82348183001460C6801E0BE
:1046000020460C466168A94202D221680029F7D1F0
:1046100031688C4227D007682168016060680837DC
:10462000411B10290FD96019420708D0502080F390
:104630001188BFF34F8FBFF36F8FFEE713E0416028
:104640006560FFF7CFFD61687068401A7060B268FE
:10465000904200D2B060706901430020C4E90001BB
:10466000F068401CF06000F075FE780707D050201D
:1046700080F31188BFF34F8FBFF36F8FFEE738468B
:10468000BDE8F081DC00002010B5031F4FF08074FE
:104690001C601B1F21F001011960191F044B0B60E6
:1046A00014390A60091F6FF0020244380A6010BD15
:1046B000F5440008D0E9013201699A60D0E901238C
:1046C0005A604A68824201D182684A6000220261CF
:1046D0000868401E0860086870470000034B0360CC
:1046E00003F15C000860802010607047BC1500205A
:1046F000044B036003F15C0008604FF480701060AD
:10470000704700001818002000F108014FF0FF3238
:10471000C0E90112C1600161002101607047002100
:104720000161704730B50B685A1C02D000F10802D5
:1047300002E0026904E02246546825689D42FAD9E5
:1047400053684B6099608A60516008610168491C38
:10475000016030BD42684A6093688B60936859601D
:10476000916008610168491C01607047502080F326
:104770001188BFF34F8FBFF36F8F0A494868401C01
:10478000486001280CD10848006810F0FF0F07D0DE
:10479000502080F31188BFF34F8FBFF36F8FFEE778
:1047A00070470000FC00002004ED00E00849486864
:1047B00028B1401E486001D180F311887047502015
:1047C00080F31188BFF34F8FBFF36F8FFEE70000B8
:1047D000FC00002070B500282AD0164DA0F1080476
:1047E00060686969084207D1502080F31188BFF3DF
:1047F0004F8FBFF36F8FFEE722683AB1502080F3EE
:104800001188BFF34F8FBFF36F8FFEE7884360605F
:1048100000F030F960686968084468602046FFF776
:10482000E1FC2869401C2861BDE8704000F092BDA1
:1048300070BD0000DC0000204FF0E020002101618D
:10484000816105494FF47A720968B1FBF2F1491EA2
:1048500041610721016170478400002010B5FBF71A
:10486000FFFC114910280ED300F1E02090F8F0036E
:104870000A78904207D2502080F31188BFF34F8FFF
:10488000BFF36F8FFEE709480068896800F4E060B5
:10489000884207D9502080F31188BFF34F8FBFF3B0
:1048A0006F8FFEE710BD0000FC0000200CED00E063
:1048B00010B5084B002200BF53F832401CB1521C07
:1048C000082AF9D310BD43F8321003EBC201486047
:1048D00010BD0000A00F002070B515460E4604461E
:1048E000FFF744FF94F944100020491C01D184F8DB
:1048F000440094F94510491C01D184F84500FFF7A4
:1049000055FFA06B28B92A46314604F1240000F077
:1049100051F82046BDE87040FFF712BE10B5020006
:1049200014D00F48006B38B1502080F31188BFF3CA
:104930004F8FBFF36F8FFEE700F09CF80021104609
:10494000FFF76AFA00F006FD002807D105494FF08D
:1049500080500860BFF34F8FBFF36F8F10BD000012
:104960008800002004ED00E002490A6A0260C9687C
:10497000416070478800002001490120C8617047EC
:104980008800002010B50C4650B10949096818315B
:10499000FFF7C8FE2046BDE810400121FFF73CBAF2
:1049A000502080F31188BFF34F8FBFF36F8FFEE766
:1049B0008800002070B514460D4668B10A490968A0
:1049C0001831FFF7C7FE0CB14FF0FF3521462846DE
:1049D000BDE87040FFF720BA502080F31188BFF384
:1049E0004F8FBFF36F8FFEE78800002030B587B090
:1049F0000024039405AA04A903A80494FFF76EFEFB
:104A0000DDE903010094CDE90110002315A1174849
:104A1000059A00F084FB164D0028E8621FD000F0D4
:104A2000FBFC012809D0401C19D1502080F31188CB
:104A3000BFF34F8FBFF36F8FFEE7502080F31188D5
:104A4000BFF34F8FBFF36F8F4FF0FF30A86201208D
:104A50006861EC6007B0BDE8304000F045B807B0D1
:104A600030BD000049444C4500000000B140000842
:104A7000880000200248016B491C01637047000058
:104A800088000020164810B5016B11B10121C161E9
:104A900010BD0021C1610169124A01E0B9B1491E8E
:104AA00001EB810352F82330002BF7D001EB810397
:104AB00002EB830202F1080453685B685360A3426F
:104AC00001D15B685360DA680260016110BD50205B
:104AD00080F31188BFF34F8FBFF36F8FFEE70000A5
:104AE00088000020E00F00201CB537480168374AD5
:104AF000914207D1502080F31188BFF34F8FBFF34D
:104B00006F8FFEE700683149491E884207D1502067
:104B100080F31188BFF34F8FBFF36F8FFEE72C49EF
:104B200008780190FF20087008788DF800009DF843
:104B300000009DF8002000F0F000904207D05020C7
:104B400080F31188BFF34F8FBFF36F8FFEE79DF89F
:104B50000000204C00F0500020700720A06005E00D
:104B60009DF8002052008DF80020401E9DF8002086
:104B70001206F5D4A060032807D0502080F31188D6
:104B8000BFF34F8FBFF36F8FFEE74FF44070A0600D
:104B9000019808700C482030016841F470010160F0
:104BA000016841F070410160FFF746FE002060603F
:104BB000FBF71EFB0848016841F040410160FBF72C
:104BC00003FB00201CBD000000ED00E071C20F419E
:104BD00000E400E0FC00002034EF00E010B55020BD
:104BE00080F31188BFF34F8FBFF36F8F00F0D6FAB9
:104BF00018B104494FF080500860002080F31188FC
:104C000010BD000004ED00E038B5049D18B153B1AB
:104C1000CAB181B120E0502080F31188BFF34F8FDB
:104C2000BFF36F8FFEE7502080F31188BFF34F8FE3
:104C3000BFF36F8FFEE7502080F31188BFF34F8FD3
:104C4000BFF36F8FFEE739B1502080F31188BFF3B7
:104C50004F8FBFF36F8FFEE750241C46012384F86B
:104C600046302B460094FFF753FA204638BD00002B
:104C700070B50D46040025D0FFF778FDD4E90F206C
:104C8000216802FB0011A1600021A163216861601D
:104C90000A46D4E90F01401E00FB0121E1602146D4
:104CA0004FF0FF3001F8440F487004F110008DB14F
:104CB000FFF72AFD04F12400FFF726FDFFF776FD3C
:104CC000012070BD502080F31188BFF34F8FBFF3D8
:104CD0006F8FFEE721690029F0D000F003FB002868
:104CE000ECD004494FF080500860BFF34F8FBFF302
:104CF0006F8FE3E704ED00E02DE9FF4782B01D462A
:104D00008A464FF00008040003D0BAF1000F08D023
:104D100011E0502080F31188BFF34F8FBFF36F8FE6
:104D2000FEE7206C38B1502080F31188BFF34F8F1D
:104D3000BFF36F8FFEE7022D0AD1E06B012807D089
:104D4000502080F31188BFF34F8FBFF36F8FFEE7C2
:104D500000F010FA3F4F4FF000094FF0805648B96D
:104D6000049838B1502080F31188BFF34F8FBFF300
:104D70006F8FFEE7FFF7FAFCA06BE16B884207D369
:104D8000022D05D00498D0B1B8F1000F1AD01EE062
:104D90002A4651462046FFF714F9616A19B104F119
:104DA000240000F09FFA20B13E60BFF34F8FBFF3A5
:104DB0006F8FFFF7FBFC012006B0BDE8F087FFF71F
:104DC000F5FC22E06846FFF7CFFD4FF00108FFF742
:104DD000EDFCFFF74FFEFFF7C9FC94F94400401CBF
:104DE00001D184F8449094F94500401C01D184F825
:104DF0004590FFF7DBFC04A9684600F029F930B1C3
:104E00002046FFF79DFB00F0A5FA0020D4E7FFF74E
:104E1000ADFCA06BE16B884213D1FFF7C7FC04F136
:104E200010000499FFF7AEFD2046FFF789FB00F064
:104E300091FA00289ED13E60BFF34F8FBFF36F8F72
:104E400098E7FFF7B3FC2046FFF77AFB00F082FA01
:104E500090E7000004ED00E02DE9F0471F46904682
:104E60008946040003D0B9F1000F08D011E05020AA
:104E700080F31188BFF34F8FBFF36F8FFEE7206C75
:104E800038B1502080F31188BFF34F8FBFF36F8F7D
:104E9000FEE7022F0AD1E06B012807D0502080F3F3
:104EA0001188BFF34F8FBFF36F8FFEE7FFF7D6FC7C
:104EB0005020EFF3118680F31188BFF34F8FBFF3BB
:104EC0006F8FA06BE16B884206D3022F04D00020C5
:104ED00086F31188BDE8F08794F94550A06B3A46F7
:104EE00049462046FFF76DF8681C04D06D1C84F815
:104EF00045500120ECE7606A0028FAD004F1240054
:104F000000F0F0F90028F4D0B8F1000FF1D0012141
:104F1000C8F80010EDE700002DE9F747002683B040
:104F20008A46040003D0BAF1000F08D011E05020E7
:104F300080F31188BFF34F8FBFF36F8FFEE7206CB4
:104F400038B1502080F31188BFF34F8FBFF36F8FBC
:104F5000FEE700F00FF9DFF8F4804FF000094FF0A2
:104F6000805748B9059838B1502080F31188BFF3B5
:104F70004F8FBFF36F8FFEE7FFF7F8FBA56BC5B14F
:104F800051462046FFF70AF86D1EA563206950B10F
:104F900004F1100000F0A6F928B1C8F80070BFF3C2
:104FA0004F8FBFF36F8FFFF701FC012006B0BDE804
:104FB000F087059808B11EB106E0FFF7F7FB27E080
:104FC0006846FFF7D1FC0126FFF7F0FBFFF752FD23
:104FD000FFF7CCFB94F94400401C01D184F84490C5
:104FE00094F94500401C01D184F84590FFF7DEFBA1
:104FF00005A9684600F02CF8002820460AD0FFF7E3
:105000009FFA00F0A7F92046FFF72EF90028B3D049
:105010000020CBE7FFF728F990B104F124000599AF
:10502000FFF7B0FC2046FFF78BFA00F093F9002859
:10503000A2D1C8F80070BFF34F8FBFF36F8F9BE70B
:105040002046FFF77DFA00F085F995E704ED00E0D2
:105050002DE9F0410C46050011D0C4B1FFF786FBE5
:10506000174BDA686E682068911B471C17D02F68B1
:105070001B6A9F4219D0964217D8012410E0502095
:1050800080F31188BFF34F8FBFF36F8FFEE750207F
:1050900080F31188BFF34F8FBFF36F8FFEE70024BB
:1050A000FFF784FB2046BDE8F081884205D9401A0D
:1050B00020602846FFF758FCF1E700202060DCE77D
:1050C000880000202DE9FF5F8346DDE90E879946C1
:1050D00016468A469000FFF769FA05001CD05C204E
:1050E000FFF764FA040014D00020256384F8590007
:1050F000CDE90240CDE900874B463246514658463D
:10510000FFF718F82046FEF7B5FE012004B0BDE811
:10511000F09F2846FFF75EFB4FF0FF30F6E7F0B553
:1051200085B0DDE90B640A9DA6B1DCB15C27009770
:105130002663022684F85960002604AFCDE90246B2
:10514000CDE90057FEF7F6FF2046FEF793FE0498E0
:1051500005B0F0BD502080F31188BFF34F8FBFF32F
:105160006F8FFEE7502080F31188BFF34F8FBFF39E
:105170006F8FFEE70548416919B1006B18B1002037
:10518000704701207047022070470000880000200F
:105190000148C06870470000880000202DE9F041F8
:1051A0002E4C0027206B28B1A069401CA061384616
:1051B000BDE8F081E668761CE66013D1606B00689C
:1051C00038B1502080F31188BFF34F8FBFF36F8F3A
:1051D000FEE7606BA16B6163A063206A401C2062E4
:1051E000FFF72EF9A06ADFF87880864209D3606B5A
:1051F0000068A0B1606BC068C5686868864211D25B
:10520000A0622068C06A00EB800158F821000128E4
:1052100000D90127E0690028C9D00127C7E74FF06E
:10522000FF30EDE7281DFFF745FAA86A18B105F130
:105230001800FFF73FFAE86A2169884200D9206127
:1052400000EB800108EB8100291DFFF783FAE86A73
:105250002168C96A8842CAD30127C8E788000020AC
:10526000E00F002070B504004FF0000133D01B4D5B
:105270002868844207D0502080F31188BFF34F8FF5
:10528000BFF36F8FFEE7206D38B1401E2065E36CE1
:10529000E26A9A421FD040B11DE0502080F311888D
:1052A000BFF34F8FBFF36F8FFEE7201DFFF702FAAA
:1052B000E06CE062C0F13800A061E06A29698842D0
:1052C00000D92861064900EB800001EB8000211D18
:1052D000FFF740FA0121084670BD00008800002059
:1052E000E00F002070B5C068C46854B104F1180024
:1052F0000646FFF7DFF9144D286B50B131461348CD
:1053000015E0502080F31188BFF34F8FBFF36F8FEC
:10531000FEE7201DFFF7CEF9E06A2969884200D92F
:1053200028610B4900EB800001EB8000211DFFF795
:1053300011FAE06A2968C96A884202D90120E86145
:1053400070BD002070BD000088000020681400209F
:10535000E00F00202DE9F0472C4D00242746286B54
:1053600038B1FFF703FA286B401E2863286B40B161
:1053700046E0502080F31188BFF34F8FBFF36F8F4B
:10538000FEE7A968224E0120D1B3A6F591698046B7
:105390003068E0B1F068C46804F11800FFF78AF9DA
:1053A000201DFFF787F9E06A2969884200D9286142
:1053B00000EB800109EB8100211DFFF7CBF9E06ACA
:1053C0002968C96A8842E3D3C5F81C80E0E70CB1BC
:1053D000FFF736F8AC694CB14FEA0806FFF7DEFE7E
:1053E00000B1EE61641EF9D10020A861E86938B10E
:1053F0000849012738070860BFF34F8FBFF36F8F4D
:10540000FFF7D4F93846BDE8F08700008800002097
:105410006814002004ED00E010B586B0FEF792FDA0
:10542000114C2068B8B100200390049005AA04A98B
:1054300003A8FFF75DF9DDE9032102208DE80700ED
:1054400000230AA10B48059AFFF769FE606010B1BE
:1054500006B0012010BD502080F31188BFF34F8F9C
:10546000BFF36F8FFEE70000C4000020546D722070
:10547000537663001D4500082DE9FF411E46134683
:1054800002000A9D4FF0000016D0144C2768002F30
:105490000FD0CDE900130292062917DAFFF76AFE52
:1054A00002284FF000030FD0002269462068FFF762
:1054B00023FC04B0BDE8F081502080F31188BFF3D5
:1054C0004F8FBFF36F8FFEE72A46EEE70023324689
:1054D00069463846FFF7C0FCEBE70000C400002037
:1054E0006C550008000000000000000000000000F3
:1054F0000000000000020000180000000000000092
:1055000000000000785500080000000000000000C6
:105510000000000000000000000200000800000081
:1055200000000000000000006455000800000000BA
:105530000000000000000000000000000002000069
:105540000800000000000000000000000000000053
:105550000000000001020304060708090000000023
:10556000010203044C45444F6666000064656661B1
:10557000756C745461736B004C45444F6E000000B1
:1055800040496E7465726E616C20466C6173682070
:1055900020202F307830383030303030302F3033DA
:1055A0002A3031364B612C30312A3031364B672C62
:1055B00030312A3036344B672C30372A3132384B71
:1055C000672C30342A3031364B672C30312A303654
:1055D000344B672C30372A3132384B6700000000DB
:1055E0000056000800000020700100009803000829
:1055F0009C56000870010020085C0000E23C000896
:10560000C11399291B08C9041AD5041AFD041331C2
:105610002A1B0879081AA504170403090412013289
:10562000021640830411DF260201020301031A1A45
:10563000031380551408C51F1B08B9041ABD041AAA
:10564000CD041AC9041AC104193B1182100379242C
:10565000F41AAA018113B52714086726140815281F
:105660001B08A9081AA504811A1114811A7D28693A
:10567000041A89041A95041409021B300801010256
:10568000C03209042009FE01020609210BFF14049F
:0C5690001A01130A0632022A40F400003E
:040000050800019559
:00000001FF
