:020000040800F2
:1000000090610020690200084327000801220008CF
:10001000412700081B0400081945000800000000E3
:10002000000000000000000000000000A90100081E
:10003000FB0600080000000005020008B32B0008C2
:10004000830200088302000883020008830200087C
:10005000830200088302000883020008830200086C
:10006000830200088302000883020008830200085C
:10007000830200088302000883020008830200084C
:1000800083020008830200088302000800000000C9
:1000900000000000000000000000000083020008D3
:1000A000830200088302000883020008830200081C
:1000B00083020008752C00088302000883020008F0
:1000C00083020008830200088302000883020008FC
:1000D0008302000883020008830200080000000079
:1000E0008302000883020008830200080000000069
:1000F0000000000000000000000000008302000873
:100100000000000083020008830200088302000848
:1001100000000000000000000000000000000000DF
:10012000830200088302000883020008830200089B
:100130008302000800000000000000000000000032
:10014000000000000000000000000000452700083B
:10015000830200088302000883020008830200086B
:100160008302000883020008000000000000000075
:10017000000000000000000000000000000000007F
:1001800000000000830200080000000000000000E2
:1001900083020008DFF80CD000F002F900480047A5
:1001A000E3460008906100202C4B19680868B0E80D
:1001B000F04F80F30988BFF36F8F4FF0000080F39A
:1001C000118870470000000008480068006880F34C
:1001D00008884FF0000080F3148862B661B6BFF360
:1001E0004F8FBFF36F8F00DF00BF00BF08ED00E04F
:1001F000DFF80C00016841F470010160704700BF36
:1002000088ED00E0EFF30980BFF36F8F134B1A689E
:100210001EF0100F08BF20ED108A20E9F04F10608B
:1002200009B44FF0500080F31188BFF34F8FBFF334
:100230006F8F05F055F94FF0000080F3118809BC6D
:1002400019680868B0E8F04F1EF0100F08BFB0EC56
:10025000108A80F30988BFF36F8F7047A4000020D5
:10026000EFF30580704700000648804706480047C6
:10027000FEE7FEE7FEE7FEE7FEE7FEE7FEE7FEE756
:10028000FEE7FEE7652C0008950100082DE9F05F08
:100290000546002092469B468846064681464024F5
:1002A0001BE0284641464746224600F069F853467F
:1002B0005A46C01A914110D311461846224600F002
:1002C00050F82D1A67EB01084F4622460120002105
:1002D00000F047F817EB00094E41201EA4F101047D
:1002E000DFDC484631462A464346BDE8F09F40EAF7
:1002F00001039B0703D009E008C9121F08C0042AA4
:10030000FAD203E011F8013B00F8013B521EF9D28A
:100310007047D2B201E000F8012B491EFBD27047B2
:100320000022F6E710B513460A4604461946FFF7C1
:10033000F0FF204610BD30B50B46014600202022BC
:10034000012409E021FA02F59D4205D303FA02F5E2
:10035000491B04FA02F52844151EA2F10102F1DC42
:1003600030BD202A04DB203A00FA02F10020704759
:100370009140C2F1200320FA03F3194390407047E3
:10038000202A04DB203A21FA02F00021704721FAEA
:1003900002F3D040C2F12002914008431946704751
:1003A000064C074D06E0E06840F0010394E80700C2
:1003B00098471034AC42F6D3FFF7F0FEF47A000809
:1003C000147B000870B58C1810F8015B15F007035A
:1003D00001D110F8013B2A1106D110F8012B03E0DE
:1003E00010F8016B01F8016B5B1EF9D12B0705D4E6
:1003F0000023521E0DD401F8013BFAE710F8013B2F
:10040000CB1A921C03E013F8015B01F8015B521E4A
:10041000F9D5A142D8D3002070BDFEE710B5D0F8C1
:10042000BC220446002A30D092F81834022B07D0A0
:10043000032B05D0052B03D0062B01D0092B13D19C
:10044000022082F81804002382F8103482F8113454
:1004500082F8123482F8133482F8140482F81534C6
:10046000C2F80034C2F804340848407DC00607D5FD
:10047000204603F098FB2046BDE8104003F03EBA4A
:100480004888BDE8104000F03BB910BD6401002071
:100490000A46D0F8BC1200292BD0D388002B91F843
:1004A000183410D0022B01D0052B10D15388C1F87D
:1004B0000034D2880323C1F8042481F8183481F869
:1004C000143402F0D2BC052B04D0022B02D011460A
:1004D00002F0C0BC012081F81904062281F818241A
:1004E000002081F8110481F8120481F8130481F8C6
:1004F0001424704770B50546D5E9AF40002C51D0A3
:1005000094F818240021032A02D0062A42D125E0BB
:10051000D4F8042402B3042284F8182484F81114B3
:1005200084F8121484F8131484F81424D4F80014F2
:1005300011B92178412908D0D4F80834866904F526
:10054000826201211846B04724E0D4F8083404F54B
:10055000826200218669F5E7052011E094F819040C
:10056000012801D038B115E0072084F818040122D1
:1005700084F8112408E00C48007D40070AD50220C9
:1005800084F8180484F8111484F8121484F81314ED
:1005900084F8140404F582612846BDE87040062200
:1005A00002F07DBC70BD00006401002010B5D0F8E1
:1005B000BC12002911D0164B002281F819241B7D92
:1005C0005B070BD5062081F8180481F8112481F807
:1005D000122481F8132481F8140410BD082381F833
:1005E000183481F8112481F8122481F8132481F839
:1005F000143403F0D8FABFF34F8F06480168064A57
:1006000001F4E06111430160BFF34F8F00BFFDE7CC
:10061000640100200CED00E00400FA0570B5054609
:100620000B46D5E9AF46002C66D0D988002099B397
:1006300094F81814022906D0092904D0C4F8040437
:10064000C4F8000447E05988C4F80014DA88C4F8F4
:100650000424E9B1012933D9092384F8183484F832
:10066000110484F8120484F8130484F81434880202
:10067000D4F80814A0F5006008447369214698472F
:10068000D4F8042401462846BDE8704002F007BCB7
:10069000032A02D9022101E023E0092184F8181479
:1006A00084F8110484F8120484F8130484F81414F0
:1006B0002070212060704120A07003222146E2E7D3
:1006C0000F2184F8181484F8110484F8120484F8B3
:1006D000130484F814142846BDE87040194602F04B
:1006E000B9BB022184F8181484F8110484F81204A8
:1006F00084F8130484F8141470BD704772B6FEE7D2
:1007000070B5044600F00AF90546601C02D00448A2
:100710000078044400F002F9401BA042FAD370BDF7
:10072000940000202DE9F84FDFF8B4A10022012445
:100730000AF1040B03254FF00F090BF1040E00BF63
:100740000B6804FA02F63340B34272D10F7907F016
:100750000307012F01D0022F16D187684FEA420804
:1007600005FA08FC27EA0C07D1F80CC00CFA08FCC3
:100770004CEA070CC0F808C04768B7430E79C6F3C7
:10078000001696403E4346600E79F643B6070DD0FC
:10079000C768560005FA06FC27EA0C07D1F808C01E
:1007A0000CFA06FC4CEA070CC0F80CC00E7906F0F7
:1007B0000306022E10D1D60800EB8608D8F8206078
:1007C00057074FEAD76C09FA0CF7BE430F6907FACF
:1007D0000CF73743C8F8207006684FEA420C05FA58
:1007E0000CF7BE430F7907F0030707FA0CF73743FE
:1007F00007604E68F6006DD53A4E376847F480477B
:100800003760366822F0030706F480460096364EBD
:1008100007EB060CDCF8086897073F0F09FA07F8A2
:1008200026EA0806DFF8C480404503D14FF00008EF
:100830001EE04FE0DFF8B880404502D14FF00108DC
:1008400016E0DFF8B080404502D14FF002080FE01B
:10085000DFF8A480404502D14FF0030808E0DFF83C
:100860009C80404502D14FF0040801E04FF007089A
:1008700008FA07F848EA0608CCF80888DAF80060B1
:100880005746D1F804C09E435FEACC3C00D51E43D6
:100890003E60DBF800605F46D1F804C09E435FEA2B
:1008A0008C3C00D51E433E60DEF800607746D1F8F0
:1008B00004C09E435FEACC2C00D51E433E60084F27
:1008C0000C373E68D1F804C09E435FEA8C2C00D5FB
:1008D0001E433E60521C102AFFF432AFBDE8F88F71
:1008E000003C01404438024000300140000002401A
:1008F0000004024000080240000C024000100240C8
:10090000426921EA02030A4043EA024181617047D9
:100910000AB1816170470904FBE700000148806863
:10092000704700009400002070B5040025D094F8B2
:100930003D00002520B984F83C50204600F004FA20
:10094000242084F83D002068016821F00101016045
:100950002068016841F4004101602068016821F4C9
:100960000041016001F024F84D4A6168914201D8CC
:100970004C4900E04C49884201D2012070BD4B49EE
:100980002368B0FBF1F15E6826F03F060E435E601F
:100990006368934206D94FF4967359434FF47A73C0
:1009A000B1FBF3F12368491C1E6A26F03F06314370
:1009B00019626168914210D84900401EB0FBF1F203
:1009C000521CC2F30B02042A01D2042022E0B0FB25
:1009D000F1F0401CC0F30B001CE0A268F2B301EB85
:1009E000C10303EB0116431EB3FBF6F35B1C43F498
:1009F00080431B0549D092B301EBC10202EB011108
:100A0000401EB0FBF1F0401CC0F30B0040F48040EE
:100A100040F400402168CA694CF6FF739A431043C2
:100A2000C861D4E9071001432068026822F0C002BF
:100A300011430160D4E9030101432068826848F250
:100A4000FF339A4311438160D4E9050108432168CB
:100A5000CA6822F0FF021043C86001E00EE016E011
:100A60002068016841F0010101602564202084F8BC
:100A70003D00256384F83E50002070BD01EB410627
:100A8000431EB3FBF6F35B1CB3E70120C2E701EBA7
:100A90004101401EB0FBF1F0401CC0F30B00B7E772
:100AA000A086010080841E0000093D0040420F0026
:100AB0002DE9FF4F81B089460446FFF72FFF054619
:100AC00094F83D004FF0010820287DD11923012220
:100AD00050492046009501F01FFC002874D194F87D
:100AE0003C00012870D0012084F83C002068016897
:100AF000C90703D1016841F0010101602068016864
:100B000021F400610160242084F83D000026266461
:100B10004148E0624FF0011B20272068016841F442
:100B2000807101600095002259462046049B01F027
:100B3000F3FB50B120680068C00502D54FF4007087
:100B40002064032005B0BDE8F08F216809F0FE00A5
:100B50000861FFF7E3FE2168054648694969C0F36B
:100B60004000C1F380214FF0A00A0FE0FFF7D6FE4E
:100B7000411B0498814200D808B984F83DA021683F
:100B800048694969C0F34000C1F3802194F83D20D1
:100B9000A02A02D008B90029E8D084F83D70206866
:100BA0004169C943890716D4016841F400710160A5
:100BB0002068416980691923012216492046009561
:100BC00001F0AAFBB8B900E021E084F83D7084F898
:100BD0003C600020B6E7016841F4007101602168C3
:100BE0006FF480604861192301220A49204600956C
:100BF00001F092FB08B10120A4E7039808F1010875
:100C000080458AD384F83D7084F83C60F3E7022085
:100C100098E70000020010000000FFFF2DE9F84FE8
:100C20001F4690468A460446DDF82890FFF776FE78
:100C3000054694F83D0020287FD119230122404920
:100C40002046009501F068FB002876D194F83C001E
:100C5000012872D0012084F83C0020680168C9078F
:100C600003D1016841F0010101602068016821F4AD
:100C700000610160212084F83D00102084F83E00CE
:100C800000262664C4F824806785608D20852D4861
:100C9000E0622B464A465146204601F0C9FA90B917
:100CA000206841698069009036E02A46494620461E
:100CB00001F0B1FB50B1206C042804D12068016818
:100CC00041F4007101600120BDE8F88F606A21687D
:100CD00000780861606A401C6062618D491E618510
:100CE000218D491E89B2218522685369DB435B0748
:100CF0000BD451B100781061606A401C6062608D55
:100D0000401E6085208D401E20852A46494620468B
:100D100001F0DCFA0028CED1208D0028C5D154F88E
:100D20003D0B016841F400710160202004F81E09A8
:100D3000E67766770020C7E7FFE70220C4E70000F8
:100D4000020010000000FFFF10B586B00446142119
:100D50006846FFF7E5FA13492068884220D1124817
:100D6000016841F0020101600068694600F002007C
:100D70000590C020009012200190012002900320D5
:100D80000390042004900948FFF7CCFC064810307B
:100D9000016841F400110160006800F40010059042
:100DA00006B010BD0054004030380240000402403C
:100DB00002488168027811448160704794000020E5
:100DC0000B4810B5016841F400710160016841F4FD
:100DD00080610160016841F480710160032000F0CE
:100DE0008DF8002000F006F800F03EF8002010BD5D
:100DF000003C024010B5014688B000221D2000F0E2
:100E00005DF81D2000F04CF813480024016841F003
:100E100002010160006805A900F002000690684622
:100E200000F0A0FD00F0C4FD0C490D4AB0FBF1F14B
:100E30000C48491E026040F2E732C0E90324C0E9D1
:100E4000011401F051F810B1012008B010BD05489F
:100E500001F078F8F9E700004038024040420F0006
:100E600000040040740F00200C4882B0016841F477
:100E700080410160006800F4804000900748001F36
:100E8000016841F0805101600068002200F080504C
:100E900000900F21901E02B000F010B844380240BC
:100EA000002809DB00F01F02012191404009800069
:100EB00000F1E020C0F8001170470000F0B40E4BC4
:100EC0001B680C46C3F30223C3F10705042D00D9A8
:100ED0000425191D072901D2002300E0DB1E01268D
:100EE00006FA05F1491E214099409E40761E1640A3
:100EF0003143F0BC03F026BB0CED00E0064900F0E6
:100F0000070208684FF6FF03184040EA0220034A30
:100F100010430860704700000CED00E00000FA0587
:100F200070470068416200207047F0B50368586A56
:100F300039B19C6A4FF4827600EB144400204D1EB8
:100F40000AE040EA024098620FE006EB8007DF59B2
:100F5000401C04EB1744C0B2A842F6D344EA024056
:100F60004FF4807202EB810158500020F0BDD0F8A0
:100F7000040402F0FFBAC1EBC10200EB8202D0F818
:100F80000404926C02F06CBAC1EBC10200EB820265
:100F9000D0F80404D2F8082202F0B6BAD0F804045B
:100FA00002F0EABA70B5044601F00F0062689042A0
:100FB00001D9012070BD0B0601F00F01C1EBC10189
:100FC00004EB81014FF001024FF0000503D581F8D9
:100FD0003D203C3103E081F8FD5101F5FE718D703B
:100FE000087094F8BC03012808D084F8BC2320685A
:100FF00003F024F884F8BC53002070BD022070BDBB
:101000002DE9F04104460F0601F00F00C0EBC001CE
:1010100004EB81014FF001064FF0000503D581F884
:101020003D603C3103E081F8FD5101F5FE7108702F
:101030008A60CB704A7802B1C880022B00D10D7152
:1010400094F8BC03012809D084F8BC63206802F03E
:10105000BDFD284684F8BC53BDE8F0810220FBE7C3
:1010600070B50C4601F00F05C5EBC50100EB810121
:10107000C1F81032C1F808220023C1F8143281F8F7
:10108000FD3181F8FC51036901F5FE71012B00D19E
:101090000A612207027C006803D003F027F80020D1
:1010A00070BD02F013FFFAE770B504460D4601F07B
:1010B0000F006168884201D9012070BD29064FF0F8
:1010C00000064FF0010207D5C0EBC00104EB81011F
:1010D00081F83D203C3107E0C5EBC50104EB8101FF
:1010E00081F8FD6101F5FE718A70087094F8BC0307
:1010F000012807D084F8BC23206802F0CBFF280722
:1011000002D007E0022070BD217C04F571722068D6
:1011100002F068FF84F8BC63002070BD70B50C4617
:1011200001F00F05C5EBC50100EB81010B658A6479
:1011300000234B65012381F83D3001F83C5F0369D2
:10114000012B00D10A612207027C006803D002F063
:10115000CDFF002070BD02F0B9FEFAE72DE9FC5F7B
:1011600005680446284603F0EAF800287ED1206886
:1011700003F011F9002879D0206803F00CF98007FA
:1011800004D52168486900F002004861206803F036
:1011900002F9C10604F57170009034D520688169A8
:1011A00021F0100181612F6A07F00F00C0EBC00031
:1011B00004EB8006C7F3434006F5FE76022802D012
:1011C000062811D01AE047F6F070074216D0C7F390
:1011D0000A1217462846F16803F0E1F8F06838442F
:1011E000F060B069384408E008222846009903F00E
:1011F000D6F8B069C7F30A110844B0612068816964
:1012000041F010018161206803F0C5F800034FF040
:10121000010A4FF0080B5BD50026206803F09AF80E
:101220000746DFF8689351E0F8074DD0F1B2206827
:1012300003F0A9F88046C00707D005EB4611C1F8B6
:1012400008AB3146204601F083FA5FEA087022D5E8
:1012500005EB4611C1F808BB2068016C00EB461095
:101260000191D0F8082B494507D900E08BE1110422
:1012700003D54FF40041C0F8081B204600F073FA74
:101280000198484507D92069012804D12068012127
:10129000009A02F0A7FE5FEAC86004D505EB46118C
:1012A0001020C1F8080B5FEA886004D505EB4611F1
:1012B0002020C1F8080B5FEA884005D505EB4610F1
:1012C0004FF40051C0F8081B7F08761C002FABD1EB
:1012D000206803F060F840034FF000095CD52068F7
:1012E00003F031F80746002654E0F80750D0F1B279
:1012F000206803F036F88046C00723D006F00F02BE
:101300000AFA02F0D5F834288243C5F8342805EBF0
:101310004610C0F808A9206901280FD1C6EBC60005
:1013200004EB8000D0E911211144816436B9206DAD
:1013300020B920680121009A02F054FEF1B2204643
:10134000FFF719FE5FEA087003D505EB4611C1F8F7
:1013500008B95FEAC86004D505EB46111020C1F852
:1013600008095FEA486004D505EB46114020C1F842
:1013700008095FEA887004D505EB46110220C1F820
:1013800008095FEA086003D53146204601F046FAB5
:101390007F08761C002FA8D1206802F0FCFF0028EF
:1013A00011DAD5F8040820F00100C5F8040894F813
:1013B000F403012829D0204600F0B9F920684169DA
:1013C00001F000414161206802F0E5FF00050BD506
:1013D000D5F80808C00702D0204600F011FA2068AE
:1013E000416901F400614161206802F0D4FFC0044A
:1013F00068D5D5F8040820F00100C5F804081021CC
:10140000206802F07DFF002127E084F8F49300219A
:101410002046FFF785FDD1E705EB41104FF67F32FF
:10142000C0F80829D0F8003923F40013C0F80039B7
:10143000D0F8003943F00063C0F80039C0F8082B39
:10144000D0F8002B22F40012C0F8002BD0F8002BAB
:1014500042F00062C0F8002B491C60688842DBD86B
:10146000D5F81C0840F00110C5F81C08206B60B1CD
:10147000D5F8840840F00B00C5F88408D5F8440876
:1014800040F00B00C5F844080CE0D5F8141842F2FF
:101490002B000143C5F81418D5F8100840F00B00D4
:1014A000C5F81008D5F8000820F4FE60C5F800085B
:1014B000217C2068009A02F095FD2068416901F4C2
:1014C00080514161206802F066FF800415D52068D4
:1014D00002F0BCFB206802F025FFE06000F062FA39
:1014E0000146227B206802F091FF204600F00CF9B3
:1014F0002068416901F400514161206802F04BFF0E
:10150000000707D5204600F016F92068416901F070
:1015100008014161206802F03EFFC00208D50021A9
:10152000204600F035F82068416901F480114161DE
:10153000206802F030FF800208D50021204600F02C
:101540002BF82068416901F400114161206802F024
:1015500022FF400007D52046FFF709FD20684169BA
:1015600001F080414161206802F015FF40070AD573
:1015700020684568680702D52046FFF70FFD206800
:10158000416829434160BDE8FC9F00000A30544F88
:10159000D0F8040402F03CB8D0F8040402F048B8D3
:1015A0002DE9F0418AB0040005D094F8BD03266807
:1015B000002520B108E001200AB0BDE8F08184F8E0
:1015C000BC53204600F05EF8032084F8BD03F06BA6
:1015D000C00500D42561206802F072FC04F11001FE
:1015E000282288466846FEF782FE94E80F0002F043
:1015F0003BFB0226C8BB0021206802F0DEFE002073
:1016000001270EE0C0EBC00104EB810181F83D70C1
:1016100001F83C0FC880CD708D60CD60401CC0B219
:101620004D6161688142EDD8002011E0C0EBC0013E
:1016300004EB810181F8FD5181F8FC0181F8FF5133
:10164000C1F80452C1F80852401CC0B2C1F810528F
:1016500061688142EAD8282241466846FEF747FE83
:1016600094E80F0002F072FB10B184F8BD63A2E7AA
:1016700084F8385084F8BD73206802F059FB0020CC
:101680009AE7000010B586B0044614216846FEF7BC
:1016900047FE2068B0F1A04F2FD119480021026801
:1016A00042F001020260006800F0010005904FF472
:1016B000C05000900220CDE90101032003900A20D0
:1016C000049069460F48FFF72DF80D48001D01688A
:1016D00041F0800101600A481430016841F4804102
:1016E00001600068002200F480400590052143203D
:1016F000FFF7E4FB4320FFF7D3FB06B010BD00006B
:10170000303802400000024070B50446C068012530
:10171000022801D0FEF7F2FF2946D4F8040401F0B4
:10172000F3FFD4F80404BDE8704001F0A6BFD0F880
:10173000040401F0CFBFD0F8040401F0D5BF10B508
:10174000044690F8BC0301280BD0012084F8BC03A8
:1017500084F83810206802F047FE002084F8BC03AB
:1017600010BD022010BDD0F8042400F571711046A0
:1017700001F0D6BF10B50446006894F8BC130129E7
:1017800006D0012184F8BC13A16A012902D008E027
:10179000022010BDA169012903D0816B41F4803181
:1017A0008163206802F096FD206802F0B3FA002001
:1017B00084F8BC0310BD70B50446006894F8BC13EF
:1017C000054601290FD0012184F8BC1302F078FBF3
:1017D000206802F0ADFA1021206802F091FDA06AA5
:1017E000012802D008E0022070BDA069012803D0C2
:1017F000A86B20F48030A863002084F8BC0370BD7F
:1018000010B50446D0F8040401F0D5FF2068D0F8E4
:10181000001E41F00101C0F8001E206A002804D01B
:101820000248016841F00601016010BD10ED00E0C2
:101830002DE9F0470E46050065D0DFF81481D8F891
:101840000000F7B200F00700B04207D288F800703D
:10185000D8F8000000F00700B04254D128683D4C91
:10186000810712D5400703D5206840F4E05020607E
:101870002878000703D5206840F460402060206885
:10188000A96820F0F000084320602878C0072DD018
:10189000304968680839012812D0022813D003287B
:1018A00011D00968890700292DDA216821F0030188
:1018B00001432160FFF732F8814641F2883A0EE099
:1018C00009688903EFE709688901ECE7FFF726F863
:1018D000A0EB0901514502D90320BDE8F08720683B
:1018E000696800F00C00B0EB810FEFD1D8F8001060
:1018F000404601F00701B14207D90770006800F0C7
:101900000700B04201D00120E7E72878400705D55D
:101910002068E96820F4E050084320602878000738
:1019200006D52068296920F4604040EAC1002060A3
:1019300000F05EF82168084AC1F30311515CC84009
:101940000649086006480068FFF754FA0020C4E71B
:10195000003C024008380240607A0008A0000020E5
:10196000980000200F2202600C4A136803F0030362
:101970004360136803F0F0038360136803F4E053DB
:10198000C36012684FF4E05303EAD20202610448D4
:10199000006800F007000860704700000838024047
:1019A000003C02400148006870470000A000002091
:1019B0000448054900680968044AC1F38221515C62
:1019C000C8407047A000002008380240707A000824
:1019D0000448054900680968044AC1F34231515C72
:1019E000C8407047A000002008380240707A000804
:1019F000154810B5006810F00C02144813D01449B3
:101A0000042A0FD0082A0ED10F4C241F2268236805
:101A100002F03F025B0207D52068C0F38810A0FBEC
:101A2000010106E0084610BD2168C1F38811A1FB41
:101A300000010023FEF72AFC2168C1F30141491C83
:101A40004900B0FBF1F010BD083802400024F4005A
:101A500040787D012DE9F84F04006ED02078DFF842
:101A60004C93C007A9F104054AD009F104000168AC
:101A7000C1F38101012908D00068C0F38100022868
:101A80000AD1D9F80000400206D52868800337D56E
:101A900060680028E1D033E06068B0F5803F10D086
:101AA000B0F5A02F286810D020F480302860286876
:101AB00020F4802028606068A8B1FEF72FFF06465A
:101AC0000DE0286840F48030F4E740F4802028607E
:101AD000F7E700BFFEF722FF801B642873D8286851
:101AE0008003F7D50CE0FEF719FF064605E000BFBE
:101AF000FEF714FF801B6428F0D828688003F7D411
:101B00002078DFF8AC8280074FF0000A3ED5A74866
:101B1000001D016811F00C0F08D00068C0F38100AF
:101B200002280BD1D9F80000400207D428688007AA
:101B300016D5E068012800D112E033E1E068B8B1C1
:101B40000120C8F80000FEF7E9FE064605E000BFE8
:101B5000FEF7E4FE801B0228C0D828688007F7D56E
:101B60002868216920F0F80040EAC10028600DE0F3
:101B7000C8F800A0FEF7D2FE064604E0FEF7CEFE4F
:101B8000801B02281FD828688007F7D42078000718
:101B900022D5864F87486169703771B10121016094
:101BA000FEF7BCFE064604E0FEF7B8FE801B0228E6
:101BB00009D838688007F7D50EE0C0F800A0FEF716
:101BC000ADFE064605E082E0FEF7A8FE801B022877
:101BD0007DD838688007F7D42078400768D5DFF8CB
:101BE000CCB100270BF13C0BDBF80000C0000BD49C
:101BF000DBF8001041F08051CBF80010DBF800005A
:101C0000012700F0805000906B4E3068C00510D462
:101C1000306840F480703060FEF780FE009005E090
:101C2000FEF77CFE0099401A022850D83068C005A3
:101C3000F6D55E4EA0686C3601280FD005283068B6
:101C400010D020F001003060306820F004003060D7
:101C5000A068B8B1FEF762FE00900FE0306840F077
:101C60000100F4E740F004003060F7E7FEF756FEAD
:101C70000099411A41F28830814266D83068800765
:101C8000F4D50EE0FEF74AFE009007E0FEF746FEB0
:101C90000099411A41F28830814256D83068800755
:101CA000F4D42FB1DBF8001021F08051CBF80010F4
:101CB000A069C8B33D49091D0968C1F38101022922
:101CC0004AD00228504607D0C8F8600000E03CE047
:101CD000FEF724FE04463BE04746C8F86000FEF7E6
:101CE0001DFE064605E000BFFEF718FE801B022819
:101CF0002BD828688001F7D4D4E907010843A16AEA
:101D00002E4A490802EB0141626A41EA8211084306
:101D100094F82C1040EA0161C9F8001001203866DF
:101D2000FEF7FCFD044606E03EE000BFFEF7F6FDD0
:101D3000001B022809D828688001F7D534E000BFCD
:101D4000FEF7ECFD001B022802D90320BDE8F88F46
:101D500028688001F4D427E00128F7D0D9F80000E2
:101D6000E26900F4800191421CD1226A00F03F0137
:101D7000914217D147F6C071626A0140B1EB821FF0
:101D800010D1A26A4FF0FF3300F4403103EB52024E
:101D9000B1EB024F06D194F82C1000F07060B0EB5C
:101DA000016F01D00120D1E70020CFE704380240C5
:101DB00000004742800E4742007000400000FFFFD5
:101DC00070B5040009D0606A002540B125616561E5
:101DD000A56294F8510040B10CE0012070BD60682C
:101DE000B0F5827FF4D0E561F2E784F850502046E8
:101DF00000F044F8022084F851002068016821F0C6
:101E000040010160A088218900F4827001F404413E
:101E10000843A18901F400610843217C01F002011B
:101E20000843217D01F001010843218B01F4007179
:101E30000843217F01F03801084394F8201001F095
:101E400080010843218D01F4005108432168086096
:101E5000A069042101EA104094F8241001F0100157
:101E60000843216848602068C16921F40061C161AC
:101E70006565012084F85100002070BD10B586B062
:101E8000044614216846FEF74BFA1349206888423D
:101E900020D112480021026842F48052026000689A
:101EA00000F4805005900D481438026842F0010299
:101EB0000260006800F001000590F0200090022010
:101EC000CDE90101032003900520049069460448F0
:101ED000FEF728FC06B010BD003001404438024037
:101EE000000002407047704710B5040003D094F81A
:101EF0003D0010B107E0012010BD002084F83C0037
:101F0000204600F01EF8022084F83D00211D2068C4
:101F100000F0B6FE012084F8460084F83E0084F804
:101F20003F0084F8400084F8410084F8420084F8BF
:101F3000430084F8440084F8450084F83D00002004
:101F400010BD704790F83D10012901D00120704765
:101F5000022180F83D100168CA6842F00102CA609F
:101F600000680E4988420ED0B0F1804F0BD00C496A
:101F7000884208D00B49884205D00B49884202D0DC
:101F80000A49884204D1816801F00701062903D07B
:101F9000016841F00101016000207047000001402C
:101FA0000004004000080040000C004000400140D8
:101FB000704770B50446006801694FF00005C943D9
:101FC000890715D4C168C943890711D4E91E016185
:101FD00001202077206880698007204602D0FFF723
:101FE000E7FF04E000F098F8204600F096F8257727
:101FF00020680169C943490717D4C168C943490723
:1020000013D46FF0040101610220207720688069F9
:1020100010F4407F204602D0FFF7CAFF04E000F032
:102020007BF8204600F079F8257720680169C943DC
:10203000090716D4C168C943090712D46FF0080113
:102040000161042020772068C0698007204602D003
:10205000FFF7AEFF04E000F05FF8204600F05DF807
:10206000257720680169C943C90617D4C168C943E7
:10207000C90613D46FF01001016108202077206891
:10208000C06910F4407F204602D0FFF791FF04E0C2
:1020900000F042F8204600F040F8257720680169FA
:1020A000C943C90708D1C168C943C90704D1891EFA
:1020B0000161204600F032F820680169C943090631
:1020C00009D4C168C943090605D46FF080010161D4
:1020D0002046FFF707FF20680169C943490609D474
:1020E000C168C943490605D46FF04001016120462B
:1020F00000F01EF820680169C94389060BD4C16845
:10210000C943890607D46FF0200101612046BDE86C
:102110007040FFF7E8BE70BD704770470068034924
:10212000884201D1FEF744BE704700000004004021
:10213000704770B5040004D094F83D00002510B13C
:1021400006E0012070BD84F83C50204600F022F8E3
:10215000242084F83D002068C16821F40051C1604A
:10216000204600F0D9FD2068016921F49041016109
:102170002068416921F02A0141612068C16841F469
:102180000051C1602564202084F83D0084F83E00A1
:10219000002070BD10B586B0044614216846FEF7D5
:1021A000BFF814492068884221D1134800210268F1
:1021B00042F010020260006800F0100005900E4826
:1021C0001438026842F001020260006800F0010069
:1021D00005904FF4C06000900220CDE9010103207A
:1021E00003900720049069460448FEF79BFA06B066
:1021F00010BD0000001001404438024000000240C1
:10220000FEE701684A69D24352050FD46FF4806239
:102210004A61002140F8301F202242738173026915
:1022200042F00402026101730120704700207047F0
:10223000F8B50446C06A1E460D461746082807D062
:10224000012805D010F5803F02D0206B122804D160
:102250002068016841F480710160134600224FF04C
:1022600001112046009600F057F840B12068006840
:10227000C00502D54FF4007020640320F8BD20692A
:10228000B0F5804F0ED00620216800EAD51040F04E
:10229000F000086133463A460B49204600F070F8DA
:1022A00078B902E005F0FE0000E0E8B221680861BC
:1022B000054933463A46891F204600F061F8002858
:1022C000DCD00120F8BD00000800010070B5164602
:1022D0000D4604460DE02046FFF793FF08B10120AC
:1022E00070BD681C05D0FEF719FB801BA84207D8FB
:1022F00035B120684069C0434007ECD4002070BD70
:10230000002044F8300F20216173A073216941F04F
:10231000200121612073E2E72DE9F0471E46904637
:102320000D460446C1F30747DDF8209008E0701C15
:1023300006D0FEF7F3FAA0EB0900B0420FD876B151
:102340002068012F18D0806925EA00000004000CE5
:1023500014D000214145EAD00020BDE8F0870020DC
:1023600044F8300F20216173A073216941F02001EE
:10237000216120730120F0E74069E5E70121E9E7E9
:102380002DE9F0479A4691460E46044600254FF047
:102390002008C1F3074725E020684069C043400595
:1023A00014D42068016841F40071016021686FF461
:1023B00080604861256384F83D8084F83E50206C3D
:1023C00040F00400206484F83C501FE0B9F1FF3F66
:1023D00008D0FEF7A3FAA0EB0A0149450CD8B9F1E1
:1023E000000F09D02068012F13D0806926EA000071
:1023F0000004000C0BD0CFE744F8305F84F80D8068
:10240000A573206940F02000206125730120BDE8FC
:10241000F0874069EAE770B516460D4604460DE0C0
:102420002046FFF7EEFE08B1012070BD681C05D004
:10243000FEF774FA801BA84207D835B120684069BE
:10244000C0430006ECD4002070BD002044F8300FDB
:1024500020216173A073216941F020012161207363
:10246000E2E70000F0B500230A24302537261F4696
:1024700011E000BFB4EB107F02D905EB107C01E046
:1024800006EB107C01F813C001EB430C00015B1C50
:102490008CF80170DBB29342ECD3F0BD1CB5154C47
:1024A000154E4FF400754FF47A770A21012000F0A1
:1024B00033FA0122114912A000F038FB1E2101203D
:1024C00000F02AFA228815A1684602F027F80122B6
:1024D0001349684600F02AFB00F03CFB29463046D1
:1024E000FEF70EFA2088401C2080384602F00EF9D4
:1024F000DBE7000000000020000402407C00002018
:10250000546865205265616C204163746976697412
:102510007920547261636B657200000025640000CD
:1025200084000020064D4FF480744FF496762146C7
:102530002846FEF7E5F9304602F0E8F8F7E7000034
:1025400000040240002070470020704700207047C0
:1025500000207047002070470020704710B50B4ADC
:1025600000210B4802F00EF90A4C084A0021606075
:102570002432094802F006F9044AA06048320021DA
:10258000064802F0FFF8E06010BD00003C5F000864
:10259000A72B000800000020252500089D24000826
:1025A00070B586B014216846FDF7BAFE1E480024B7
:1025B000016841F004010160016801F00401059126
:1025C000016841F080010160016801F0800105911E
:1025D000016841F001010160016801F0010105910C
:1025E000016841F0020101600068104E00F0020035
:1025F00040F202350590002229463046FEF788F960
:1026000001200095CDE90104694630460394FEF7A8
:1026100089F80420CDE90004694630460294FEF7AB
:1026200081F806B070BD000030380240000402405E
:102630000D4810B50B4901600C49416000214FF471
:1026400080428160C0E9031241618161C161016220
:10265000FEF76AF9002803D0BDE81040FEF74EB837
:1026600010BD0000005400408C010020801A0600BC
:102670000F4810B50D4901604FF48271416000218F
:102680008160C1604FF480220161C0E90512C1611F
:102690000162416281620A21C162FFF791FB002859
:1026A00003D0BDE81040FEF729B810BD003001404E
:1026B000E00100200C4810B50A4901604FF4E131F7
:1026C0004160002181600C22C160C0E90412816177
:1026D000C161FFF72EFD002803D0BDE81040FEF7D2
:1026E0000DB810BD001001403802002010B50022C6
:1026F0000F49104800F098FE08B1FDF7FFFF0E49A2
:102700000C4801F080F808B1FDF7F8FF0B490948C3
:1027100000F0ABFC08B1FDF7F1FF064801F0EEF860
:10272000002803D0BDE81040FDF7E8BF10BD000051
:10273000100000207C020020280100206000002002
:10274000FEE7FEE70148FEF709BD00006C09002026
:102750002DE9F04103680D4604461E6C03EB45115C
:10276000D1F8080BD4F810E04FF400474FF0200CDC
:1027700004F57172BEF1010F09D0DFF898E07645DB
:1027800039D1020432D500BFC1F8087B3FE0224BAB
:102790005FEA007E04D59E4239D90004F4D436E0C5
:1027A0005FEA806E02D5C1F808CB30E010F0280F48
:1027B0002DD19E4201D90004E6D4C5EBC50004EB3F
:1027C0008000D1F8101BD0F80432C1F31201591A5D
:1027D000C0F81412D0F808121944C0F8081295B9BC
:1027E000D4F8100278B9012120680AE080060AD5E1
:1027F000C1F808CB07E035B9D4F8100218B90021A8
:10280000184601F0EFFBE9B22046FEF7BDFB0020C1
:10281000BDE8F0810A31544F0A30544F2DE9F84F8A
:102820000E46C1EBC60100EB810481460568D4E980
:1028300014103C34884202D90120BDE8F88F081AF0
:10284000A168814200D20846C01C870805EB4618E3
:102850001BE000BFA0EB010AA068504500D28246F1
:102860000AF10300870899F8100000901FFA8AF314
:10287000F2B22846E16801F03DFEE16801EB0A0092
:10288000E060A16901EB0A00A061D8F8180980B2E4
:10289000B84205D3D4E90501814201D20028D9D13B
:1028A000D4E90501884208D806F00F0101208840CC
:1028B000D5F834188143C5F834180020BDE700006E
:1028C00070B5802813D2402911D20B4B012401F09E
:1028D00007051E79AC40094BC90800EBC1100EB1C9
:1028E00032B101E0012A03D0195CA143195470BD33
:1028F000195C2143FAE700008C000020BC0F002087
:1029000028B1FF224FF480610248FDF702BD00228A
:10291000F8E70000BC0F0020014A1080518070478A
:102920008C00002010B502F0C1FB44F620630122A8
:1029300078215448FEF7BCF808B1002010BD40F6DD
:10294000C210401EFDD1AE220021782002F0B4FB5F
:1029500020220021782002F0AFFB102200217820F5
:1029600002F0AAFBB0220021782002F0A5FBC822C9
:102970000021782002F0A0FB00221146782002F00E
:102980009BFB10220021782002F096FB40220021C0
:10299000782002F091FB81220021782002F08CFB4C
:1029A000FF220021782002F087FBA122002178205D
:1029B00002F082FBA6220021782002F07DFBA822F3
:1029C0000021782002F078FB3F220021782002F0DD
:1029D00073FBA4220021782002F06EFBD322002199
:1029E000782002F069FB00221146782002F064FB97
:1029F000D5220021782002F05FFBF0220021782010
:102A000002F05AFBD9220021782002F055FB222245
:102A10000021782002F050FBDA220021782002F019
:102A20004BFB12220021782002F046FBDB22002122
:102A3000782002F041FB20220021782002F03CFBAC
:102A40008D220021782002F037FB1422002178200B
:102A500002F032FBAF220021782002F02DFB2E2263
:102A60000021782002F028FB0020FFF749FF00F04A
:102A700071F805480021018041800121417108461B
:102A800010BD00008C0100208C0000202DE9F047D3
:102A9000814625480D46924601882A7811448029AE
:102AA00005D28046408869780844402802D3002037
:102AB000BDE8F08700262AE0A9F1200111FB0060A3
:102AC0006A68002432F810701DE000BF07FA04F0B5
:102AD000000409D5B8F80210B8F8000031442044C9
:102AE00089B280B252460BE0BAF1000F1AD0002230
:102AF000B8F80210B8F800003144204489B280B21E
:102B0000FFF7DEFE641C2878A042DFD8761C6878C8
:102B1000B042D1D8B8F800102A7848461144A8F835
:102B20000010C5E70122E3E78C00002070B51546D0
:102B30000E46044609E02A463146FFF7A7FF2178F2
:102B4000884201D0C8B270BD641C20780028F2D140
:102B5000C0B270BD70B5104D002400BF04F1B000CC
:102B6000C2B20021782002F0A7FA00221146782094
:102B700002F0A2FA10220021782002F09DFA05EB63
:102B8000C41280234021782002F0A6FA641CE4B22B
:102B9000082CE3D370BD0000BC0F00200178407802
:102BA00041EA00207047FFF7A1FD012001F0AEFDD2
:102BB000FBE710B54FF0E020006903F009F80128A9
:102BC00003D0BDE8104002F037BD10BD30B593B062
:102BD00030216846FDF7A4FB14210CA8FDF7A0FBEB
:102BE0001E480024016841F080510160006800F037
:102BF000805011901A48016821F4404141F400418D
:102C00000160006806AA00F4404011900320009083
:102C10004FF4803001900120039010200490022096
:102C200041050F2582E823009021CDE909100520F8
:102C30000B906846FEF70EFF08B172B6FEE7CDE9CD
:102C40000C540E940F9400210CA81094FEF7F0FD84
:102C5000002801D072B6FEE713B030BD4038024004
:102C6000007000400248016841F470010160704743
:102C700088ED00E00148FFF79CB90000740F0020C8
:102C8000F0B502681D4B1E4C9F031E4D1E4E984210
:102C900007D0B84205D0A04203D0A84201D0B0422C
:102CA00004D122F0700C4A6842EA0C02984210D01B
:102CB000B8420ED0A0420CD0A8420AD0B04208D0F0
:102CC000124CA04205D0124CA04202D0114CA0429E
:102CD00003D122F44074CA6822434C6922F0800276
:102CE000224302608A68C2620A688262984201D105
:102CF0000969016301214161F0BD0000000001404C
:102D00000004004000080040000C0040004001406A
:102D1000004401400048014070B504460068016964
:102D2000E26821F44051114301612169A068E26920
:102D300008436169114308432168CA6849F20C637A
:102D40009A430243CA6020684169A26921F4407134
:102D50001143416131492068884202D0304988429C
:102D600002D1FEF735FE01E0FEF722FEE269002304
:102D7000192164253226B2F5004F626828D0A0FBE5
:102D80000101930F9200FDF781FA0146B0FBF5F0C7
:102D90006FF01802504301EB800006EB0010B0FB0F
:102DA000F5F000F0F002B1FBF5F002EB0012B1FB20
:102DB000F5F06FF01803584301EB800006EB0010AC
:102DC000B0FBF5F000F00F0021681044886070BD82
:102DD000A0FB010192185B41FDF758FA0146B0FBD8
:102DE000F5F00201B1FBF5F06FF01803584301EB69
:102DF000800006EBC000B0FBF5F000F0F80002EB3D
:102E00004002B1FBF5F0584301EB800006EBC00037
:102E1000B0FBF5F000F00700D6E70000001001401D
:102E20000014014010B5D0F8B8220AB1526890479A
:102E3000002010BD134610B50A46002100F014FC16
:102E4000002010BD134610B50A46002100F0BCFC5E
:102E5000002010BD10B50446802100F091FC2046F2
:102E6000BDE81040002100F08BBC10B50323C0F872
:102E70009432C0F858211346C0F85C210A4600215C
:102E800000F0F2FB002010BD10B50521C0F894122F
:102E900000231A46194600F0E7FB002010BD10B5CC
:102EA0000223C0F8943282611346C2610A460021AF
:102EB00000F08AFC002010BD10B50421C0F8941267
:102EC00000231A46194600F07FFC002010BD70B5A3
:102ED000D0F8BC120446B9B10025C1F80054022054
:102EE000C1F8045481F8180481F8105481F81404CE
:102EF000D4F8C00204F52F7480688047206800F081
:102F00005FFE0020256070BD022070BD002070476C
:102F10007CB50246D2E9AF4084B394F81814042972
:102F200002D0072958D029E0D4F80014002571B147
:102F3000012931D98902D4F80824A1F5006111448E
:102F40000369D4F8042420469847B8B924E0D4F89B
:102F50000414012920D005290BD0C4F80454012001
:102F6000ADF806008DF8005069461046FFF772FF75
:102F700012E02178212903D041291DD003207CBDF6
:102F80006078A17800EB0120E17800EB0140217925
:102F900000EB0160C4F80804C4F804540320C4F82A
:102FA000005484F8180484F8115484F8125484F8F6
:102FB000135484F8140412E06178A27801EB022122
:102FC000E27801EB0241227901EB0261C4F80814B6
:102FD000C26808469047B8E71046FDF7E7FA0020B8
:102FE0007CBD00001B210180004870476401002067
:102FF0000A210180004870478001002010B5D0F8F8
:10300000C002062905D80068034900F0DDF902482E
:1030100010BD002010BD0000905C002010B50446DB
:1030200040F21C4000F0CEFD0021D0B1C4F8BC023B
:1030300000F580604FF00062C0E90221016041604C
:10304000417602220276017441748174C174027562
:103050004175D4F8C00240688047002800D00320A2
:1030600010BD0220C4F8BC1210BD19B1C0F8C012C6
:10307000002070470320704700207047F8B50024F7
:103080000D46D0F8BC12264622462346ADF8004035
:1030900031B12F7817F0600763D0202F75D101E090
:1030A0000320F8BD6E780222072E6ED2DFE806F00C
:1030B0005504080C0F3236002946FDF7E9F987E080
:1030C0002946FDF7ABFA83E0FDF714FA80E091F8AA
:1030D00018040A2811D00A2081F818040E2281F859
:1030E000102481F8113481F8123481F8133481F8F6
:1030F000140400BF81F815346AE081F8182481F8BF
:10310000103481F8113481F8123481F8133481F8C5
:103110001424EFE7012201F5836142E091F81804DD
:10312000022807D0032805D0052803D0062801D09F
:1031300009284DD181F8182481F8103481F8113410
:1031400081F8123481F8133481F8142481F815348D
:10315000C1F80034C1F804343AE02946FDF75EF9BD
:1031600036E06B78062B11D003DC3BB1012B2BD161
:103170002EE00A2B18D00B2B26D11DE090F89C12C4
:10318000032921D1022269460BE01DE06988212331
:10319000B3EB112F04D1EA88104E092A00D9092275
:1031A0003146FFF77CFE13E090F89C22032A0BD1F6
:1031B000012201F20C41F4E76A8812F0FF0F03D1FB
:1031C00090F89C32032B05D02946FFF743FE0324D9
:1031D0002046F8BDD0B2C1F80C04F9E77601002012
:1031E00010B50A46024903A000F0EEF8004810BDF1
:1031F000740D002044465520436F6E6669670000D9
:1032000012200880004870473000002010B50A46A0
:10321000024903A000F0D8F8004810BD740D00204A
:1032200044465520496E746572666163650000000E
:1032300004200880004870472C00002010B50A4682
:10324000024903A000F0C0F8004810BD740D002032
:1032500053544D6963726F656C656374726F6E6908
:103260006373000010B50A46024903A000F0ACF8F1
:10327000004810BD740D002053544D333220446F6C
:10328000776E4C6F6164204669726D77617265205C
:10329000557064617465000010B51A2008800A48F2
:1032A0000168001D0468001D0068081809D0082284
:1032B0000649FFF7D7F80549042210312046FFF7E9
:1032C000D1F80248801E10BD107AFF1F4600002072
:1032D000F8B504460020ADF8000048880D46010A04
:1032E000082968D2DFE801F0670409176767454ECF
:1032F000D4F8B412207C0A6819E0207C0226002849
:10330000D4F8B80205D0C16A6846884701464670BD
:1033100042E0816AF8E7C1B2062921D2DFE801F074
:10332000030A1014181CD4F8B402426805E0694678
:10333000904725E0D4F8B4028268DAB3207CF6E73F
:10334000D4F8B402C268F8E7D4F8B4020269F4E72A
:10335000D4F8B4024269F0E7D4F8B4028269ECE729
:10336000D4F8B8128B6B2BB3C1B26A46204698478B
:1033700006E0207CF0B9D4F8B802416B6846884773
:10338000014609E0207CA8B9D4F8B802016B684670
:103390008847014607204870EA888AB1BDF80000D6
:1033A00040B1824200D90246ADF800202046FFF726
:1033B00076FDF8BDFFE729462046FFF74BFDF8E70D
:1033C0002046FFF779FDF4E770B5002300281ED0F2
:1033D0000025044602E06D1CEDB2641C2678002E28
:1033E000F9D1022404EB450414801278CA545B1C02
:1033F0000322CA5400245B1C06E0CA545B1CDAB2E8
:103400008C54521CD3B2401C0278002AF5D170BDF6
:1034100001004FF0000004D0012901D0022901D0A1
:10342000032070470120704778B10023C0F8B832FC
:10343000C0F8C032C0F8CC3209B1C0F8B4120121D2
:1034400080F89C12027000F0A3B80320704710B5FA
:10345000D0F8C402FDF7A6FDBDE81040FFF7D8BFC5
:1034600070B51646044621B194F89C02032841D059
:1034700048E0D4F8941204F114000025022932D156
:10348000D0E902318B4206D95A1A82603146204671
:10349000FFF7D8FC0FE0994214D14068884211D35D
:1034A000D4F8981288420DD2002211462046FFF728
:1034B000C9FCC4F8985200231A461946204600F069
:1034C000D3F810E094F89C02032805D1D4F8B80290
:1034D000C16809B1204688478021204600F050F994
:1034E0002046FFF7D1FC94F8A00201280AD184F805
:1034F000A05207E0D4F8B80242691AB120469047BA
:10350000002800D1002070BD10B51346044621B13B
:1035100094F89C02032823D02AE0D4F8941204F5EE
:10352000AA70032924D1D0E9021291420AD98A1A39
:103530008260C068824200D3024619462046FFF7E7
:1035400079FC15E094F89C02032805D1D4F8B80260
:10355000016909B1204688472046FFF7ADFC07E026
:10356000D4F8B80282691AB120469047002800D1E9
:10357000002010BD0020704710B5012180F89C127A
:10358000D0F8B82212B1526801799047002010BDDE
:1035900010B5017839BB15490222C1F80404C0F8FE
:1035A000C4124FF0A0400860042048600020C1E928
:1035B0000320C1E9062008624862C8620863084621
:1035C000FDF7EEFF08B1FDF799F880210748FDF7F8
:1035D000A8FC402200210548FDF7A7FC802201211C
:1035E0000248FDF7A2FC002010BD00006C0900207D
:1035F0000A0601F07F01D0F8C402C1EBC10100EB63
:10360000810002D590F83E00704790F8FE017047A7
:1036100010B5D0F8B82222B190F89C32032B02D01A
:1036200004E0032010BD126A02B19047002010BDD3
:1036300010B5D0F8B82222B190F89C32032B02D0FA
:1036400004E0032010BD526A02B19047002010BD73
:1036500010B51C461346D0F8C4022246FDF7D0FC34
:10366000BDE81040FFF7D4BE10B5D0F8C402FDF796
:10367000F7FCBDE81040FFF7CBBE70B5012504464E
:1036800080F89C520020C4F894026060C4F8A40240
:10369000D4F8B802E0B1D4F8BC1221B1426812B13A
:1036A0000021204690470022402311462046FFF784
:1036B000CFFF4026A4F864513346002280212046E3
:1036C000C4F86061FFF7C4FFA5840020266270BDC6
:1036D000032070BD90F89C12042903D190F89D122C
:1036E00080F89C120020704710B5D0F8B81221B1B4
:1036F00090F89C22032A02D004E0032010BDC9697F
:1037000001B18847002010BD01740020704710B53A
:10371000D0F8C402FEF713F8BDE81040FFF778BEFA
:1037200070B5044600F2AA20054600F056F80120C4
:10373000C4F89402B4F8B002C4F8980294F8AA024B
:1037400010F01F010AD001290ED0022912D000F07A
:1037500080012046BDE8704000F012B8294620469E
:10376000BDE8704000F0CCB829462046BDE8704066
:1037700000F0F0B929462046BDE8704000F04AB993
:1037800010B5D0F8C402FDF78FFCBDE81040FFF77C
:103790003FBE10B5D0F8C402FDF7ECFFBDE8104005
:1037A000FFF736BE10B5D0F8C402FEF704F8BDE846
:1037B0001040FFF72DBE90F89C1280F89D12042156
:1037C00080F89C120020704710B5D0F8C402FDF7B5
:1037D000A5FCBDE81040FFF71BBE70B5054611F80B
:1037E000010B2870087868704C1C2046FFF7D6F94A
:1037F0006880A41C2046FFF7D1F9A880A01CFFF721
:10380000CDF9E88070BD38B504460020ADF8000061
:1038100049B1C4F8B812C96A19B168468847C4F8F2
:10382000CC02002038BD032038BD02460320D2F868
:10383000B832002B02D01B681046184770470000B2
:103840002DE9F0410F462C4E897800250446317051
:10385000012906D939462046FFF7FCFA0320BDE8C6
:10386000F08194F89C0202280CD003281DD0394620
:103870002046FFF7EFFA31782046FFF7D3FA032509
:103880002846ECE799B320466160FFF7CEFF0500BC
:1038900004D039462046FFF7DDFAF1E72046FFF76E
:1038A0000BFB032084F89C02EAE74FF00208C1B149
:1038B000606888421BD0C1B22046FFF7B3FA317866
:1038C00020466160FFF7B1FF050010D03946204661
:1038D000FFF7C0FA21792046FFF7A4FA84F89C820A
:1038E000CEE784F89C8220466160FFF79BFA204671
:1038F000FFF7E2FAC4E7000024010020FFF749BF08
:103900002DE9F0410A78002512F0600208D0202A43
:1039100001D0402A71D1D0F8B8229268904731E0A6
:103920004B78002201260A2B67D2DFE803F0415EC4
:103930006658660805662D29FFF7CAFC5FE0044655
:103940008888D8B9C888C8B94888802816D200F0B5
:103950007F0794F89C02032810D084F89E723946A1
:103960002046FFF7D4FE2046FFF7A6FA1FB102203B
:1039700084F89C0243E084F89C6240E020463CE0EE
:10398000FFF75EFF05463AE0CB88012B35D190F872
:103990009C32012B04D0022B02D0032B2DD104E04A
:1039A0008260012200F1080116E00122011D13E0EE
:1039B00090F89C22012A03D0022A01D0032A1CD1AC
:1039C000CA88022A19D1C660D0F8A41209B103210D
:1039D000C160022200F10C01FFF761FA0FE0498893
:1039E00001290CD1C0F8A46211E090F89C32012B9F
:1039F00008D0022B06D0032B04D0FFF72BFA284661
:103A0000BDE8F08149880129F9D1C0F8A422FFF767
:103A100053FAF4E72DE9F0410D46044628780026D4
:103A2000097910F060000BD0202801D040286DD11A
:103A3000D4F8B8022946826820469047064686E0B8
:103A40006878A8B3012822D003287CD194F89C027E
:103A5000022802D0032876D10BE0002973D08029F8
:103A600071D02046FFF78CFE80212046FFF788FEAC
:103A70006DE0688838B931B1802904D0E88810B980
:103A80002046FFF77DFE2046FFF716FA5FE094F828
:103A90009C020228E1D0032855D16888A8BB4806BB
:103AA00002D02046FFF7D3FC2046FFF705FABFE718
:103AB000FFE794F89C020027022802D0032842D195
:103AC00011E009B180293ED1080601F07F0000EB2A
:103AD000800004EB800101D5143101E001F5AA71E9
:103AE00002220F602BE0080601F00F0000EB8000BF
:103AF00004EB80000BD5808C40B101F07F0000EB1F
:103B0000800004EB800514350CE020E01BE0B0F8E9
:103B10006401C0B101F07F0000EB800004EB800580
:103B200005F5AA7541B1802906D02046FFF760FD52
:103B300010B10120286000E02F60022229462046B3
:103B4000FFF7ADF903E029462046FFF783F9304639
:103B5000BDE8F08170B50646087800240D4610F0E7
:103B6000600003D0202801D0402817D196F89C028D
:103B7000012803D0022801D003280FD12879012879
:103B80000CD8D6F8B8028268304690470446E888D8
:103B9000204306D13046FFF78FF902E03046FFF7A9
:103BA00059F9204670BD10B50446FFF7FBFDD4F867
:103BB000B80218B14268217920469047002010BD14
:103BC00070470000004870474C05002070B50A7827
:103BD000012302F00F054E78AB401B4CD0F81C5867
:103BE000012E17D045EA0343C0F81C3800EB421001
:103BF000D0F8002B12040BD4D0F8002B0B89C97815
:103C0000C3F30A031A4344EA81410A43C0F8002B74
:103C1000002070BD9BB21D43C0F81C5800EB421041
:103C2000D0F800391B04F3D4D0F800390D89C978D5
:103C3000C5F30A0589042B4341EA82510B43234310
:103C4000C0F80039E4E7000000800010D0F8001947
:103C50006FF30A01C0F80019D0F8041841F480711C
:103C6000C0F804180020704770B5044606990A9EF3
:103C7000049D0D98012916D0E06840F04000E060F6
:103C8000204600F02BF8A16B1EB321F48031A16314
:103C9000012D07D1A16841F00601A160A16841F0A2
:103CA0002001A16070BDA16B21F48031A163E168A6
:103CB000094A1140E160E16821F44011E160012806
:103CC00003D1E06840F48010E060204600F006F880
:103CD000DEE741F48031DAE7BFFFBDFF01220C4986
:103CE00002E0521C8A420BD80369002BF9DA026900
:103CF00042F001020261012204E0521C8A4201D911
:103D0000032070470369DB07F7D1002070470000EC
:103D1000400D0300D0F8001E21F00301C0F8001E82
:103D2000D0F8041821F00201C0F8041800207047F0
:103D3000D0F8001E21F00301C0F8001ED0F80418CE
:103D400041F00201C0F80418002070472DE9F04F3F
:103D500000250E460446DDF82CC0DDF824B0109F87
:103D60002846294604EB8002C2F80411401C0F28A3
:103D7000F8D32046C7B1806B20F40012A263A06B79
:103D800040F40022A26308468846C4F8000ED4F826
:103D900000182046C4F80018BCF1010F16D0D0F866
:103DA000001841F0030116E0D0F8040840F00202C8
:103DB000C4F80428A06B40F40012A263A06B20F4A6
:103DC0000022A263A06B20F48022DBE7D0F8001869
:103DD0000BB141F00101C0F80018102100F090FA79
:103DE00000B10125204600F07BFA00B101254046D4
:103DF000C4F81088C4F81488C4F81C8800214FF057
:103E000000694FF0904A4FF67F3314E004EB411203
:103E1000D2F800C9BCF1000F06DA11B1C2F800A94E
:103E200004E0C4F8009901E0C2F80009C2F81009E2
:103E3000C2F80839491C8E42E8D8002115E000BFBD
:103E400004EB4112D2F800CBBCF1000F06DA11B13D
:103E5000C2F800AB04E0C4F8009B01E0C2F8000B1C
:103E6000C2F8100BC2F8083B491C8E42E8D8D4F8BF
:103E7000101821F48072C4F81028A0616FF08040FF
:103E80006061BBF1000F03D1A06940F01000A06198
:103E9000A06909490843A0610C9818B1A06940F0D5
:103EA0000800A061012F03D1A06904490843A06163
:103EB0002846BDE8F08F000000383C800400004038
:103EC000816821F0010181600020704770B50D7894
:103ED0004E78434CEBB200EB4313012E1FD0D3F8C6
:103EE000100B6FF31200C3F8100BD3F8100B204027
:103EF000C3F8100B486908B188684861D3F8100B03
:103F000040F40020C3F8100BD3F8100B8C68C4F3F6
:103F100012042043C3F8100B012A55D058E04E6913
:103F2000002ED3F8106932D06FF31206C3F810696F
:103F3000D3F810692640C3F810694E698C68A64210
:103F400000D94C61D3F8104944F40024C3F8104957
:103F5000D3F810494E69C6F312063443C3F810492A
:103F6000012A22D000EB4512D2F8003943F0044375
:103F7000C2F800394A6932B3D0F83428097801F020
:103F80000F03012199400A43C0F8342826E0264057
:103F9000C3F81069D3F8104944F40024C3F8104959
:103FA000D3F810496FF31204D8E7096919B100EB8F
:103FB0004512C2F8141900EB4510D0F8001941F071
:103FC0000441C0F8001909E0C86808B1C3F8140B2F
:103FD000D3F8000B40F00440C3F8000B002070BD84
:103FE000FFFF07E010B5036C134CA34203D9D0F8D0
:103FF000003B002B1EDB0023C0F8103BD0F8103B29
:1040000043F40023C0F8103BD0F8103B43F01803F2
:10401000C0F8103BD0F8103B43F0C043C0F8103B51
:10402000012907D1C0F8142BD0F8001B41F08021E2
:10403000C0F8001B002010BD0A30544F4A780B789E
:10404000012A00EB43100BD0D0F8002B22F4001211
:10405000C0F8002BC978032914D0022912D017E028
:10406000D0F8002922F40012C0F80029C9780329E9
:1040700001D002290CD1D0F8001941F08051C0F8CC
:10408000001905E0D0F8001B41F08051C0F8001B7A
:10409000002070470A784B78D1B200EB4110012B19
:1040A00012D0D0F8001B002906DB2AB1D0F8001B83
:1040B00021F08041C0F8001BD0F8001B41F4001132
:1040C000C0F8001B00207047D0F80019002906DB5B
:1040D0002AB1D0F8001921F08041C0F80019D0F8B9
:1040E000001941F40011C0F80019EBE7F8B50C789D
:1040F0004F78774DE3B26FF0604600EB4313012F2A
:1041000026D0D3F8104B6FF31204C3F8104BD3F83A
:10411000104B2C40C3F8104B4C69002C74D08D68A8
:104120002C44641EB4FBF5F4D3F8105BA4B206EA89
:10413000C4463543C3F8105BD3F8105B8E68664302
:10414000C6F312042543C3F8105B012A71D0A6E020
:104150004F691FB3D3F810796FF31207C3F81079C2
:10416000D3F810792F40C3F810794F698D682F4428
:104170007F1EB7FBF5F506EAC545D3F81069354350
:10418000C3F81059D3F810594E69C6F312063543D7
:10419000C3F81059CD78012D10D01BE0D3F8106969
:1041A0002E40C3F81069D3F8105945F40025C3F820
:1041B0001059D3F810596FF3120509E0D3F81059CC
:1041C00025F0C045C3F81059D3F8105945F00055F3
:1041D000C3F81059012A18D000EB4413D3F8004952
:1041E00044F00444C3F80049CC78012C2FD04A692C
:1041F00062B3D0F83428097801F00F030121994007
:104200000A43C0F8342860E036E00A691AB100EBCE
:104210004413C3F81429C97801290FD1D0F808181C
:10422000C90500EB4411D1F8002903D442F0005233
:1042300002E030E042F08052C1F8002900EB441067
:10424000D0F8001941F00441C0F800193DE0D0F861
:104250000848E405D3F8004902D444F0005401E0D2
:1042600044F08054C3F8004900928A8A93B20A78D5
:10427000C96800F03FF928E0D3F8104B8D68C5F30A
:1042800012052C43C3F8104BD3F8104B44F4002410
:10429000C3F8104B59E7CA680AB1C3F8142BC978A0
:1042A00001290CD1D0F80808C005D3F8000B02D4BE
:1042B00040F0005001E040F08050C3F8000BD3F80C
:1042C000000B40F00440C3F8000B0020F8BD0000D4
:1042D000FFFF07E0816841F0010181600020704725
:1042E000002110220261054A491C914201D9032094
:1042F00070470369DB06F7D400207047400D0300C8
:104300000022202343EA811101610549521C8A429F
:1043100001D90320704703699B06F7D4002070473A
:10432000400D0300D0F8080810F0060004D0022861
:1043300003D0062801D00F20704702207047406943
:1043400000F001007047D0F81818D0F81C08084099
:1043500080B27047D0F81818D0F81C080840000C3C
:10436000704710B5D0F81038D0F8342801F00F0499
:1043700000EB4110E24002F00102D0F8080943EAE4
:10438000C212104010BD00EB4111D1F8081BD0F84B
:104390001408084070474169806908407047D21C82
:1043A00010B59308002200F5805002E00468521C0A
:1043B00010C19A42FAD3084610BD10B5C26822F067
:1043C000C042C260012902D029B1012010BDC168DC
:1043D00041F0005102E0C16841F08041C1603220EB
:1043E000FCF78EF9002010BDD0F8002822F4FE6200
:1043F000C0F80028D0F800284FF4FE6303EA01114A
:104400000A43C0F80028002070470000022A3ED16D
:10441000264A274B0A449A4201D20F2138E0254A06
:10442000254B0A449A4201D20E2131E0234A244B03
:104430000A449A4201D20D212AE0224A224B0A4420
:104440009A4201D20C2123E0204A214B0A449A428D
:1044500001D20B211CE01F4A1F4B0A449A4201D291
:104460000A2115E01D4A1E4B0A449A420FD31D4AE9
:104470001D4B0A449A4201D2082109E01B4A11440B
:104480001B4A914201D2072102E0062100E00921E6
:10449000C26822F47052C260C2684FF4705303EADB
:1044A00081210A43C260002070470000405327FF6B
:1044B00000350C00401E1BFF40420F0000DC0BFFCC
:1044C000804F1200808CF9FE20D6130060B6E5FE06
:1044D00060E3160000D3CEFE40771B00C05BB3FE46
:1044E000C091210000CA91FE20753800E05459FEA9
:1044F000E09C410010B5029C64B9DB1C9C0800EBF9
:104500000230002300F5805002E004C902605B1C09
:10451000A342FAD3002010BDFEE700000FB4084B01
:1045200010B504A902AA039800F02CF8044602A9C9
:10453000002000F0D1F8204610BC5DF814FB00000C
:10454000D94600080907090E002804DB00F1E02025
:1045500080F80014704700F00F0000F1E02080F8B0
:10456000141D704702E008C8121F08C1002AFAD1C2
:1045700070477047002001E001C1121F002AFBD1E3
:10458000704700002DE9FF4F89B09B460446002587
:1045900006E025280BD05A460B999047641C6D1CE9
:1045A00020780028F5D10DB02846BDE8F08F00270F
:1045B000B8460122474900E0074314F8013F203B79
:1045C00002FA03F00842F7D120782E2819D114F806
:1045D000010F47F004072A280ED06FF02F02207831
:1045E000A0F1300109290CD808EB880102EB410148
:1045F00000EB0108641CF2E70A98641C50F8048B75
:104600000A9020780028CED0642808D0692806D0E7
:1046100075281ED05A460B9990476D1C58E00A9990
:104620004FF00A0901C90A91002802DA40422D21FF
:1046300002E0390504D52B218DF82010012103E07B
:10464000F90704D02021F7E78A4608AE0DE00021E3
:10465000FAE70A994FF00A0901C90A91F7E74946B2
:10466000FBF769FE303106F8011D0028F7D1ADEBEC
:10467000060000F12009780701D44FF00108C84571
:1046800002DDA8EB090000E000208046002706E0DC
:1046900008A85A46C05D0B9990476D1C7F1C574572
:1046A000F6DB04E030205A460B9990476D1CB8F1B8
:1046B0000001A8F10108F5DC05E016F8010B5A46E7
:1046C0000B9990476D1CB9F10001A9F10109F4DCC7
:1046D000641C65E7092801000A68531C0B60107010
:1046E0007047FCF76DFBFEF771FAFDF759FFFDF718
:1046F0009FFFFDF7BDFFFDF7DDFFFEF713F900F0AB
:1047000013F8FDF72BFF00F021F8FEE710B5EFF3EB
:10471000058111B16FF0050403E0002408B100F039
:104720002BFE204610BD0000EFF3058010B16FF0A6
:10473000050070470448016811B14FF0FF30704721
:104740000121016000207047F400002010B5EFF354
:10475000058010B16FF0050010BD084801680129FF
:1047600002D04FF0FF3010BD054A002182F8141D21
:104770000221016000F068FE002010BDF40000205E
:104780000BE000E02DE9FF414FEA01034FF0000587
:10479000EFF30581039549BB40B38027182100241E
:1047A0004AB3166806B1344696691EB13146761E84
:1047B000382E02D21679F60703D0002004B0BDE8E7
:1047C000F081566906B1B708D2F808C0BCF1000FF5
:1047D0000DD0D5685C2D18D312693AB136B18DE889
:1047E00006103A46214601F0C8F903900DE0D6685C
:1047F0005EB912694AB903AACDE90012BAB22146DC
:1048000001F08EF9012800D003950398D6E7000047
:104810002DE9F041134C0F460546E6682068001D5F
:1048200000F076FC681C07D137B12168BDE8F04183
:104830000D48091D00F0BCBC20683544B5424560F8
:10484000216805D2A06BBDE8F041091D00F098BCBD
:10485000606B091D00F094FCA06A854200D2A5623D
:10486000BDE8F081A4000020AC1800202DE9F04143
:10487000054600F0A9FC2D4CA068401CA0602068F3
:104880002B4F10B1606930B32BE02560A068012880
:1048900027D1002606EB860007EB800000F062FCC3
:1048A000761C382EF6D3234800F05CFC21481430E7
:1048B00000F058FC1F48283000F054FC1D483C30E4
:1048C00000F050FC1B48503000F04CFC194860636D
:1048D0001430A06305E02068E96AC06A884200D805
:1048E0002560606A401C60626864E86A21698842E9
:1048F00000D9206100EB800007EB8000291D00F04B
:1049000057FC00F081FC606900280CD02068E96A3F
:10491000C06A884207D208494FF080500860BFF350
:104920004F8FBFF36F8FBDE8F0810000A40000201F
:10493000FC1300205C18002004ED00E038B500F006
:1049400043FC104C2068C8B90F4800F00BFC0E481F
:10495000143000F007FC0C48E060143020610A4B72
:104960000020F03B009003F1500210210A2000F0DB
:1049700079FE206010B105A100F0C8FCBDE8384008
:1049800000F042BCE0000020B0190020546D7251CC
:104990000000000030B4026C0B46002A0BD0C16846
:1049A0001144C1608468A14201D30168C16030BC78
:1049B0001846FBF79CBC30BC70472DE9F041856B75
:1049C000174604460026026C82B1C7B1E068FBF7C7
:1049D0008EFCE168206C091AE1602268914202D2E3
:1049E000A168081AE060022F16D017E02068A8B965
:1049F000A06801F065F906460020A0600EE060683E
:104A0000FBF775FC216C606808446060A16888420F
:104A100004D32068606001E005B16D1E6D1CA563C4
:104A20003046BDE8F08110B5044690F8590058B101
:104A300001280CD002280FD0502080F31188BFF33A
:104A40004F8FBFF36F8FFEE7206B00F0F1FB204626
:104A5000BDE8104000F0ECBB10BD000010484FF462
:104A60007051420706D0C01D0D4920F00700411AC1
:104A7000C1F570510B4A00230144C2E90003083913
:104A8000183A21F0070111604B600B600B1AC0E966
:104A9000001393604FF00040536050617047000076
:104AA0009020002010010020144E154CA6F29C47C7
:104AB0004FF08058DFF84C9012E000BF00F084FB0C
:104AC000F068C568281D00F023FBA068401EA060A8
:104AD0006068401E606000F097FB2846FFF7A3FF68
:104AE00060680028EAD138680128F9D9C9F800803F
:104AF000BFF34F8FBFF36F8FF2E7000098180020CD
:104B0000A400002004ED00E070B51D46049C51B1E6
:104B1000C4F80020C4E90F010121204600F0D6FDB1
:104B200084F84C5070BD2460F4E700002DE9F05F7C
:104B30008846DDE90B941546834691009A460A9E05
:104B4000A522206BFBF7E5FB6FF00301206B01EB67
:104B50008501084420F00707780707D0502080F32C
:104B60001188BFF34F8FBFF36F8FFEE70025B8F1B9
:104B7000000F0FD05FF00000221818F8001082F824
:104B8000341018F8001011B1401C1028F4D384F828
:104B9000435001E084F83450382E00D33726E662C3
:104BA000C4E91365201D00F0E8FA04F1180000F0D4
:104BB000E4FA2461C6F138006462A061656584F896
:104BC000585052465946384600F05AFA2060B9F11A
:104BD000000F01D0C9F80040BDE8F09F30B5114981
:104BE00000E011460A688242FBD34B685C1884429D
:104BF00003D1406818444860084643681C18944232
:104C000009D1084C183C2468A24209D052681A44C1
:104C100042600A6812680260814200D0086030BDBC
:104C20000460F9E71001002070B5002441600B4DCD
:104C30000061914206D8D11A8269914206D2011DC3
:104C4000286907E09A4203D2994201D3012403E084
:104C5000011DE86800F094FA204670BDE0000020D5
:104C600010B5044600F0B0FAA06B28B15FF0000464
:104C700000F0CAFA204610BD0124F9E730B589B02A
:104C80003C4D6EE00498002806DADDE90601059A3D
:104C900090470498002864DB069C606910B1201DD1
:104CA00000F036FA03A800F0D7F8024604980A2864
:104CB00057D2DFE800F00505052D334A05052D33F1
:104CC00094F8280040F0010084F828000599A069B4
:104CD000059B01442046FFF7A7FF68B3216A2046E1
:104CE000884794F8280040073BD50020009005989D
:104CF000A169002342181946204601F0EBF8D8B903
:104D0000502080F31188BFF34F8FBFF36F8FFEE702
:104D100014F8280F20F00100207022E094F82800F9
:104D200040F0010084F828000598A06128B181189E
:104D300013462046FFF778FF13E0502080F31188D8
:104D4000BFF34F8FBFF36F8FFEE794F82800810702
:104D500003D4204600F06CFA03E020F0010084F850
:104D60002800002204A9286800F004FE002889D148
:104D700009B030BDE00000202DE9FC410F4605469A
:104D800000F0A6FB01A800F067F80446019818B1EE
:104D900001F00EF8BDE8FC81254EAFB13069006826
:104DA000D0B30027291B3A46306800F0C3FA00F060
:104DB000FFFF0028EED11F494FF080500860BFF37D
:104DC0004F8FBFF36F8FE5E7A542EBD800F0F0FF00
:104DD000F0682746C068C468201D00F099F994F86F
:104DE0002800410719D5A0692B4641193A462046AB
:104DF000FFF71AFFA8B100200346014600902A469B
:104E0000204601F067F860B9502080F31188BFF3A5
:104E10004F8FBFF36F8FFEE707E020F0010084F8AB
:104E20002800216A20468847B4E70127BAE7000036
:104E3000E000002004ED00E00648416B096829B15C
:104E4000416BC968C9684968816270474FF0FF319A
:104E5000FAE70000A400002070B5054600F0C6FE89
:104E6000064E0446B068844203D200F009F80120DF
:104E700000E0002028602046B46070BDE000002003
:104E8000F8B5194D20E0C068C4680668201D00F020
:104E90003FF9216A2046884794F82800400713D537
:104EA000A0693044B04206D924616060211DE868E1
:104EB00000F066F908E00020034601460090324603
:104EC000204601F007F838B1E86801680029DAD116
:104ED0002969C5E90310F8BD502080F31188BFF39C
:104EE0004F8FBFF36F8FFEE7E00000200848406857
:104EF000401C4FF0500080F3118804D0BFF34F8F57
:104F0000BFF36F8FFEE7BFF34F8FBFF36F8FFEE7E7
:104F100018010020074CE068016841B1C068002119
:104F2000D0F80000FFF728FFFFF7A8FEF3E7012104
:104F30000020F7E7E00000202DE9F041044600F0F2
:104F400043F994F9455004F1240609E0606A48B138
:104F5000304600F0F5FE08B100F03CFA6D1E6DB26F
:104F6000002DF3DC4FF0FF3684F8456000F04CF97B
:104F700000F02AF994F9445004F1100709E020697F
:104F800048B1384600F0DCFE08B100F023FA6D1E8F
:104F90006DB2002DF3DC84F84460BDE8F04100F010
:104FA00033B900002DE9F0410546002700F090FAE2
:104FB000324E306808B9FFF751FD706905424ED195
:104FC000C5B3083568070ED005F00700C0F108002A
:104FD0000544680707D0502080F31188BFF34F8F36
:104FE000BFF36F8FFEE72DB37068854237D8234833
:104FF000183001460C6801E020460C466168A94261
:1050000002D221680029F7D131688C4227D0076885
:105010002168016060680837411B10290FD96019A9
:10502000420708D0502080F31188BFF34F8FBFF3A1
:105030006F8FFEE713E041606560FFF7CFFD6168A9
:105040007068401A7060B268904200D2B0607069B7
:1050500001430020C4E90001F068401CF06000F04A
:10506000A7FE780707D0502080F31188BFF34F8F39
:10507000BFF36F8FFEE73846BDE8F081F8000020EF
:1050800010B5031F4FF080741C601B1F21F001013D
:105090001960191F044B0B6014390A60091F6FF067
:1050A000020244380A6010BDED4E00080148401E5F
:1050B000FDD1704790D003001CB502238DF8041079
:1050C0000A2100918DF80520014601AA0148FBF74D
:1050D000A5FD1CBD8C01002070B5C2B000248DF868
:1050E000041001A904E0155D0E19641C7570E4B28A
:1050F0009C42F8D30A2100915B1C01469BB201AA95
:105100000248FBF78BFD42B070BD00008C0100200F
:10511000D0E9013201699A60D0E901235A604A68F6
:10512000824201D182684A60002202610868401E02
:105130000860086870470000034B036003F15C00DF
:105140000860802010607047D8190020044B03606D
:1051500003F15C0008604FF480701060704700003D
:10516000341C002000F108014FF0FF32C0E90112A9
:10517000C160016100210160704700210161704739
:1051800030B50B685A1C02D000F1080202E0026937
:1051900004E02246546825689D42FAD953684B6062
:1051A00099608A60516008610168491C016030BDE6
:1051B00042684A6093688B609368596091600861A7
:1051C0000168491C01607047502080F31188BFF3CB
:1051D0004F8FBFF36F8F0A494868401C4860012811
:1051E0000CD10848006810F0FF0F07D0502080F362
:1051F0001188BFF34F8FBFF36F8FFEE7704700003A
:105200001801002004ED00E00849486828B1401E5C
:10521000486001D180F311887047502080F31188D5
:10522000BFF34F8FBFF36F8FFEE700001801002020
:1052300070B500282AD0164DA0F10804606869698D
:10524000084207D1502080F31188BFF34F8FBFF37E
:105250006F8FFEE722683AB1502080F31188BFF3C8
:105260004F8FBFF36F8FFEE78843606000F030F927
:1052700060686968084468602046FFF7AFFC2869E9
:10528000401C2861BDE8704000F092BD70BD000078
:10529000F80000204FF0E020002101618161054904
:1052A0004FF47A720968B1FBF2F1491E416107219E
:1052B00001617047A000002010B5FAF7D1FF114935
:1052C00010280ED300F1E02090F8F0030A78904205
:1052D00007D2502080F31188BFF34F8FBFF36F8F39
:1052E000FEE709480068896800F4E060884207D951
:1052F000502080F31188BFF34F8FBFF36F8FFEE70D
:1053000010BD0000180100200CED00E010B5084BA6
:10531000002200BF53F832401CB1521C082AF9D3B6
:1053200010BD43F8321003EBC201486010BD00000D
:10533000BC13002070B515460E460446FFF744FF27
:1053400094F944100020491C01D184F8440094F9D8
:105350004510491C01D184F84500FFF755FFA06BAB
:1053600028B92A46314604F1240000F051F82046BD
:10537000BDE87040FFF7E0BD10B5020014D00F4843
:10538000006B38B1502080F31188BFF34F8FBFF30B
:105390006F8FFEE700F09CF800211046FFF738FA07
:1053A00000F006FD002807D105494FF08050086045
:1053B000BFF34F8FBFF36F8F10BD0000A40000201C
:1053C00004ED00E002490A6A0260C9684160704762
:1053D000A400002001490120C8617047A4000020FA
:1053E00010B50C4650B1094909681831FFF7C8FEDD
:1053F0002046BDE810400121FFF70ABA502080F393
:105400001188BFF34F8FBFF36F8FFEE7A40000201A
:1054100070B514460D4668B10A4909681831FFF79E
:10542000C7FE0CB14FF0FF3521462846BDE870405D
:10543000FFF7EEB9502080F31188BFF34F8FBFF311
:105440006F8FFEE7A400002030B587B000240394DE
:1054500005AA04A903A80494FFF76EFEDDE9030181
:105460000094CDE90110002315A11748059A00F01A
:1054700084FB164D0028E8621FD000F0FBFC0128D9
:1054800009D0401C19D1502080F31188BFF34F8FF1
:10549000BFF36F8FFEE7502080F31188BFF34F8F6B
:1054A000BFF36F8F4FF0FF30A86201206861EC609E
:1054B00007B0BDE8304000F045B807B030BD00008F
:1054C00049444C4500000000A94A0008A4000020FF
:1054D0000248016B491C016370470000A4000020D2
:1054E000164810B5016B11B10121C16110BD002139
:1054F000C1610169124A01E0B9B1491E01EB8103A2
:1055000052F82330002BF7D001EB810302EB83022A
:1055100002F1080453685B685360A34201D15B68E1
:105520005360DA680260016110BD502080F3118879
:10553000BFF34F8FBFF36F8FFEE70000A400002082
:10554000FC1300201CB537480168374A914207D147
:10555000502080F31188BFF34F8FBFF36F8FFEE7AA
:1055600000683149491E884207D1502080F31188D4
:10557000BFF34F8FBFF36F8FFEE72C490878019080
:10558000FF20087008788DF800009DF800009DF855
:10559000002000F0F000904207D0502080F31188E6
:1055A000BFF34F8FBFF36F8FFEE79DF80000204CD5
:1055B00000F0500020700720A06005E09DF800205A
:1055C00052008DF80020401E9DF800201206F5D4F0
:1055D000A060032807D0502080F31188BFF34F8FBD
:1055E000BFF36F8FFEE74FF44070A0600198087022
:1055F0000C482030016841F470010160016841F0FD
:1056000070410160FFF746FE00206060FAF7F0FD90
:105610000848016841F040410160FAF7D5FD0020DB
:105620001CBD000000ED00E071C20F4100E400E08D
:105630001801002034EF00E010B5502080F31188ED
:10564000BFF34F8FBFF36F8F00F0D6FA18B1044944
:105650004FF080500860002080F3118810BD0000DA
:1056600004ED00E038B5049D18B153B1CAB181B161
:1056700020E0502080F31188BFF34F8FBFF36F8F6E
:10568000FEE7502080F31188BFF34F8FBFF36F8F79
:10569000FEE7502080F31188BFF34F8FBFF36F8F69
:1056A000FEE739B1502080F31188BFF34F8FBFF36D
:1056B0006F8FFEE750241C46012384F846302B46AA
:1056C0000094FFF721FA204638BD000070B50D4662
:1056D000040025D0FFF778FDD4E90F20216802FBF4
:1056E0000011A1600021A163216861600A46D4E92C
:1056F0000F01401E00FB0121E16021464FF0FF3009
:1057000001F8440F487004F110008DB1FFF72AFD35
:1057100004F12400FFF726FDFFF776FD012070BDA0
:10572000502080F31188BFF34F8FBFF36F8FFEE7D8
:1057300021690029F0D000F003FB0028ECD00449D7
:105740004FF080500860BFF34F8FBFF36F8FE3E7D8
:1057500004ED00E02DE9FF4782B01D468A464FF078
:105760000008040003D0BAF1000F08D011E0502067
:1057700080F31188BFF34F8FBFF36F8FFEE7206C6C
:1057800038B1502080F31188BFF34F8FBFF36F8F74
:10579000FEE7022D0AD1E06B012807D0502080F3EC
:1057A0001188BFF34F8FBFF36F8FFEE700F010FA41
:1057B0003F4F4FF000094FF0805648B9049838B178
:1057C000502080F31188BFF34F8FBFF36F8FFEE738
:1057D000FFF7FAFCA06BE16B884207D3022D05D0DE
:1057E0000498D0B1B8F1000F1AD01EE02A465146F5
:1057F0002046FFF7E2F8616A19B104F1240000F0D5
:105800009FFA20B13E60BFF34F8FBFF36F8FFFF75A
:10581000FBFC012006B0BDE8F087FFF7F5FC22E0B5
:105820006846FFF7CFFD4FF00108FFF7EDFCFFF7EB
:105830004FFEFFF7C9FC94F94400401C01D184F8E5
:10584000449094F94500401C01D184F84590FFF73D
:10585000DBFC04A9684600F029F930B12046FFF7C7
:105860006BFB00F0A5FA0020D4E7FFF7ADFCA06BBE
:10587000E16B884213D1FFF7C7FC04F110000499D3
:10588000FFF7AEFD2046FFF757FB00F091FA002826
:105890009ED13E60BFF34F8FBFF36F8F98E7FFF746
:1058A000B3FC2046FFF748FB00F082FA90E70000C7
:1058B00004ED00E02DE9F0471F46904689460400BC
:1058C00003D0B9F1000F08D011E0502080F3118807
:1058D000BFF34F8FBFF36F8FFEE7206C38B15020BE
:1058E00080F31188BFF34F8FBFF36F8FFEE7022F56
:1058F0000AD1E06B012807D0502080F31188BFF354
:105900004F8FBFF36F8FFEE7FFF7D6FC5020EFF30A
:10591000118680F31188BFF34F8FBFF36F8FA06B99
:10592000E16B884206D3022F04D0002086F3118851
:10593000BDE8F08794F94550A06B3A4649462046A9
:10594000FFF73BF8681C04D06D1C84F8455001201B
:10595000ECE7606A0028FAD004F1240000F0F0F9C6
:105960000028F4D0B8F1000FF1D00121C8F80010E0
:10597000EDE700002DE9F747002683B08A460400D2
:1059800003D0BAF1000F08D011E0502080F3118845
:10599000BFF34F8FBFF36F8FFEE7206C38B15020FD
:1059A00080F31188BFF34F8FBFF36F8FFEE700F0D6
:1059B0000FF9DFF8F4804FF000094FF0805748B935
:1059C000059838B1502080F31188BFF34F8FBFF393
:1059D0006F8FFEE7FFF7F8FBA56BC5B15146204678
:1059E000FEF7D8FF6D1EA563206950B104F11000C9
:1059F00000F0A6F928B1C8F80070BFF34F8FBFF3CD
:105A00006F8FFFF701FC012006B0BDE8F087059815
:105A100008B11EB106E0FFF7F7FB27E06846FFF785
:105A2000D1FC0126FFF7F0FBFFF752FDFFF7CCFB9F
:105A300094F94400401C01D184F8449094F9450045
:105A4000401C01D184F84590FFF7DEFB05A96846AC
:105A500000F02CF8002820460AD0FFF76DFA00F07D
:105A6000A7F92046FFF7FCF80028B3D00020CBE7C9
:105A7000FFF7F6F890B104F124000599FFF7B0FCA8
:105A80002046FFF759FA00F093F90028A2D1C8F890
:105A90000070BFF34F8FBFF36F8F9BE72046FFF778
:105AA0004BFA00F085F995E704ED00E02DE9F041AF
:105AB0000C46050011D0C4B1FFF786FB174BDA681E
:105AC0006E682068911B471C17D02F681B6A9F4285
:105AD00019D0964217D8012410E0502080F3118885
