:020000040800F2
:10000000781E002041010008691100080510000851
:1000100000000000000000000000000000000000E0
:100020000000000000000000000000006B1100084C
:100030000000000000000000FF000008AD110008F3
:10004000530100080000000053010008530100089C
:100050005301000853010008530100085301000830
:10006000000000005301000853010008530100087C
:10007000530100085301000853010008000000006C
:10008000411200085301000800000000530100085D
:1000900053010008530100085301000853010008F0
:1000A00053010008530100085301000853010008E0
:1000B000530100080348854600F0DCF8004800477B
:1000C00087160008781E0020084B19680868203041
:1000D00080F30988022080F31488BFF36F8F3FBC40
:1000E000AE4608BC04BC62B6184700001C000020E5
:1000F000EFF3108072B6704780F310887047EFF30B
:1001000009800E4B1A6820381060F0C044464D46F6
:1001100056465F46F0C008B572B602F093F862B674
:100120000CBC116808681030F0C8A046A946B24659
:10013000BB4680F309882038F0C818471C0000200F
:100140000448804704480047FEE7FEE7FEE7FEE775
:10015000FEE7FEE73F120008B500000830B50B4689
:10016000014600202022012409E00D46D5409D4291
:1001700005D31D469540491B254695404019154617
:10018000521E002DF1DC30BDF0B51FB40646002034
:1001900082B005464024019100901BE0019922465F
:1001A0000F46304600F020F8049A059B801A9941CA
:1001B00010D310461946224600F04BF8361A8F41EC
:1001C0000197224601200021009F00F042F83818D4
:1001D0004D4100902046641E0028DFDC019B009802
:1001E0002946324607B0F0BD10B5202A04DB084688
:1001F000203AD040002110BD0B46D340D0402024EF
:10020000A21A91400843194610BD03460B439B07B1
:1002100003D009E008C9121F08C0042AFAD203E07B
:100220000B780370401C491C521EF9D27047D2B2A1
:1002300001E00270401C491EFBD270470022F6E725
:1002400010B513460A4604461946FFF7F0FF20464C
:1002500010BD10B5202A04DB0146203A9140002051
:1002600010BD914020239C1A0346E340194390405F
:1002700010BD0000064C0125064E05E0E36807CCE2
:100280002B430C3C98471034B442F7D3FFF716FFCA
:10029000E42A0008042B000872B6FEE7FCB5002330
:1002A0000124A1E027462A469F403A4073D04D687A
:1002B000012D05D0022D03D0112D01D0122D16D104
:1002C00085680326AC465D00AE46AE406546B54344
:1002D000AC46CE687546AE4065462E43866046689D
:1002E0000D79BE43ED06ED0F9D4035434560C66870
:1002F0005F000325BD40AE46AE4335468E68BE4026
:100300002E43C6604E68022E01D0122E14D1DE0894
:10031000B60036180196366A5D07B446EE0E0F2514
:10032000B54000966646AE43B4460D69009EB540A2
:1003300066462E43019D2E6206687546AE430D79D2
:10034000AD07AD0FBD40354305604D68ED004AD5A2
:10035000284DAE692643AE61AD699E08ED07ED0FED
:100360000095254DB6007519AC46AD689E07360F51
:100370000F27B740BD430927FF06B84201D1002728
:1003800010E01E4FB84201D101270BE01C4FB842CC
:1003900002D1022706E026E01A4FB84201D1032716
:1003A00000E00527B7402F436546AF60164E35681D
:1003B0004F689543FF0300D51543356075684F6856
:1003C0009543BF0300D515437560B5684F689543E5
:1003D000FF0200D51543B560F5684F689543BF022D
:1003E00000D51543F5605B1C0A681546DA4000D05D
:1003F00058E7FCBD00100240000001400004004826
:1004000000080048000C004800040140002A01D008
:1004100081617047816270470148806870470000C1
:100420000C00002070B5024640325378202B1CD1BE
:100430001378012B19D001231370242454700468FD
:1004400025689D432560046825681E03B543256023
:10045000046825680D432560006801681943016040
:10046000202050700020107070BD022070BD70B54B
:10047000024640325378202B1BD11378012B18D021
:10048000012414702423537003681D68A5431D6064
:1004900005682B680F263602B34309021943296009
:1004A0000068016821430160202050700020107016
:1004B00070BD022070BD000070B5040006D0254656
:1004C000403568780026002802D005E0012070BD84
:1004D0002E70204600F04AF82420687020680168D9
:1004E0004908490001600F216068090688432168B6
:1004F000086121688A680120C00382438A60E1683C
:100500000129A16808D0212292021143226891603A
:10051000E168022902D005E00143F7E701212268E2
:10052000C902516021684A680F4B1A434A6021682A
:10053000CA688243CA60616920690843A1690902E7
:1005400008432168C860216AE0690843216808609F
:1005500020680168012211430160666420206870F0
:100560002663AE70002070BD0080000210B586B01A
:10057000044614216846FFF761FE1249206888424C
:100580001DD1114C616901208004014361616169E1
:1005900001400591C020009012200121019003200C
:1005A00002910491039069460848FFF777FEE169DC
:1005B000012040050143E161E1690140059106B078
:1005C00010BD00000054004000100240000400482C
:1005D0000248816802788918816070470C00002009
:1005E00010B506480168102211430160002000F098
:1005F00007F800F041F8002010BD00000020024084
:1006000000B5014687B00022102000F059F81020F4
:1006100000F04AF81348C26902210A43C261C06966
:100620000840059004A9684600F046F900F060F91A
:100630000D49FFF793FD0E490C4A0A600D4A401E12
:10064000CA604860002008618860084600F066FBC8
:10065000002802D0012007B000BD054800F084FB4F
:10066000F9E700000010024040420F000004004083
:100670005C010020E703000008B50A4881690122F7
:1006800011438161816911400091C26901040A43EB
:10069000C261C0690022084003210090481F00F099
:1006A0000FF808BD00100240002805DBC106C90E86
:1006B00001208840014908607047000000E100E027
:1006C00010B500F0AFFF10BDF8B505460068354C19
:1006D000C00352D5E0690026C00007D4E1692004B8
:1006E0000143E161E1690140012600912E48016862
:1006F000C90510D40168821511430160FFF78CFE13
:10070000074604E0FFF788FEC01B642824D826486B
:100710000068C005F6D5206A03273F02384020D084
:100720006968394081421CD0206A226AB84301219D
:1007300009040A432262226A8A4322622062C007B5
:100740000FD0FFF769FE009008E0FFF765FE009903
:10075000411A1648814201D90320F8BD206A80075A
:10076000F3D5206A6968B84308432062002E04D09C
:10077000E169012000078143E1612878C00705D0C5
:10078000206BA968800880000843206328788006D1
:1007900005D5206B10218843E968084320630020B9
:1007A000F8BD0000001002400070004088130000F7
:1007B000F8B50F46060059D03A4D2868C007C00F5B
:1007C000B84209D2286840084000384328602868A9
:1007D000C007C00FB84249D13068334C81070CD5EF
:1007E000400704D56068072109020843606060681B
:1007F000F0218843B168084360603078C00726D094
:10080000706801280ED0216802280ED089070029BF
:100810002CDA61688908890001436160FFF7FCFDFB
:1008200000900DE021688903F1E78901EFE7FFF708
:10083000F3FD0099411A1D48814201D90320F8BDFA
:1008400060680C210840716889008842EFD12868EF
:10085000C007C00FB8420BD9286840084000384391
:1008600028602868C007C00FB84201D00120F8BD39
:100870003078400706D56068072109028843F1688F
:100880000843606000F044F86168094A0906090FEE
:10089000515CC840074908600020FFF7B1FE002006
:1008A000F8BD000000200240001002408813000044
:1008B000B02A00081800002010B5072202600A4A7A
:1008C00053689B079B0F43605368F0242340836069
:1008D000526807231B021A40C26004480068C00720
:1008E000C00F086010BD0000001002400020024050
:1008F0000448054900684968044A4905490F515CA4
:10090000C84070471800002000100240C02A0008AC
:1009100010B514A30FCB88B06C460FC415A30FCB32
:100920000FC4184A51680C200B4603401648042B8C
:1009300016D0082B14D18B021B0F6C46E45CD26AD4
:1009400004AB1207120F9A5CC90305D500231946A0
:10095000FFF71AFC214601E020460C4900F03DFE5D
:1009600008B010BD02030405060708090A0B0C0DA8
:100970000E0F10100102030405060708090A0B0CEC
:100980000D0E0F100010024000127A0000093D0009
:10099000FEB5040070D02078DC4DC0074AD06868EE
:1009A0000007800F012807D068680007800F022821
:1009B00009D16868C00306D5286880033AD5606805
:1009C0000028E7D036E06168012914D001208004B6
:1009D000002901D0052914D02A68012109048A437D
:1009E0002A602968814329606068002816D0FFF7D3
:1009F00013FD06460EE0286801210904084328601B
:100A0000F2E7296801432960F5E7FFF705FD801B40
:100A100064286ED828688003F7D50BE0FFF7FCFC4C
:100A2000064604E0FFF7F8FC801B6428F1D828682C
:100A30008003F7D420780126800700283CDA686814
:100A40000007800F07D068680007800F022809D1CF
:100A50006868C00306D42868800716D5E0680128B6
:100A60000AD112E0E0680028286816D030432860D8
:100A7000FFF7D2FC074605E043E1FFF7CDFCC01BC2
:100A80000228C6D828688007F7D52868F821884347
:100A90002169C900084328600EE040084000286032
:100AA000FFF7BAFC074604E0FFF7B6FCC01B0228BC
:100AB000AFD828688007F7D42078000722D5E069EE
:100AC0000028686A0ED030436862FFF7A5FC07462D
:100AD00004E0FFF7A1FCC01B02289AD8686A8007CF
:100AE000F7D50FE0400840006862FFF795FC074625
:100AF00005E09DE0FFF790FCC01B022889D8686ADA
:100B00008007F7D4207804274007002860DA002007
:100B10000190E869C00008D4E969B8060143E961B9
:100B2000E969014001200091019079480168C905F7
:100B300011D40168821511430160FFF76DFC00902C
:100B400005E0FFF769FC0099401A642870D87048E6
:100B50000068C005F5D5A06801280AD0002801D09A
:100B6000052810D0286A400840002862286AB84347
:100B700001E0286A30432862A068002812D0FFF7FD
:100B80004BFC00900AE0286A38432862F1E7FFF73F
:100B900043FC0099411A5F48814249D8286A80077E
:100BA000F5D50DE0FFF738FC009006E0FFF734FCC8
:100BB0000099411A574881423AD8286A8007F5D4EB
:100BC0000198002804D0E969012000078143E96108
:100BD0002078C00635D5606901280CD0401D686BAF
:100BE00023D038436863686B400840006863FFF7B0
:100BF00013FC064622E0686B38436863686B304339
:100C00006863FFF709FC064604E0FFF705FC801B5C
:100C100002285BD8686B8007F7D5686BF82188439A
:100C2000A169C900084368630BE0B8436863F4E74F
:100C30004CE0FFF7F1FB801B022847D8686B800768
:100C4000F7D4206A00285ED069680907890F022955
:100C500042D0012636060228286805D0B043286015
:100C6000FFF7DAFB044633E0B0432860FFF7D4FB1C
:100C7000074604E0FFF7D0FBC01B022826D82868EF
:100C80008001F7D4E86AE16A000900010843E862DC
:100C9000616AA06A084369683D22120491430843CF
:100CA0006860286830432860FFF7B6FB044604E01C
:100CB000FFF7B2FB001B022808D828688001F7D58F
:100CC00021E0FFF7A9FB001B022801D90320FEBD8C
:100CD00028688001F5D416E00128F8D06868E96A30
:100CE00001221204636A02409A420AD10907E26AA9
:100CF000090F914205D10F2189040840A16A884259
:100D000001D00120FEBD0020FEBD00000010024009
:100D100000700040881300007047704770B50400F1
:100D200005D025462035687F002802D006E0012046
:100D300070BD00202877204600F014F80220687764
:100D4000211D206800F084FA01204034A071A877AA
:100D5000E87720706070A070E07020716071687733
:100D6000002070BD70470000014620314A7F012AF3
:100D700001D00120704702224A770268D36801211E
:100D80000B43D3600068094A904205D0084A90425C
:100D900002D0084A904204D182685207520F062AB4
:100DA00002D002680A43026000207047002C014014
:100DB0000004004000400140704770B504460068E0
:100DC00001690025C9438907002915DBC168C943AA
:100DD000890711D4E91E016101202077206880690C
:100DE0008007204602D0FFF7E7FF04E000F096F806
:100DF000204600F094F8257720680169C943490727
:100E000017D4C168C943490713D40421C9430161F8
:100E100002202077206880698005800F204602D05C
:100E2000FFF7CAFF04E000F079F8204600F077F8F9
:100E3000257720680169C943090716D4C168C943E9
:100E4000090712D40821C9430161042020772068D2
:100E5000C0698007204602D0FFF7AEFF04E000F033
:100E60005DF8204600F05BF8257720680169C943EA
:100E7000C90617D4C168C943C90613D41021C94390
:100E80000161082020772068C0698005800F204616
:100E900002D0FFF791FF04E000F040F8204600F098
:100EA0003EF8257720680169C943C90708D1C168A0
:100EB000C943C90704D1891E0161204600F030F8FA
:100EC00020680169C943090609D4C168C9430906F4
:100ED00005D48021C94301612046FFF71DFF20682A
:100EE0000169C943490609D4C168C943490605D403
:100EF0004021C9430161204600F01CF820680169C7
:100F0000C943890609D4C168C943890605D420218B
:100F1000C94301612046FFF700FF70BD704770476D
:100F200010B500680249884201D1FFF751FB10BD9E
:100F300000040040704710B5040003D0A06F0028E3
:100F400002D007E0012010BD002174200155204689
:100F500000F026F82420A0672068016849084900AD
:100F60000160204600F050FA0128ECD0606A0028A9
:100F700002D0204600F0B0F9206841680122D20278
:100F80009143416020688168082291438160206814
:100F90000168012211430160204600F003FA10BDF0
:100FA00010B586B0044614216846FFF747F9134987
:100FB000206888421FD112488269012189030A43AF
:100FC000826182690A4005924269C9000A4342610E
:100FD00040690840059003204002009002200190E3
:100FE000002002900320039001200490092069460C
:100FF000C006FFF753F906B010BD000000380140ED
:1010000000100240FEE7000010B50B4A00210B481B
:1010100000F09CFB0A4C084A206024320021094859
:1010200000F094FB044A606048320021064800F05A
:101030008DFBA06010BD0000442A00086D1100085F
:10104000000000207511000891110008F0B587B06C
:1010500014216846FFF7F2F81D484269012149044E
:101060000A43426142690A400592426949000A43C3
:101070004261406909260840F606059000220421D5
:101080003046FFF7C3F9134F00220C213846FFF713
:10109000BDF90420002401250090029469460195C1
:1010A00003943046FFF7FAF8022000900194694655
:1010B00002943846FFF7F2F80C200090029469463B
:1010C000019503943846FFF7E9F807B0F0BD00003A
:1010D000001002400004004810B513481149016097
:1010E00012494160002181600161416181610122F9
:1010F000C161C2600162FFF7DFF9002801D0FFF78C
:10110000CBF800210848FFF78DF9002801D0FFF740
:10111000C3F800210448FFF7AAF9002801D0FFF71F
:10112000BBF810BD005400408C0000200E090020C8
:1011300010B50C480A490160E121490241600021D3
:101140008160C16001618161C1610C220162426103
:101150004162FFF7F0FE002801D0FFF79DF810BDB7
:1011600000380140D8000020FEE77047012000F061
:101170009BFAFBE7054CFF25F535012204212046AB
:10118000FFF744F9284600F08FFAF6E7000400481C
:10119000054CAF25AD00002204212046FFF736F9AB
:1011A000284600F081FAF6E70004004810B5FEF783
:1011B0009FFF044601F0D4FA002803D00120034920
:1011C000000748602046FEF797FF10BD00ED00E0E5
:1011D00010B594B030216846FFF730F800240F9422
:1011E00002200D9400901294012003900E94139409
:1011F00010200C9404901094119408946846FFF702
:10120000C7FB002801D072B6FEE707200C900D94B2
:101210000E9400210F940CA8FFF7CAFA002801D001
:1012200072B6FEE7212010901294139410A8FFF7D5
:101230004BFA002801D072B6FEE714B010BD70471B
:1012400010B50248FFF7B9FD10BD00005C01002099
:10125000F0B502681A4B1B4C984201D0A04203D152
:101260007025AA434D682A43174D184E184F9842CF
:101270000AD0A04208D0174CA04205D0A84203D003
:10128000B04201D0B84205D1144603221202944361
:10129000CA6822438024A2434C69224302608A68C0
:1012A000C2620A688262984205D0A84203D0B04266
:1012B00001D0B84201D10969016301214161F0BD4A
:1012C000002C014000040040004001400044014067
:1012D000004801400020004010B5818CC90707D0AC
:1012E00001684A6801235B049A43836A1A434A608F
:1012F000818C890707D501684A6801231B049A433A
:10130000C36A1A434A60818C490707D501684A6855
:1013100001239B049A43036B1A434A60818C09079B
:1013200007D501684A680123DB039A43436B1A43DC
:101330004A60818CC90607D50268916801231B03A6
:101340009943836B19439160818C890607D50168A5
:101350008A6801235B039A43C36B1A438A60818CBA
:10136000490612D503685A6801210905046C8A43AD
:1013700022435A60026C8A4207D1026851680323F3
:101380005B059943436C19435160818C090607D56D
:1013900001684A680123DB04806C9A4302434A6077
:1013A00010BD0000F8B50446002680300660FFF747
:1013B00033F8054620680068124F000709D501215F
:1013C0002B46002249052046009700F0B7F8002878
:1013D0000DD12068006840070BD501212B46002263
:1013E00089052046009700F0A9F8002801D00320C5
:1013F000F8BD2020A067E0672666603426750020CF
:10140000F8BD0000FFFFFF0170B504468068216948
:10141000E2690843616900251143226808431168A5
:10142000404B1940014311602168486803221203B0
:101430009043E26810434860A169206A084321682C
:101440008A680B231B029A4302438A60364920684C
:10145000884210D13548006B8007800F0ED00128DC
:1014600005D0022805D003280AD1022109E0042171
:1014700007E0082105E02E49884201D1002100E063
:1014800010210120E369C0032A4A2B4E834223D155
:10149000002906D0022907D0042907D0082937D10E
:1014A00008E0FFF725FA03E0104603E0FFF730FA03
:1014B000002831D0616840004A088018FEF74EFECF
:1014C00080B201461039B14222D81B49491C014063
:1014D0000007400F08431DE0002906D0022907D06D
:1014E000042907D0082913D108E0FFF701FA03E027
:1014F000104603E0FFF70CFA00280DD061684A0897
:101500001018FEF72BFE80B201461039B14201D906
:10151000012501E02168C86000206066A0662846B9
:1015200070BD0000F369FFFF003801400010024069
:101530000044004000127A00EFFF0000FFB581B0C8
:1015400005460F46044660350A9E39E0701C37D0C8
:10155000FEF762FF0499401AB04222D8002E20D034
:101560002068016849072BD5C069C043000527D40E
:1015700001202168C002086220680168FF22A132B0
:1015800091430160206881684908490081602020FA
:10159000A067E0678034206000202875032005B034
:1015A000F0BD20680168FF22A132914301602068EC
:1015B00081684908490081602020A067E067EBE767
:1015C0002068C1693846884305D0002103988142CC
:1015D000BCD00020E3E70121F8E7F8B5040C8BB29A
:1015E000264682B25E430D0C1046370C5843360433
:1015F00080190021794116466E43370C3604801954
:10160000794126466E438919F8BD30B47446641E8C
:101610002578641CAB4200D21D46635D5B00E31875
:1016200030BC18478307FF22DB0E9A408907090E5A
:101630009940002808DB830809489B001B1818689C
:1016400090430843186070470007000F083883086C
:1016500004489B001B18D86990430843D861704721
:1016600000E400E000ED00E002E008C8121F08C13D
:10167000002AFAD170477047002001E001C1121F13
:10168000002AFBD17047FEF7ABFFFFF7A1FDFFF784
:10169000DDFCFFF721FDFFF74BFD00F01FF8FFF722
:1016A000B3FC00F035F8FEE710B5EFF30581002933
:1016B0000ED1EFF31081002903D0074909680229F0
:1016C00006D00024002801D000F030FD204610BDD7
:1016D0000524E443FAE700006C000020EFF30580E6
:1016E00000280CD1EFF31081084A0029106801D0BE
:1016F000022804D0002805D00020C04370470520F0
:10170000C043704701201060002070476C0000202B
:1017100010B5EFF3058000280CD1EFF310810A4AD1
:101720000029106801D0022804D0012805D000202B
:10173000C04310BD0520C04310BD0220106000F062
:1017400045FD002010BD00006C000020F0B585B004
:101750008C460023EFF30581039300294AD1EFF370
:101760001081002903D024490968022942D00028A9
:1017700040D000236C4680251821237404AC002A35
:101780002CD01368002B00D01C469369002B03D08B
:1017900019465B1E382B02D21379DB0702D00020DA
:1017A00005B0F0BD5669002E00D0B5089768D36823
:1017B000002F0ED05C2B1DD31269002A1AD0002EE8
:1017C00018D06E4686C663462A46214600F08FFF33
:1017D0000FE0002B0ED11269002A0BD103AA01924F
:1017E0000091AAB26346214600F058FF012801D0BB
:1017F000002003900398D3E76C000020F8B5134C49
:101800000F46666905462068001D00F0B7FB681C9E
:1018100007D1002F05D021680D48091D00F0FEFBFF
:10182000F8BD2068751945602168B54204D2A068EA
:10183000091D00F0DBFBF8BD6068091D00F0D6FB58
:10184000206B8542F7D22563F8BD00001C00002004
:1018500094060020F8B5054600F0ECFB294C206901
:10186000401C20612068284F002803D0E069002830
:1018700025D02AE025602069012826D100261420E1
:101880007043C01900F0A4FB761C382EF7D31F4814
:1018900000F09EFB1D48143000F09AFB1B482830D6
:1018A00000F096FB19483C3000F092FB174850308E
:1018B00000F08EFB154860601430A06005E02068E1
:1018C000E96AC06A884200D82560E06A401CE0628C
:1018D0006864E86AA169884200D9A061142148437C
:1018E000C019291D00F09AFB00F0B0FBE069002848
:1018F00006D02068E96AC06A884201D200F0D6FBAF
:10190000F8BD00001C000020E40100204406002077
:1019100038B500F08FFB114CA06800281AD1104890
:1019200000F056FB0E48143000F052FB0C482060CB
:1019300014300B4B6060002028331A460090503260
:1019400010210A2000F0D2FCA060002802D005A1DE
:1019500000F0B8FB00F07AFB38BD00005800002012
:10196000A8060020546D72510000000010B5026CF2
:101970000C46002A0CD0C1688B18C36041688B42AA
:1019800001D2194601E00168C1602046FEF73DFC26
:1019900010BDF8B5856B174604460026026C002A78
:1019A00011D0002F19D0E068FEF72FFCE168206C01
:1019B000091AE1602268914202D26168081AE06067
:1019C000022F17D019E02068002816D1606800F0B7
:1019D00025FF0646002060600FE0A068FEF715FCBA
:1019E000216CA0684018A0606168884205D3206817
:1019F000A06002E0002D00D06D1E6D1CA563304676
:101A0000F8BD10B504464030407E002805D00128BE
:101A100006D0022807D072B6FEE7206B00F024FB48
:101A2000204600F021FB10BD03210E488902420729
:101A300005D0C01DC0080B4AC000821A891A0A4A84
:101A40000023411809C20839C908C900183A1160B1
:101A50004B600B600B1A0AC093600120C0075360F3
:101A6000D0607047780E0020800000200F4E104C90
:101A7000104F11E000F0DEFAF068C568281D00F094
:101A80007DFA2069401E2061E068401EE06000F0A1
:101A9000DDFA2846FFF7B5FFE0680028EAD138688C
:101AA0000128F9D900F002FBF6E7000080060020CB
:101AB0001C000020E401002070B5049C1D46002994
:101AC00009D022602164E0630121204600F02EFC51
:101AD0004034257370BD2460F4E7FFB581B09700F2
:101AE0000C9C0E460A9DA5223946206BFEF79FFBF3
:101AF000206B3F1FC019C708FF00780701D072B6DE
:101B0000FEE72218315C20321175315C002902D0C9
:101B1000401C1028F5D32046403000260090C670A7
:101B2000382D00D33725E5622665201DE56400F0D9
:101B30005AFA2046183000F056FA24613820401B2B
:101B40006462A0616665009806763846049A019939
:101B500000F004FA20600B98002800D0046005B063
:101B6000F0BD000030B5114900E011460A6882421C
:101B7000FBD34B685C18844203D140681818486056
:101B8000084643681C18944209D1084C103C24684C
:101B9000A24209D052689A1842600A68126802602C
:101BA000814200D0086030BD0460F9E78000002069
:101BB00070B5002441600B4D0061914206D8D11AE6
:101BC0008269914206D2011D686807E09A4203D2F9
:101BD000994201D3012403E0011D286800F006FAB0
:101BE000204670BD5800002010B5044600F022FACF
:101BF000A06B002804D0002400F028FA204610BD75
:101C00000124F9E730B589B02C4D4EE00498002846
:101C100006DA059A0799069890470498002844DB4D
:101C2000069C6069002802D0201D00F0A7F902A8D8
:101C300000F0A4F8024604980300FFF7E6FC0A0649
:101C4000060636232F06063623360598A169034675
:101C500041182046FFF7ACFF002826D0616A2046D5
:101C60008847E069012820D1002000900598A169EB
:101C7000002342181946204600F0BAFE002814D16D
:101C800072B6FEE70598A061002805D081181346BA
:101C90002046FFF78DFF08E072B6FEE72C20005DBE
:101CA000002802D1204600F0DFF9002204A9A8682C
:101CB00000F044FC0028A9D109B030BD5800002034
:101CC000FEB50F46054600F0B5FA01A800F056F83B
:101CD00004460198002802D000F006FEFEBD1E4E0C
:101CE000002F10D070680068002833D00027291B0F
:101CF0003A46B06800F0F8F900F0F6FD0028EDD1A2
:101D000000F0D4F9FEBDA542F1D800F0EDFD306839
:101D10002746C068C468201D00F030F9E06901283A
:101D200012D1A0692B4641193A462046FFF740FFE1
:101D3000002809D000200346014600902A4620468C
:101D400000F056FE002803D0616A20468847FEBD99
:101D500072B6FEE70127CAE758000020064841682E
:101D60000968002905D04168C968C96849680163E4
:101D700070470021C943FAE71C00002070B50546F2
:101D800000F0E8FC064E04463069844203D200F0BD
:101D900009F8012000E0002028602046346170BD71
:101DA00058000020F8B5164D20E0C068C4680668E9
:101DB000201D00F0E3F8616A20468847E0690128A9
:101DC00014D1A0698019B04206D924616060211D38
:101DD000286800F00BF909E0002003460146009056
:101DE0003246204600F004FE002807D0286801682B
:101DF0000029DAD1696829606860F8BD72B6FEE72B
:101E00005800002003480068401C72B600D0FEE76E
:101E1000FEE7000088000020074C206801680029C8
:101E200007D0C06800210068FFF74AFFFFF7EAFE0D
:101E3000F3E701210020F7E758000020F8B5044639
:101E400000F0F8F8254640350526AE5727462437DA
:101E50000BE0606A00280AD0384600F013FD002825
:101E600001D000F083F9761E76B2002EF1DC002757
:101E7000FF436F7100F0EAF800F0DCF80426AE577B
:101E80002046103000900BE0206900280AD000980E
:101E900000F0F8FC002801D000F068F9761E76B258
:101EA000002EF1DC2F7100F0D1F8F8BDF8B5054631
:101EB000002700F0BFF9284E3068002801D1FFF755
:101EC000B3FDF06805423FD1002D3DD008356807CD
:101ED00008D06807400F0821081A4519680701D083
:101EE00072B6FEE7002D2FD0706885422CD81A48B4
:101EF000103001460C6801E020460C466168A9429A
:101F000002D221680029F7D131688C421CD00768C1
:101F10002168016060680837411B102908D96019E1
:101F2000420701D072B6FEE741606560FFF71AFE16
:101F300061687068401A7060B268904200D2B06008
:101F4000F0680143002003C400F0CEFC780701D004
:101F500072B6FEE73846F8BD7000002010B50124C7
:101F6000031F24061C601B1F1960191F024B0B6006
:101F7000143940380A6010BD051E000843688268A5
:101F800001699A60836842685A604A68824201D156
:101F900082684A60002202610868401E0860086882
:101FA00070470000034B036018465C3008608020D7
:101FB00010607047C0070020044B036018465C3077
:101FC0000860FF2001301060704700001C0A0020EC
:101FD0000146083100224160D243C1608260016144
:101FE00000210160704700210161704730B50B6826
:101FF0005A1C02D00246083202E0026904E022467E
:10200000546825689D42FAD953684B6099608A608C
:10201000516008610168491C016030BD42684A6036
:1020200093688B6093685960916008610168491CEE
:102030000160704772B604480168491C0160BFF333
:102040004F8FBFF36F8F70478800002005490868E5
:10205000002804D0401E086000D162B6704772B6F6
:10206000FEE700008800002070B500281AD0044662
:102070000D4D083C6068E968084201D172B6FEE780
:102080002268002A01D072B6FEE78843606000F043
:10209000D1F860686968401868602046FFF762FD03
:1020A00000F022FC70BD00007000002001200449F7
:1020B00000074860BFF34F8FBFF36F8F704700007A
:1020C00000ED00E010B5074B0022D4001C59002C95
:1020D00003D0521C082AF8D310BDD2009950D11851
:1020E000486010BDA401002070B515460E46044698
:1020F000FFF7A0FF20464030042282560021521CE8
:1021000000D1017105228256521C00D14171FFF7A6
:102110009DFFA06B002805D120462A463146243079
:1021200000F03CF82046FFF789FE70BD10B50200B4
:102130000FD00948806B002801D072B6FEE700F08E
:1021400079F800211046FFF759FB00F0CDFB00287D
:1021500001D1FFF7ABFF10BD1C00002002498A6AC5
:1021600002604969416070471C000020014901205C
:10217000486270471C00002010B50C46002809D0AA
:10218000054909681831FFF731FF01212046FFF7A3
:1021900035FB10BD72B6FEE71C00002070B514467A
:1021A0000D4600280DD0084909681831FFF736FFA1
:1021B000002C01D00025ED4321462846FFF71EFBE9
:1021C00070BD72B6FEE700001C00002030B587B07D
:1021D0000024039405AA04A903A80494FFF7E2FECF
:1021E0000499039800940191029000230DA10F48D7
:1021F000059A00F07CFA0E4D0028686310D000F0BC
:10220000CBFB012803D0401C0AD172B6FEE772B6A0
:102210000020C04328630120E8616C6100F03EF8B3
:1022200007B030BD49444C45000000006D1A00085D
:102230001C0000200248816B491C8163704700002C
:102240001C00002010B51348816B002902D0012129
:10225000416210BD0021416281690F4A02E00029FC
:1022600015D0491E14234B43D358002BF7D0142309
:102270004B439A18536814465B6808345360A34272
:1022800001D15B685360DA680260816110BD72B68B
:10229000FEE700001C000020E401002070B50F489C
:1022A000016AFF22120411430162016A1202114302
:1022B00001620B4C00252561A5610A487D21C900FA
:1022C0000068FDF74BFF401E606107202061064853
:1022D0000560FDF7F9FE002070BD000000ED00E094
:1022E00000E000E01800002088000020F8B5069DFE
:1022F000002806D0002B06D0002A08D0002904D0E0
:1023000009E072B6FEE772B6FEE772B6FEE7002994
:1023100001D072B6FEE750241C46012640339E7160
:102320002B460094FFF7C8FB2046F8BD70B50D465C
:10233000040025D0FFF77EFE216CE06B4843216846
:10234000411861600021A1632168A160E06B216CEC
:10235000401E484321684118E1600021C9432046DE
:102360004030017141713038002D0BD0FFF730FE45
:1023700020462430FFF72CFEFFF768FE012070BDD9
:1023800072B6FEE721690029F6D000F07BFA00283A
:10239000F2D0FFF78BFEEFE7FFB5002683B01D46B6
:1023A000040003D00498002802D006E072B6FEE7CD
:1023B000206C002801D072B6FEE7022D04D1E06B3C
:1023C000012801D072B6FEE700F0B4F9002700281A
:1023D00004D10598002801D072B6FEE7FFF72AFE67
:1023E000A06BE16B884207D3022D05D00598002829
:1023F00017D0002E18D01BE02A4620460499FFF77C
:10240000C8FA616A002903D02046243000F03AFA65
:10241000002801D0FFF74AFEFFF718FE012007B0A1
:10242000F0BDFFF713FE22E06846FFF797FE012696
:10243000FFF70CFEFFF7FEFEFFF7FCFD20464030E5
:1024400004214156491C00D1077105214156491C00
:1024500000D14771FFF7FAFD05A9684600F0F0F8D2
:10246000002806D02046FFF7E9FC00F03DFA0020E6
:10247000D5E7FFF7DFFDA06BE16B884210D1FFF7D6
:10248000E5FD204610300599FFF776FE2046FFF760
:10249000D5FC00F029FA0028A0D1FFF707FE9DE740
:1024A000FFF7D4FD2046FFF7C9FC00F01DFA95E7C1
:1024B000FFB581B01E46040003D00298002802D068
:1024C00006E072B6FEE7206C002801D072B6FEE787
:1024D000022E04D1E06B012801D072B6FEE7FDF7B1
:1024E00007FE0090A06BE16B884208D3022E06D055
:1024F00000240098FDF700FE204605B0F0BD204600
:102500004030052545570746324620460299FFF7D9
:1025100040FA681C03D06D1C7D710124E9E7606AF4
:102520000028FAD02046243000F0ACF90028F4D07E
:1025300003980028F1D001210160EEE7F7B50025EE
:1025400082B0040003D00398002802D006E072B6DF
:10255000FEE7206C002801D072B6FEE700F0EAF832
:102560000026002804D10498002801D072B6FEE7A6
:10257000FFF760FDA76B002F15D020460399FFF7EA
:10258000F5F97F1EA7632069002807D02046103088
:1025900000F078F9002801D0FFF788FDFFF756FD1D
:1025A000012005B0F0BD0498002802D0002D03D012
:1025B00006E0FFF74BFD27E06846FFF7CFFD01255A
:1025C000FFF744FDFFF736FEFFF734FD20464030AD
:1025D00004214156491C00D1067105214156491C70
:1025E00000D14671FFF732FD04A9684600F028F8D3
:1025F000002820460AD0FFF721FC00F075F920469C
:10260000FFF7F2FA0028B3D00020CAE7FFF7ECFA90
:1026100000280ED0204624300499FFF7ADFD204657
:10262000FFF70CFC00F060F90028A1D1FFF73EFD98
:102630009EE72046FFF702FC00F056F998E70000FD
:10264000F8B50C46050012D0002C12D0FFF7F2FCB2
:10265000114B5A696E682068911B471C0BD02F687C
:102660009B6A9F420CD096420AD8012404E072B6BD
:10267000FEE772B6FEE70024FFF7E8FC2046F8BD4F
:10268000884205D9401A20602846FFF767FDF2E727
:1026900000202060E9E700001C000020FFB585B0A5
:1026A000164690000F9FFFF701FC05001CD05C2030
:1026B000FFF7FCFB040014D00020592125630855C6
:1026C0000E9900910390019702943246089B069957
:1026D0000598FFF702FA2046FFF7BCF8012009B081
:1026E000F0BD2846FFF7C0FC0020C043F7E7F0B577
:1026F00085B007460B9D0C9C0A98002D15D0002C28
:1027000015D05C262563022559263555002504AED3
:1027100000900196039502943846FFF7DEF92046B3
:10272000FFF798F8049805B0F0BD72B6FEE772B6F0
:10273000FEE700000648C169002904D0806B00282C
:1027400003D000207047012070470220704700002E
:102750001C00002001484069704700001C00002058
:10276000F8B52C4C0027A06B002808D0206A401C2C
:102770002062606A002800D001273846F8BD6669EB
:10278000761C66610ED160680068002801D072B6C0
:10279000FEE76068A1686160A060A06A401CA0625A
:1027A000FFF7DCFA206B86420AD3606800680028D5
:1027B00010D06068C068C568686886420DD2206322
:1027C00020681421C06A4843134908580128D0D909
:1027D0000127CEE70020C043F1E7281DFFF7CEFB1D
:1027E000A86A002803D028461830FFF7C7FBE86A1C
:1027F000A169884200D9A0611421484306494018C4
:10280000291DFFF70BFCE86A2168C96A8842CCD30E
:102810000127CAE71C000020E401002070B5002158
:102820000446002828D0154D2868844201D072B68D
:10283000FEE7206D002808D0401E2065E36CE26AA8
:102840009A4219D0002802D016E072B6FEE7201D89
:10285000FFF794FBE06C3821E062081AA061E06A9F
:10286000A969884200D9A861142148430449401845
:10287000211DFFF7D3FB0121084670BD1C0000207D
:10288000E401002070B5C068C468002C0BD020465D
:1028900018300646FFF772FB104DA86B002804D0D5
:1028A00031460F480EE072B6FEE7201DFFF766FBCB
:1028B000E06AA969884200D9A861142148430949FE
:1028C0004018211DFFF7AAFBE06A2968C96A8842FF
:1028D00002D90120686270BD002070BD1C0000207C
:1028E0006C060020E4010020F8B5284C0025A06B00
:1028F0002E46002808D0FFF79DFBA06B401EA0636A
:10290000A06B002802D03CE072B6FEE72169204FA0
:1029100000291CD135E0F868C56828461830FFF753
:102920002DFB281DFFF72AFBE86AA169884200D920
:10293000A0611421484317494018291DFFF76EFB79
:10294000E86A2168C96A884201D301206062386858
:102950000028E0D1002D01D0FFF700FA256A002DF4
:1029600009D00127FFF7FCFE002800D067626D1E2A
:10297000F8D100202062606A002802D00126FFF70B
:1029800095FBFFF763FB3046F8BD00001C000020FC
:102990006C060020E401002010B586B0FEF7B8FFF9
:1029A0000F4CA068002819D000200390049005AABD
:1029B00004A903A8FFF700FB0220039A04990090E2
:1029C00002920191002307A10848059AFFF78FFEA4
:1029D000E060002802D0012006B010BD72B6FEE70C
:1029E00058000020546D722053766300191E0008B1
:1029F000F0B51D4685B0034600200A9E002B13D07B
:102A00000F4CA768002F0DD068460EC0062910DABB
:102A1000FFF790FE022809D000231A466946A068F5
:102A2000FFF7BAFC05B0F0BD72B6FEE700233246F0
:102A3000F4E700232A4669463846FFF739FDF1E7F7
:102A400058000020D02A000800000000000000000C
:102A5000000000000000000000020000180000005C
:102A60000000000000000000DC2A00080000000058
:102A70000000000000000000000000000002000054
:102A8000080000000000000000000000C82A000844
:102A90000000000000000000000000000000000036
:102AA000000200000800000000000000000000001C
:102AB00000000000000000000102030406070809EE
:102AC00000000000010203044C45444F666600000C
:102AD00064656661756C745461736B004C45444F5A
:102AE0006E000000042B0008000000208C00000095
:102AF00068160008902B00088C000020EC1D0000D8
:102B0000781600080000000000000000000000002F
:102B100001000000040000000000000000127A0024
:102B200000000000000000000000000000000000A5
:102B30000000000000000000000000000000000095
:102B40000000000000000000000000000000000085
:102B50000000000000000000000000000000000075
:102B60000000000000000000000000000000000065
:102B70000000000000000000000000000000000055
:102B8000000000000000000000000000AAAAAAAA9D
:04000005080000B53A
:00000001FF
