:020000040800F2
:10000000D017002041010008392300083F1B0008D9
:1000100000000000000000000000000000000000E0
:100020000000000000000000000000003B2300086A
:100030000000000000000000FF000008A5230008E9
:10004000530100080000000053010008530100089C
:100050005301000853010008530100085301000830
:10006000000000005301000853010008530100087C
:10007000530100085301000853010008000000006C
:100080003924000853010008000000005301000853
:1000900053010008530100085301000853010008F0
:1000A00053010008530100085301000853010008E0
:1000B000530100080348854600F0B0FB00480047A4
:1000C00091310008D0170020084B196808682030CB
:1000D00080F30988022080F31488BFF36F8F3FBC40
:1000E000AE4608BC04BC62B61847000034000020CD
:1000F000EFF3108072B6704780F310887047EFF30B
:1001000009800E4B1A6820381060F0C044464D46F6
:1001100056465F46F0C008B572B603F0E1FD62B620
:100120000CBC116808681030F0C8A046A946B24659
:10013000BB4680F309882038F0C8184734000020F7
:100140000448804704480047FEE7FEE7FEE7FEE775
:10015000FEE7FEE737240008B500000830B50B467F
:10016000014600202022012409E00D46D5409D4291
:1001700005D31D469540491B254695404019154617
:10018000521E002DF1DC30BDF0B51FB40646002034
:1001900082B005464024019100901BE0019922465F
:1001A0000F46304600F020F8049A059B801A9941CA
:1001B00010D310461946224600F058F9361A8F41DE
:1001C0000197224601200021009F00F04FF93818C6
:1001D0004D4100902046641E0028DFDC019B009802
:1001E0002946324607B0F0BD10B5202A04DB084688
:1001F000203AD040002110BD0B46D340D0402024EF
:10020000A21A91400843194610BD03460B439B07B1
:1002100003D009E008C9121F08C0042AFAD203E07B
:100220000B780370401C491C521EF9D27047D2B2A1
:1002300001E00270401C491EFBD270470022F6E725
:1002400010B513460A4604461946FFF7F0FF20464C
:1002500010BD421C0178401C0029FBD1801A704758
:10026000F0B507460846584087B0C00F04904800D4
:100270000E46590040084908BC1A884105D2384644
:1002800031461E4617460B460246580040081043AA
:100290004CD0300D039040055900400D490D05909C
:1002A000401A0290402872DA18030121000B090558
:1002B0000843019004980092002805D00199524209
:1002C0000020884100920190029840210A1A019969
:1002D000009800F0CBF805460C466B4607CB00F0C3
:1002E000D5F8C0197141039A0E0D0023D717564057
:1002F0001A467A40164344D0049A002A2DD0029A16
:10030000012A039A15DC1205C01A9141012636050F
:10031000001C7141D20F059ED207009301920296F4
:100320002A46234600F013F907B0F0BD384631469F
:10033000FAE71605224A0F46B218C01AB741012142
:100340000905001C4F4100187F41114618187941DA
:10035000E20F10436D19644113E0E2076D08154385
:100360006408C2071443039A01261205C01A91417A
:100370003605001C7141CE07400830434908C018BB
:1003800051412A46234600F0D5F8CDE7FFE704980F
:1003900001224000C117121A00238B4104983146F4
:1003A000C417381AA141EEE730B40124E4076340D2
:1003B00030BC55E730B40124E407614030BC4FE75E
:1003C0000000E0FF70B54B005B0803430BD04B000F
:1003D0005C0D002633466542B341D417AD1AA341E4
:1003E00002DB0020014670BD12053018514170BD7E
:1003F0000EB5C217C10F5040CA0740180021054B67
:100400000293019200910A460B4600F0A0F803B057
:1004100000BD0000330400000EB505490291002123
:1004200000910A460B46019100F091F803B000BD1F
:1004300033040000CB0FDB07490010B54908024622
:100440000A4307D00A0D07240903E401090B121B14
:10045000002A01DC002010BDC900440F0C43C1007C
:10046000E018D205801800F024F810BD10B5202A3D
:1004700004DB0146203A9140002010BD914020232A
:100480009C1A0346E3401943904010BD10B5202A42
:1004900006DBCB170846203A1041C1170B4306E094
:1004A0000B461341D0402024A21A9140084319461C
:1004B00010BD002904DA401C490001D14008400069
:1004C000704770B40024050C05D11024000402D13B
:1004D000002921D01124050E01D100020834050F96
:1004E00001D10001241D850F01D18000A41C00282A
:1004F00001DB4000641C002908D020252E1B0D467E
:10050000F540A14000D001212943084301061B1BEF
:10051000000ADB1D02D5002070BC7047DB051818EF
:1005200080180029F8DA401C4900F5D170BC400859
:100530004000704710B5002B08DA0024401C6141D0
:1005400092185B411A4301D14008400010BDF0B53C
:100550001FB482B005460C0003D0084602F04EF9E5
:1005600002E002F04BF92030024600902146284676
:10057000FFF77CFF049B059A04460F46184311437E
:10058000084314D0184610431BD0009840210A1A83
:1005900018460599FFF728FE05460E46009A05996C
:1005A0000498FFF763FF084305D0012004E02046CC
:1005B000394607B0F0BD0020C11705430E432C4358
:1005C000374300990E986305401A7905E40A002222
:1005D0000C43FD0A0A3002D500200146E9E7010577
:1005E000101969410C9C0D9D00196941FFF7A2FF8C
:1005F000DFE70000F0B51FB488B00B99099800241C
:1006000048400999C00F490049080991C0070B9952
:100610000090490049080B9109990898A64608439B
:100620001CD00B990A98084318D00998012440005F
:10063000420D4800410D099824050003000B20439A
:1006400009900B980003000B20430B9050181C4995
:100650004018002201901446104605E00020014693
:100660000DB0F0BD032801DA034600E003239C46E9
:10067000C11A0AAE0AE05F0008ADED5B4F00F75B00
:100680007D430027AA187C41491C5B1E6145F2DDB1
:10069000410004AB5A522104120C0A43240C401CA2
:1006A0000828DFDB019802900099704601910090C4
:1006B000059B049A07990698FFF749FFD0E70000C9
:1006C0000DFCFFFFF0B50C465C4085B0E40FE4077D
:1006D00003944C00002664085900944649080246D9
:1006E0000296224321D062460A431ED06200570D73
:1006F0004A000E032303550D012402462C4924050C
:10070000781B1B0B360B4018234326436146009091
:100710001C46501AB44103D30098401C009002E0DC
:10072000921800985B41002803DA0020014605B0CA
:10073000F0BD0020012109050746864611E0644608
:100740001D46141BB54106D36546521BB341744682
:1007500007430C43A646CD07400849082843921892
:100760005B4105460D43EAD11046184313D060465D
:10077000194650407140084306D06046101AB341F4
:1007800006D20122002306E000220123DB0702E05B
:100790000122D2435310009874460105381C614170
:1007A000029C039D00196941FFF7C4FEBFE70000EA
:1007B000FD0300004A0009030123090B1B0519432F
:1007C0000A4B10B5520D9A4202DA0020014610BDC4
:1007D000064B34339A4203DC9A1AFFF705FD10BD2D
:1007E000034BD218FFF742FE10BD0000FF030000CC
:1007F000CDFBFFFF10B5002904DB0124E4074042D4
:100800008C412146002B04DB1C460123DB075242AE
:10081000A341994200D1904210BD0000064C012531
:10082000064E05E0E36807CC2B430C3C9847103498
:10083000B442F7D3FFF742FC80450008A04500080A
:1008400072B6FEE7FCB500230124A1E027462A4644
:100850009F403A4073D04D68012D05D0022D03D042
:10086000112D01D0122D16D185680326AC465D00EE
:10087000AE46AE406546B543AC46CE687546AE4022
:1008800065462E43866046680D79BE43ED06ED0F42
:100890009D4035434560C6685F000325BD40AE46B8
:1008A000AE4335468E68BE402E43C6604E68022E6B
:1008B00001D0122E14D1DE08B60036180196366A21
:1008C0005D07B446EE0E0F25B54000966646AE4372
:1008D000B4460D69009EB54066462E43019D2E62CA
:1008E00006687546AE430D79AD07AD0FBD40354383
:1008F00005604D68ED004AD5284DAE692643AE61CE
:10090000AD699E08ED07ED0F0095254DB6007519F0
:10091000AC46AD689E07360F0F27B740BD43092789
:10092000FF06B84201D1002710E01E4FB84201D1A6
:1009300001270BE01C4FB84202D1022706E026E057
:100940001A4FB84201D1032700E00527B7402F43D3
:100950006546AF60164E35684F689543FF0300D576
:100960001543356075684F689543BF0300D515433F
:100970007560B5684F689543FF0200D51543B560B3
:10098000F5684F689543BF0200D51543F5605B1CC1
:100990000A681546DA4000D058E7FCBD0010024056
:1009A000000001400004004800080048000C004816
:1009B00000040140002A01D08161704781627047C4
:1009C00001488068704700002400002070B502468E
:1009D00040325378202B1CD11378012B19D00123DE
:1009E000137024245470046825689D4325600468AE
:1009F00025681E03B5432560046825680D432560FE
:100A000000680168194301602020507000201070B8
:100A100070BD022070BD70B5024640325378202B65
:100A20001BD11378012B18D0012414702423537088
:100A300003681D68A5431D6005682B680F263602F4
:100A4000B34309021943296000680168214301602A
:100A5000202050700020107070BD022070BD00007A
:100A600070B5040006D02546403568780026002879
:100A700002D005E0012070BD2E70204600F0AAFAD9
:100A800024206870206801684908490001600F212E
:100A90006068090688432168086121688A68012026
:100AA000C00382438A60E1680129A16808D021223D
:100AB0009202114322689160E168022902D005E0A8
:100AC0000143F7E701212268C902516021684A68A1
:100AD0000F4B1A434A602168CA688243CA60616941
:100AE00020690843A169090208432168C860216A96
:100AF000E069084321680860206801680122114309
:100B000001606664202068702663AE70002070BDAE
:100B100000800002FFB5054604464035687881B084
:100B2000202878D12878012875D001202870FFF777
:100B300047FF0746012200901923D103204601F008
:100B4000BDF800283CD1222068701020A870002633
:100B5000666403986062049860856663618D2F48BF
:100B6000FF2903D9FF22228500903BE0618D21857A
:100B700000903DE02046029901F08CF816E001F06B
:100B8000C5F800281CD12068406A616A0870606A54
:100B9000401C6062208D401E81B22185608D401E08
:100BA0006085608D002801D000290CD0608D0A99E5
:100BB00000283A462046E2D101F0E8F800281CD08F
:100BC000012005B0F0BD00970022802120460A9B3D
:100BD00001F074F80028F3D1608DFF2805D9FF22B9
:100BE0002285009601231B06C4E7608D20850096B0
:100BF000208D0123C2B25B06BCE721682020C861BA
:100C000021684A68064B1A404A606870AE702E70C0
:100C10000020D6E7FFE70220D3E700000024008091
:100C200000E800FEFFB5054604464035687881B00F
:100C3000202878D12878012875D001202870FFF766
:100C4000BFFE0746012200901923D103204601F080
:100C500035F800283CD1212068701020A8700026AB
:100C6000666403986062049860856663618D2F48AE
:100C7000FF2903D9FF22228500903BE0618D218569
:100C800000903DE02046029901F004F816E001F0E2
:100C9000A3F800281CD1606A216800788862606A25
:100CA000401C6062608D401E6085208D401E80B2B9
:100CB0002085618D002901D000280CD0608D0A9913
:100CC00000283A462046E2D101F060F800281CD006
:100CD000012005B0F0BD00970022802120460A9B2C
:100CE00000F0ECFF0028F3D1608DFF2805D9FF222A
:100CF0002285009601231B06C4E7608D208500969F
:100D0000208D0123C2B25B06BCE721682020C861A8
:100D100021684A68064B1A404A606870AE702E70AF
:100D20000020D6E7FFE70220D3E700000020008084
:100D300000E800FEFFB5054604464035687883B0FC
:100D4000202875D10C98002814D00D98002811D0B7
:100D5000287801286CD001202870FFF731FE074663
:100D6000012200901923D103204600F0A7FF00289C
:100D700074D103E00120400260646FE022206870BB
:100D80004020A870002666640C9860620D9860850B
:100D900066630E980090019704A90EC9204600F0E2
:100DA00019FF002801D02E7058E0618D3448FF29CA
:100DB00005D9FF22228501231B06009006E0618DE4
:100DC00021850090208D0123C2B25B062046049944
:100DD00000F060FF00970022042120460E9B00F0E7
:100DE0006DFF00283AD12068406A616A0870606A25
:100DF000401C6062208D401E81B22185608D401EA6
:100E00006085608D00281FD000291DD10097002229
:100E1000802120460E9B00F051FF00281ED1608DDE
:100E2000FF2806D9FF22228501231B06009607E032
:100E300024E0608D20850096208D0123C2B25B06E0
:100E40002046049900F026FF608D0028C2D13A4662
:100E500020460E9900F09AFF002802D0012007B02A
:100E6000F0BD20682021C16120684268054B1A400E
:100E700042606970AE702E700020F0E70220EEE74D
:100E80000024008000E800FEFFB50546044640351A
:100E9000687883B0202872D10C98002814D00D985F
:100EA000002811D02878012869D001202870FFF788
:100EB00087FD0746012200901923D103204600F048
:100EC000FDFE002871D103E00120400260646CE067
:100ED000212068704020A870002666640C9860622B
:100EE0000D98608566630E980090019704A90EC95D
:100EF000204600F09FFE002801D02E7055E0608D46
:100F0000FF2805D9FF22228501231B06009606E053
:100F1000608D20850096208D0123C2B25B0620469D
:100F2000049900F0B7FE3A4620460E9900F054FFAF
:100F300000283AD1606A216800788862606A401CA3
:100F40006062608D401E6085208D401E80B22085CD
:100F5000618D00291FD000281DD10097002280211B
:100F600020460E9B00F0AAFE00281ED1608DFF28AF
:100F700006D9FF22228501231B06009607E024E004
:100F8000608D20850096208D0123C2B25B0620462D
:100F9000049900F07FFE608D0028C4D13A462046B7
:100FA0000E9900F0F3FE002802D0012007B0F0BD3A
:100FB00020682021C16120684268054B1A404260C8
:100FC0006970AE702E700020F0E70220EEE700009E
:100FD00000E800FE10B586B0044614216846FFF70D
:100FE0002DF91249206888421DD1114C61690120F8
:100FF000800401436161616901400591C020009056
:10100000122001210190032002910491039069466E
:101010000848FFF717FCE169012040050143E16141
:10102000E1690140059106B010BD00000054004088
:1010300000100240000400480248816802788918C4
:10104000816070472400002010B506480168102216
:1010500011430160002000F007F800F041F8002083
:1010600010BD00000020024000B5014687B00022FC
:10107000102000F059F8102000F04AF81348C26917
:1010800002210A43C261C0690840059004A968466C
:1010900000F046F900F060F90D49FFF75FF80E49DE
:1010A0000C4A0A600D4A401ECA6048600020086170
:1010B0008860084600F066FB002802D0012007B0D7
:1010C00000BD054800F084FBF9E700000010024075
:1010D00040420F0000040040B4010020E70300007C
:1010E00008B50A4881690122114381618169114073
:1010F0000091C26901040A43C261C069002208402C
:1011000003210090481F00F00FF808BD00100240B6
:10111000002805DBC106C90E01208840014908608E
:101120007047000000E100E010B501F0A3FB10BD26
:10113000F8B505460068354CC00352D5E069002675
:10114000C00007D4E16920040143E161E169014085
:10115000012600912E480168C90510D40168821546
:1011600011430160FFF72CFC074604E0FFF728FC61
:10117000C01B642824D826480068C005F6D5206A1C
:1011800003273F02384020D06968394081421CD093
:10119000206A226AB843012109040A432262226AB2
:1011A0008A4322622062C0070FD0FFF709FC00903B
:1011B00008E0FFF705FC0099411A1648814201D961
:1011C0000320F8BD206A8007F3D5206A6968B84318
:1011D00008432062002E04D0E1690120000781430A
:1011E000E1612878C00705D0206BA96880088000DD
:1011F000084320632878800605D5206B102188439A
:10120000E968084320630020F8BD00000010024098
:101210000070004088130000F8B50F46060059D052
:101220003A4D2868C007C00FB84209D22868400864
:101230004000384328602868C007C00FB84249D131
:101240003068334C81070CD5400704D5606807210E
:101250000902084360606068F0218843B168084370
:1012600060603078C00726D0706801280ED02168F1
:1012700002280ED0890700292CDA616889088900C4
:1012800001436160FFF79CFB00900DE0216889033A
:10129000F1E78901EFE7FFF793FB0099411A1D4839
:1012A000814201D90320F8BD60680C2108407168B3
:1012B00089008842EFD12868C007C00FB8420BD917
:1012C000286840084000384328602868C007C00FDD
:1012D000B84201D00120F8BD3078400706D56068DB
:1012E000072109028843F1680843606000F044F870
:1012F0006168094A0906090F515CC840074908603E
:101300000020FFF7B1FE0020F8BD000000200240E1
:1013100000100240881300004C45000830000020F7
:1013200010B5072202600A4A53689B079B0F43606F
:101330005368F02423408360526807231B021A403D
:10134000C26004480068C007C00F086010BD0000FC
:101350000010024000200240044805490068496826
:10136000044A4905490F515CC840704730000020CD
:10137000001002405C45000810B514A30FCB88B0E4
:101380006C460FC415A30FCB0FC4184A51680C202C
:101390000B4603401648042B16D0082B14D18B02A1
:1013A0001B0F6C46E45CD26A04AB1207120F9A5C06
:1013B000C90305D500231946FEF7E6FE214601E0E4
:1013C00020460C4901F031FA08B010BD02030405B3
:1013D000060708090A0B0C0D0E0F1010010203047A
:1013E00005060708090A0B0C0D0E0F10001002402D
:1013F00000127A0000093D00FEB5040070D020788C
:10140000DC4DC0074AD068680007800F012807D06C
:1014100068680007800F022809D16868C00306D5F4
:10142000286880033AD560680028E7D036E0616814
:10143000012914D001208004002901D0052914D0ED
:101440002A68012109048A432A60296881432960A6
:101450006068002816D0FFF7B3FA06460EE0286849
:101460000121090408432860F2E729680143296043
:10147000F5E7FFF7A5FA801B64286ED8286880037B
:10148000F7D50BE0FFF79CFA064604E0FFF798FA61
:10149000801B6428F1D828688003F7D420780126BF
:1014A000800700283CDA68680007800F07D068686A
:1014B0000007800F022809D16868C00306D4286895
:1014C000800716D5E06801280AD112E0E0680028FC
:1014D000286816D030432860FFF772FA074605E007
:1014E00043E1FFF76DFAC01B0228C6D828688007C1
:1014F000F7D52868F82188432169C9000843286086
:101500000EE0400840002860FFF75AFA074604E062
:10151000FFF756FAC01B0228AFD828688007F7D417
:101520002078000722D5E0690028686A0ED0304391
:101530006862FFF745FA074604E0FFF741FAC01B6F
:1015400002289AD8686A8007F7D50FE04008400063
:101550006862FFF735FA074605E09DE0FFF730FACD
:10156000C01B022889D8686A8007F7D4207804272E
:101570004007002860DA00200190E869C00008D424
:10158000E969B8060143E961E96901400120009178
:10159000019079480168C90511D401688215114389
:1015A0000160FFF70DFA009005E0FFF709FA0099D6
:1015B000401A642870D870480068C005F5D5A06846
:1015C00001280AD0002801D0052810D0286A400838
:1015D00040002862286AB84301E0286A3043286244
:1015E000A068002812D0FFF7EBF900900AE0286A03
:1015F00038432862F1E7FFF7E3F90099411A5F48A1
:10160000814249D8286A8007F5D50DE0FFF7D8F95F
:10161000009006E0FFF7D4F90099411A574881423B
:101620003AD8286A8007F5D40198002804D0E969DF
:10163000012000078143E9612078C00635D5606943
:1016400001280CD0401D686B23D038436863686B59
:10165000400840006863FFF7B3F9064622E0686B74
:1016600038436863686B30436863FFF7A9F906463F
:1016700004E0FFF7A5F9801B02285BD8686B8007A0
:10168000F7D5686BF8218843A169C90008436863EE
:101690000BE0B8436863F4E74CE0FFF791F9801B77
:1016A000022847D8686B8007F7D4206A00285ED0EC
:1016B00069680907890F022942D0012636060228E7
:1016C000286805D0B0432860FFF77AF9044633E074
:1016D000B0432860FFF774F9074604E0FFF770F99C
:1016E000C01B022826D828688001F7D4E86AE16A7E
:1016F000000900010843E862616AA06A084369685A
:101700003D221204914308436860286830432860F2
:10171000FFF756F9044604E0FFF752F9001B0228D0
:1017200008D828688001F7D521E0FFF749F9001BA8
:10173000022801D90320FEBD28688001F5D416E0F7
:101740000128F8D06868E96A01221204636A02403D
:101750009A420AD10907E26A090F914205D10F2185
:1017600089040840A16A884201D00120FEBD002002
:10177000FEBD000000100240007000408813000011
:101780007047704770B5040005D025462035687F46
:10179000002802D006E0012070BD002028772046F6
:1017A00000F014F802206877211D206800F04CFE3C
:1017B00001204034A071A877E87720706070A07095
:1017C000E070207160716877002070BD7047000084
:1017D000014620314A7F012A01D0012070470222B0
:1017E0004A770268D36801210B43D3600068094A35
:1017F000904205D0084A904202D0084A904204D153
:1018000082685207520F062A02D002680A43026019
:1018100000207047002C01400004004000400140BF
:10182000704770B50446006801690025C9438907FF
:10183000002915DBC168C943890711D4E91E01617C
:1018400001202077206880698007204602D0FFF7BA
:10185000E7FF04E000F096F8204600F094F82577C2
:1018600020680169C943490717D4C168C9434907BA
:1018700013D40421C94301610220207720688069C4
:101880008005800F204602D0FFF7CAFF04E000F079
:1018900079F8204600F077F8257720680169C94378
:1018A000090716D4C168C943090712D40821C943DE
:1018B0000161042020772068C0698007204602D09B
:1018C000FFF7AEFF04E000F05DF8204600F05BF8A3
:1018D000257720680169C943C90617D4C168C9437F
:1018E000C90613D41021C94301610820207720685C
:1018F000C0698005800F204602D0FFF791FF04E009
:1019000000F040F8204600F03EF825772068016995
:10191000C943C90708D1C168C943C90704D1891E91
:101920000161204600F030F820680169C9430906CA
:1019300009D4C168C943090605D48021C94301619E
:101940002046FFF71DFF20680169C943490609D4F5
:10195000C168C943490605D44021C94301612046F5
:1019600000F01CF820680169C943890609D4C168E0
:10197000C943890605D42021C94301612046FFF7E8
:1019800000FF70BD7047704710B50068024988427B
:1019900001D1FFF751FB10BD00040040704710B5A6
:1019A000040003D0A06F002802D007E0012010BD82
:1019B000002174200155204600F026F82420A0675D
:1019C00020680168490849000160204600F018FEBF
:1019D0000128ECD0606A002802D0204600F078FD93
:1019E000206841680122D2029143416020688168E9
:1019F000082291438160206801680122114301603F
:101A0000204600F0CBFD10BD10B586B00446142171
:101A10006846FEF713FC1349206888421FD112481C
:101A20008269012189030A43826182690A40059221
:101A30004269C9000A434261406908400590032099
:101A400040020090022001900020029003200390A9
:101A50000120049009206946C006FEF7F3FE06B097
:101A600010BD00000038014000100240FFB50446E0
:101A7000806F83B017460D4620285ED1002D0AD016
:101A8000002F08D0A168C001814207D12069002839
:101A900004D1E80702D0012007B0F0BD2046603035
:101AA0000090007D012848D0009801210175002098
:101AB000802108512120A067FEF782FF264640368C
:101AC0000190378277820120A1680003814202D110
:101AD0002069002805D02F460025009900200875B0
:101AE00011E00027F9E700228021204600F022FEC5
:101AF000002815D1002F15D02168387808857F1C63
:101B0000708A401E7082708A019B0028069800909F
:101B1000E9D100224021204600F00CFE002808D028
:101B20000320B9E728882168C005C00D0885AD1CD1
:101B3000E6E72020A0670020AEE70220ACE7FEE742
:101B400001688A69D243920701D400228A62006840
:101B50008169C943C90703D08169012211438161A9
:101B600070470000F7B5044600680E468069C04320
:101B7000C0062BD420272546403520688069C04305
:101B8000800612D5701CF8D0FEF71AFF0299401A91
:101B9000B04201D8002EF0D1606C384360646F70A1
:101BA0000020A87028700120FEBD21681020C861A7
:101BB0002068C7612046FFF7C3FF20684168044AD8
:101BC00011404160606C04210843E7E70020FEBD3E
:101BD00000E800FEF8B50446164615481D46DAB280
:101BE0000090079F0023204600F054F83A46204614
:101BF000069900F0F1F8002818D12846F5B201281E
:101C000009D02168300A88623A462046069900F0D9
:101C1000E3F800280AD1206885620097002240215D
:101C20002046069B00F04AF8002800D00120F8BDAD
:101C300000200080F8B50446164615481D46DAB265
:101C4000C3020090079F204600F024F83A46204641
:101C5000069900F0C1F8002818D12846F5B20128ED
:101C600009D02168300A88623A462046069900F079
:101C7000B3F800280AD120688562009700228021ED
:101C80002046069B00F01AF8002800D00120F8BD7D
:101C900000200080F0B50668059C7568064F600D51
:101CA000384385438805800D1104084318432043B9
:101CB00005437560F0BD0000FF63FF03F8B51D46E6
:101CC00017460E46044609E0681C07D0FEF778FE6A
:101CD0000699401AA8420BD8002D09D020688169C6
:101CE000304688430FD00020B842EDD00020F8BD28
:101CF000616C202001436164403460700020A0705A
:101D000020700120F8BD0120EEE70000F7B50027A4
:101D1000202605460446403528E02046029A0199CF
:101D2000FFF720FF002801D00120FEBD2068806958
:101D3000C043800611D420688169C943490702D491
:101D4000218D002917D1C661206841680E4A1140D3
:101D5000416067646E70AF7013E0FEF731FE029968
:101D6000411A0198814208D8002806D0206880696D
:101D7000C0434007D1D40020FEBD606C3043606496
:101D80006E702F70D0E7000000E800FE70B51646B8
:101D90000D4604460FE0324629462046FFF7E2FE94
:101DA000002801D0012070BDFEF70AFE801BA8426A
:101DB00008D8002D06D020688069C0438006EAD488
:101DC000002070BD616C202001436164403460706C
:101DD0000020A0702070E5E770B516460D46044659
:101DE00011E0324629462046FFF7BCFE002801D00C
:101DF000012070BD681C06D0FEF7E2FD801BA842E2
:101E000008D8002D06D020688069C0438007E8D438
:101E1000002070BD616C202001436164403460701B
:101E20000020A0702070E3E710B50021022000F030
:101E300071F90021042000F06DF90021032000F069
:101E400069F910BD10B50C46C007010EE007400E41
:101E50000143D007800E0143D807C00E0143012083
:101E600000F058F910BD000010B5044AD160906030
:101E700000F042F9FFF7D8FF10BD0000000000207D
:101E800010B5002000F0ACF8144CC10918D000F0D7
:101E90006FF82078022802D0032806D00CE0102228
:101EA0000F49E06800F044F806E00D4A102311469F
:101EB0002031E06800F016F8207800F0E1F810BD5D
:101EC0008009C007FBD000F0A5F8002320611A4666
:101ED00019460120FFF7B6FF10BD000000000020EA
:101EE000A4000020FFB585B01D4616460F4600240D
:101EF00012E06000335A3A5A09A1684600F06AFCC1
:101F00006846FEF7A6F982B20023DB4369460598CE
:101F1000FFF7ACFD641CE4B2AC42EAD309B0F0BDFB
:101F20007265643A25640969723A25640A00000002
:101F3000F7B5002484B015460E46671E10E0600019
:101F4000325A09A1684600F045FC6846FEF781F95F
:101F500082B23B4669460498FFF788FD641CE4B2F0
:101F6000AC42ECD307B0F0BD733A25640A00000020
:101F7000F0B593B04024214602A8FEF75FF9052092
:101F800069460871851F144E0095012301AAAE21F0
:101F9000B068FEF747FE0095234602AAAE21B0685E
:101FA000FEF7B8FD0D4E0020374602A920370A186B
:101FB000537815781B022B435DBA83085B00F552FA
:101FC000D57892782D021543001D6ABAC0B2FA5234
:101FD000A042ECD313B0F0BD00000020A40000200C
:101FE0003EB5694608710024E443094D009401237D
:101FF00001AAAE21A868FEF715FE0094012302AAEB
:10200000AE21A868FEF786FD6946087A3EBD00004D
:102010000000002070B51620FFF7E2FF46B217203F
:10202000FFF7DEFFFEF7F8F90322D243FEF7CAF905
:1020300005460C463046FEF7DBF92A462346FEF7F6
:102040000FF9FEF7F7F970BD10B5054AD070000121
:1020500091700843C1B2092000F05CF810BD000087
:102060000000002010B504460720FFF7B9FFA107C4
:102070008008890F80000143072000F04BF810BD55
:1020800070B5154D044628700620FFF7A9FFC1085A
:102090006007C900400F0143032C10D0F720014016
:1020A000062000F037F8287803280BD002280DD03E
:1020B00000231A4619460020FFF7C4FE70BD082011
:1020C0000143EDE700231A460121F4E700231A46F5
:1020D00019460120F0E700000000002010B504467A
:1020E0000720FFF77DFF6107E322C90E104001437F
:1020F000072000F00FF810BD10B50549002008704A
:102100000146FFF7A1FF0021012000F003F810BDF8
:10211000000000201CB56A46107151710020C043B8
:1021200000900448022301AAAE218068FEF77AFDE0
:102130001CBD000000000020F0B585B07D24012505
:1021400004A8E40000902B467522D021019502944A
:102150001F48FEF7EFFD6846007C682802D000208B
:1021600005B0F0BD00266846067303AF01236B225D
:10217000D0211748009701950294FEF785FE0721AC
:102180006846017301231922D02111480097019557
:102190000294FEF779FE684606730E480123067026
:1021A0001C22D0210A48009701950294FEF76CFE8C
:1021B000684606730748012346701B22D021044855
:1021C000009701950294FEF75FFE0120C8E700002A
:1021D000E40000201400002010B50B4A00210B4839
:1021E00001F050F80A4C084A2060243200210948C6
:1021F00001F048F8044A606048320021064801F0C6
:1022000041F8A06010BD0000E04400083D23000834
:10221000180000204923000879230008F0B587B092
:1022200014216846FEF70AF81D4842690121490455
:102230000A43426142690A400592426949000A43E1
:102240004261406909260840F606059000220421F3
:102250003046FEF7AFFB134F00220C213846FEF745
:10226000A9FB0420002401250090029469460195F1
:1022700003943046FEF7E6FA022000900194694686
:1022800002943846FEF7DEFA0C200090029469466C
:10229000019503943846FEF7D5FA07B0F0BD00006B
:1022A000001002400004004810B5134811490160B5
:1022B0001249416000218160016141618161012217
:1022C000C161C2600162FEF7CBFB002801D0FEF7BE
:1022D000B7FA00210848FEF779FB002801D0FEF785
:1022E000AFFA00210448FEF796FB002801D0FEF764
:1022F000A7FA10BD00540040E40000200E090020A1
:1023000010B50C480A490160E121490241600021F1
:102310008160C16001618161C1610C220162426121
:102320004162FFF73CFB002801D0FEF789FA10BD9F
:102330000038014030010020FEE770477D24E400B2
:10234000204600F04DFFFBE709257D26094CED06F0
:10235000F600FFF795FD012204212046FEF72AFB37
:10236000012204212846FEF725FB304600F038FF05
:10237000EFE7000000040048084C0925084EED0670
:10238000002204212046FEF715FB002204212846E6
:10239000FEF710FB304600F023FFF1E70004004891
:1023A000DC05000010B5FDF7A3FE044601F026FF92
:1023B000002803D001200349000748602046FDF7AC
:1023C0009BFE10BD00ED00E010B594B030216846D2
:1023D000FDF734FF00240F9402200D940090129416
:1023E000012003900E94139410200C9404901094E8
:1023F000119408946846FEF7FFFF002801D072B6DA
:10240000FEE707200C900D940E9400210F940CA869
:10241000FEF702FF002801D072B6FEE721201090DF
:102420001294139410A8FEF783FE002801D072B610
:10243000FEE714B010BD704710B50248FFF7F1F980
:1024400010BD0000B4010020F0B502681A4B1B4C0F
:10245000984201D0A04203D17025AA434D682A4377
:10246000174D184E184F98420AD0A04208D0174C6A
:10247000A04205D0A84203D0B04201D0B84205D155
:102480001446032212029443CA6822438024A243C2
:102490004C69224302608A68C2620A68826298427A
:1024A00005D0A84203D0B04201D0B84201D1096999
:1024B000016301214161F0BD002C01400004004096
:1024C000004001400044014000480140002000401D
:1024D00010B5818CC90707D001684A6801235B04E5
:1024E0009A43836A1A434A60818C890707D5016839
:1024F0004A6801231B049A43C36A1A434A60818CC9
:10250000490707D501684A6801239B049A43036B76
:102510001A434A60818C090707D501684A6801237C
:10252000DB039A43436B1A434A60818CC90607D583
:102530000268916801231B039943836B19439160DF
:10254000818C890607D501688A6801235B039A4359
:10255000C36B1A438A60818C490612D503685A6896
:1025600001210905046C8A4322435A60026C8A42A5
:1025700007D10268516803235B059943436C1943F3
:102580005160818C090607D501684A680123DB0484
:10259000806C9A4302434A6010BD0000F8B50446BF
:1025A000002680300660FEF70BFA054620680068BA
:1025B000124F000709D501212B460022490520466C
:1025C000009700F0B7F800280DD120680068400798
:1025D0000BD501212B46002289052046009700F0EB
:1025E000A9F8002801D00320F8BD2020A067E067EB
:1025F0002666603426750020F8BD0000FFFFFF014D
:1026000070B5044680682169E26908436169002564
:102610001143226808431168404B1940014311607F
:1026200021684868032212039043E268104348601F
:10263000A169206A084321688A680B231B029A4318
:1026400002438A6036492068884210D13548006BC1
:102650008007800F0ED0012805D0022805D003285E
:102660000AD1022109E0042107E0082105E02E49F2
:10267000884201D1002100E010210120E369C0035C
:102680002A4A2B4E834223D1002906D0022907D0A3
:10269000042907D0082937D108E0FEF75DFE03E0E2
:1026A000104603E0FEF768FE002831D06168400064
:1026B0004A088018FDF752FD80B201461039B14238
:1026C00022D81B49491C01400007400F08431DE068
:1026D000002906D0022907D0042907D0082913D1E0
:1026E00008E0FEF739FE03E0104603E0FEF744FE83
:1026F00000280DD061684A081018FDF72FFD80B240
:1027000001461039B14201D9012501E02168C860B4
:1027100000206066A066284670BD0000F369FFFFD8
:1027200000380140001002400044004000127A00CE
:10273000EFFF0000FFB581B005460F460446603547
:102740000A9E39E0701C37D0FEF73AF90499401A16
:10275000B04222D8002E20D02068016849072BD52E
:10276000C069C043000527D401202168C002086267
:1027700020680168FF22A1329143016020688168CE
:102780004908490081602020A067E067803420600C
:1027900000202875032005B0F0BD20680168FF22E5
:1027A000A132914301602068816849084900816035
:1027B0002020A067E067EBE72068C16938468843BE
:1027C00005D0002103988142BCD00020E3E701211D
:1027D000F8E700000FB410B504A9074B02AA03984C
:1027E00000F034F9044602A9002000F0CBFC20469A
:1027F00010BC08BC04B01847853100082021020C29
:1028000001D010211046020A01D0104608390209F1
:1028100001D01046091F820801D01046891E4208C7
:1028200001D0881E7047081A7047F8B5040C8BB2A7
:10283000264682B25E430D0C1046370C58433604D0
:1028400080190021794116466E43370C36048019F1
:10285000794126466E438919F8BD30B47446641E2A
:102860002578641CAB4200D21D46635D5B00E31813
:1028700030BC18478307FF22DB0E9A408907090EF8
:102880009940002808DB830809489B001B1818683A
:1028900090430843186070470007000F083883080A
:1028A00004489B001B18D86990430843D8617047BF
:1028B00000E400E000ED00E002E008C8121F08C1DB
:1028C000002AFAD170477047002001E001C1121FB1
:1028D000002AFBD170470000F0B51FB486B00998FC
:1028E000089A030D0021024314D05148514A181888
:1028F000504305141198012810981AD0281A401C2A
:1029000000264D4F4D49009601910490002812DA9F
:10291000444211E01198012449A3012801D11098E3
:10292000C1430698119A84600360C26041600BB095
:10293000F0BD4042E4E70446210500203F4A001C68
:1029400051410391029012E0E00707D032463B4626
:1029500001990098FDF74EFE0191009032463B46EA
:1029600010461946FDF746FE06460F466410002C39
:10297000EAD10498039B0028029A0999089806DA7C
:10298000FDF738FE019B009AFDF734FE05E0FDF7E8
:1029900099FE019B009AFDF795FE04460E46002223
:1029A000284BFDF727FF03D80020C043014607E06E
:1029B0000022254B20463146FDF752FCFDF7FAFE7A
:1029C000102409E0002C0ADB0A220023FDF7DCFBBF
:1029D000079B30321A55641E02460A43F2D1112277
:1029E000641C079B121B1C19119B012B03D0012394
:1029F00008430ED10AE0084304D0112010900020B3
:102A0000119077E71098151A6D1E0BE0109882420E
:102A100002DD00236D1C03E0824201DA00236D1EFB
:102A2000002BEED0069811998260C16030C07EE71D
:102A300001FCFFFF104D0000000014400000F03FBB
:102A4000300000000000F0430000E03FFFB597B009
:102A50000646002518E2252877D100242746FD499F
:102A6000049400E00443761C32780120203A904020
:102A70000842F7D130782A280ED002223078014659
:102A80003039092916D804990A2359433039401896
:102A90001443761C0490F1E7189802C8049118902A
:102AA000002904DA01204003044348420490022034
:102AB0000443761C30782E2814D104200443707807
:102AC000761C2A2809D11898761C80C8189009E02D
:102AD0000A214F43303FC719761C30780146303900
:102AE0000929F5D930786C2810D006DC4C281AD08A
:102AF00068280ED06A2817D104E0742813D07A28E9
:102B000012D110E00120400504430CE00121090529
:102B100001E0032109050C437178814203D10120B2
:102B200000052418761C761C3078119066280BD08E
:102B300013DC58287DD009DC00287BD04528F6D04E
:102B40004628F4D047281AD1A5E118E0632835D0EB
:102B5000642870D0652812D19DE170286CD008DC03
:102B60006728F1D069287BD06E280DD06F2806D158
:102B7000BAE073282ED0752871D0782859D01A9AC7
:102B8000199990476D1C7EE16002400F022809D020
:102B900003280DD00428189801680DD00D60001D81
:102BA000189070E11898EA1701680D604A60F6E71E
:102BB000189801680D80F2E70D70F0E718986A46E2
:102BC00001781172001D18900020507202A8009028
:102BD000012005E0189802C8189000200091C04319
:102BE00061070DD5002101E00199491C0191B9420D
:102BF00012DA8142F8DB009A515C0029F4D10BE033
:102C0000002101E00199491C01918142FADB019AFE
:102C10000099895C0029F5D1019904981A9B471AFB
:102C200021463846199A00F097FA0199401945183B
:102C30000BE04FE02CE113E04EE0009800990078A3
:102C4000491C00911A9A199990470198401E0190C9
:102C5000401CF2D1214638461A9B199A10E137E000
:102C60000A200021009001916002410F022907D043
:102C7000189A01CA1892C2179446032908D00AE08C
:102C80001898C01DC108C90005C91891944607E0ED
:102C900000B2C2179446042902D140B2C1178C4633
:102CA00000226146944506DA0A46002140429141DD
:102CB0008C462D2102E0210504D52B216A46117393
:102CC000012103E0E10701D02021F7E7029155E05F
:102CD0000A200AE0102008E01020009000210420C3
:102CE00004430191082703E008200021019100908E
:102CF0006002410F022907D0189A01CA18920022D7
:102D00009446032908D008E01898C01DC108C900DE
:102D100005C91891944603E080B2042900D1C0B2DD
:102D200000210291210729D51199702906D0009A16
:102D30001021019B4A401A4305D00EE040216A460B
:102D40001173012108E06146014306D030216A4633
:102D500011731199517302210291009A0821019B6C
:102D60004A401A430AD16146014301D1610705D5A2
:102D700030216A46117301217F1E02911199582951
:102D800004D035A10E910DA90D910DE037A1F9E701
:102D90006146019B009AFDF7F7F90E9B8C469B5C00
:102DA0000D9A521E0D92137061460143F0D10D9899
:102DB00005A9081A20300190600703D501200004FE
:102DC000844300E001270198874201DD381A00E0C2
:102DD0000020019900904118029809180498401A9F
:102DE0000490E00306D421461A9B199A049800F037
:102DF000B3F94519002706E003A81A9AC05D19998E
:102E000090476D1C7F1C02988742F5DBE0030CD5D0
:102E100021461A9B199A049800F09EF9451904E07E
:102E20001A9A3020199990476D1C0099481E0090FD
:102E30000029F5DC08E00D980D990078491C0D91EA
:102E40001A9A199990476D1C0199481E0190002902
:102E5000F1DC63E109280100303132333435363793
:102E600038396162636465660000000030313233D6
:102E70003435363738394142434445460000000076
:102E800000F05AF94519761C3078002800D0E2E5A8
:102E900028461BB0F0BD600700D406271898C01D57
:102EA000C108C90048680A680831C30FDB071891D8
:102EB000190001D09CA108E0210501D59BA104E0E7
:102EC000E10701D09AA100E09AA1430011985B08A4
:102ED000109165280CD006DC452809D046281DD065
:102EE000472841D141E0662818D067283CD13CE012
:102EF0000021112F01DB112000E0781C01910090CE
:102F000008A911A8FFF7E8FC139905910021119A6F
:102F100015927F1C12980197009150E00120C00784
:102F200003900120019008A9009711A8FFF7D4FC95
:102F3000139A149905920022119B009212981593EE
:102F4000059A0192002901D0104602E0791C401830
:102F50000190381A01D5019804E04042401E0090CB
:102F6000781C0190C01B029043E0012F00DA01277A
:102F70000021112F01DD112000E038460191009061
:102F800008A911A8FFF7A8FC13990591119A00212F
:102F9000129815920091019721070CD40599B94216
:102FA00001DB019900E00191012904DD159A491E18
:102FB000515C302906D0B84201DA011D05DA012141
:102FC000029115E00199491EEDE7002805DC009902
:102FD000411800910199091A03E0019A411C91429C
:102FE00000DD01910099401A401C02900120C007A9
:102FF0000390200706D402990198814202DB002049
:10300000C043029000206946C87707AF01210398AA
:103010000337C907884224D0022011902B20129038
:10302000039800280CDA404203902D20129007E00C
:103030000A210398FDF792F830317F1E0390397012
:103040001199481E11900029F2DC03980028EFD155
:10305000791E129808703078202108404530BF1E34
:10306000387006A8C01BC01D039010980078002877
:1030700000D00120019941180298C017091803983F
:1030800009180498401A401E0490E00306D4214613
:103090001A9B199A049800F05FF845191098007867
:1030A000002803D01A9A199990476D1CE00324D583
:1030B00021461A9B199A049800F04EF845191CE015
:1030C0000098002807DB00990598884203DD1598D1
:1030D000405C199901E0199930201A9A904700989C
:1030E0006D1C401C00900298401E0290002804D1E4
:1030F0001A9A2E20199990476D1C0199481E01902B
:103100000029DDDC05E038781A9A7F1C1999904770
:103110006D1C0399481E03900029F4DC21461A9B7C
:10312000199A0498ACE600002D0000002B00000066
:103130002000000000000000F8B5044600251E46EF
:103140001746880404D405E039462020B0476D1C9A
:10315000641EF9D52846F8BDFFB50446002581B0A8
:103160001E46C80301D5302700E02027880404D577
:1031700005E038460399B0476D1C641EF9D5284612
:1031800005B0F0BD0A68531C0B601070704700005A
:10319000FDF75AFFFFF718F9FFF740F8FFF784F83B
:1031A000FFF7AEF80C490D48FEF75EFE0120FEF772
:1031B00095FF0320FEF756FF0F210846FEF744FF58
:1031C0000220FEF75DFFFEF7B7FF00F023F8FFF7E0
:1031D00003F800F039F8FEE730010020E400002099
:1031E00010B5EFF3058100290ED1EFF3108100290E
:1031F00003D007490968022906D00024002801D01D
:1032000000F0E2FC204610BD0524E443FAE700008C
:1032100084000020EFF3058000280CD1EFF310812B
:10322000084A0029106801D0022804D0002805D0DF
:103230000020C04370470520C04370470120106044
:10324000002070478400002010B5EFF305800028AF
:103250000CD1EFF310810A4A0029106801D002282E
:1032600004D0012805D00020C04310BD0520C04374
:1032700010BD0220106000F0F7FC002010BD00001F
:1032800084000020F0B585B08C460023EFF3058163
:10329000039300294AD1EFF31081002903D0244978
:1032A0000968022942D0002840D000236C464025FE
:1032B0001821237404AC002A2CD01368002B00D0F2
:1032C0001C469369002B03D019465B1E382B02D293
:1032D0001379DB0702D0002005B0F0BD5669002E3F
:1032E00000D0B5089768D368002F0ED05C2B1DD393
:1032F0001269002A1AD0002E18D06E4686C6634680
:103300002A46214600F041FF0FE0002B0ED1126942
:10331000002A0BD103AA01920091AAB2634621466A
:1033200000F00AFF012801D0002003900398D3E7A2
:1033300084000020F8B5134C0F46666905462068E6
:10334000001D00F071FB681C07D1002F05D021681B
:103350000D48091D00F0B6FBF8BD206875194560E1
:103360002168B54204D2A068091D00F093FBF8BDA6
:103370006068091D00F08EFB206B8542F7D2256343
:10338000F8BD000034000020EC060020F8B505462A
:1033900000F0A4FB294C2069401C20612068284FC4
:1033A000002803D0E069002825D02AE025602069A4
:1033B000012826D1002614207043C01900F05CFBC0
:1033C000761C382EF7D31F4800F056FB1D481430EA
:1033D00000F052FB1B48283000F04EFB19483C30EF
:1033E00000F04AFB1748503000F046FB154860607B
:1033F0001430A06005E02068E96AC06A884200D8FD
:103400002560E06A401CE0626864E86AA16988425D
:1034100000D9A06114214843C019291D00F052FBB6
:1034200000F068FBE069002806D02068E96AC06AFD
:10343000884201D200F088FBF8BD00003400002073
:103440003C0200209C06002038B500F047FB114CE0
:10345000A06800281AD1104800F00EFB0E48143066
:1034600000F00AFB0C48206014300B4B6060002019
:1034700028331A460090503210210A2000F084FCB4
:10348000A060002802D005A100F06AFB00F032FB2A
:1034900038BD00007000002000070020546D7251FC
:1034A0000000000010B5026C0C46002A0CD0C16868
:1034B0008B18C36041688B4201D2194601E0016854
:1034C000C1602046FCF7A1FE10BDF8B5856B17461C
:1034D00004460026026C002A11D0002F19D0E068A3
:1034E000FCF793FEE168206C091AE16022689142C2
:1034F00002D26168081AE060022F17D019E0206834
:10350000002816D1606800F0D7FE064600206060F3
:103510000FE0A068FCF779FE216CA0684018A0605D
:103520006168884205D32068A06002E0002D00D0C9
:103530006D1E6D1CA5633046F8BD10B504464030C5
:10354000407E002805D0012806D0022807D072B698
:10355000FEE7206B00F0DCFA204600F0D9FA10BD3F
:103560000F4E104C104F11E000F0B8FAF068C5682B
:10357000281D00F059FA2069401E2061E068401EB5
:10358000E06000F0B7FA2846FFF7D7FFE0680028B0
:10359000EAD138680128F9D900F0D6FAF6E7000038
:1035A000D8060020340000203C02002070B5049CA6
:1035B0001D46002909D022602164E06301212046D4
:1035C00000F002FC4034257370BD2460F4E7FFB5C1
:1035D00081B097000C9C0E460A9DA5223946206BAF
:1035E000FCF725FE206B3F1FC019C708FF007807B6
:1035F00001D072B6FEE72218315C20321175315CC1
:10360000002902D0401C1028F5D320464030002667
:103610000090C670382D00D33725E5622665201D41
:10362000E56400F034FA2046183000F030FA2461E6
:103630003820401B6462A0616665009806763846B3
:10364000049A019900F0E0F920600B98002800D05E
:10365000046005B0F0BD000070B5002441600B4D62
:103660000061914206D8D11A8269914206D2011DA9
:10367000686807E09A4203D2994201D3012403E02B
:10368000011D286800F006FA204670BD7000002079
:1036900010B5044600F022FAA06B002804D00024E4
:1036A00000F028FA204610BD0124F9E730B589B0B2
:1036B0002C4D4EE00498002806DA059A07990698E2
:1036C00090470498002844DB069C6069002802D0DB
:1036D000201D00F0A9F902A800F0A4F80246049801
:1036E0000300FFF7BAF80A06060636232F06063649
:1036F00023360598A169034641182046FFF7ACFF21
:10370000002826D0616A20468847E069012820D138
:10371000002000900598A169002342181946204610
:1037200000F0B4FE002814D172B6FEE70598A0613F
:10373000002805D0811813462046FFF78DFF08E0CA
:1037400072B6FEE72C20005D002802D1204600F072
:10375000DFF9002204A9A86800F03EFC0028A9D1E6
:1037600009B030BD70000020FEB50F46054600F0E0
:10377000AFFA01A800F056F804460198002802D0DC
:1037800000F000FEFEBD1E4E002F10D070680068D5
:10379000002833D00027291B3A46B06800F0F2F920
:1037A00000F0F0FD0028EDD100F0CEF9FEBDA542FD
:1037B000F1D800F0E7FD30682746C068C468201DD6
:1037C00000F032F9E069012812D1A0692B464119B5
:1037D0003A462046FFF740FF002809D00020034664
:1037E000014600902A46204600F050FE002803D0F3
:1037F000616A20468847FEBD72B6FEE70127CAE728
:1038000070000020064841680968002905D0416819
:10381000C968C9684968016370470021C943FAE76C
:103820003400002070B5054600F0E2FC064E044668
:103830003069844203D200F009F8012000E0002042
:1038400028602046346170BD70000020F8B5164D28
:1038500020E0C068C4680668201D00F0E5F8616AD1
:1038600020468847E069012814D1A0698019B04238
:1038700006D924616060211D286800F00BF909E079
:1038800000200346014600903246204600F0FEFD2F
:10389000002807D0286801680029DAD16968296002
:1038A0006860F8BD72B6FEE770000020034800684B
:1038B000401C72B600D0FEE7FEE70000A00000202A
:1038C000074C20680168002907D0C0680021006803
:1038D000FFF74AFFFFF7EAFEF3E701210020F7E7D1
:1038E00070000020F8B5044600F0F8F82546403591
:1038F0000526AE57274624370BE0606A00280AD019
:10390000384600F00DFD002801D000F07DF9761E4C
:1039100076B2002EF1DC0027FF436F7100F0EAF869
:1039200000F0DCF80426AE572046103000900BE083
:10393000206900280AD0009800F0F2FC002801D08D
:1039400000F062F9761E76B2002EF1DC2F7100F0E5
:10395000D1F8F8BDF8B50446002500F0B9F92749BB
:103960000B460A4648680833103200280CD1244818
:103970000027C008C00081C3FF26F600176056600C
:1039800044C00120083B48601E48002C32D0083457
:10399000660704D06607760F0827BE1B3419661E1B
:1039A000864227D2154E1868083601E006461846AA
:1039B0004368A34202D20368002BF7D1904219D08A
:1039C00035680268326042680835121B102A0DD92A
:1039D00003195A60094A446008325E6800E02246D2
:1039E00014686768B742FAD31C60136040680A68BD
:1039F000101A086000F0C6FC2846F8BD88000020B8
:103A0000D80B0020F707000010B50124031F24067F
:103A10001C601B1F1960191F024B0B6014394038C2
:103A20000A6010BDAD3800084368826801699A6079
:103A3000836842685A604A68824201D182684A605B
:103A4000002202610868401E086008687047000094
:103A5000034B036018465C300860402010607047DC
:103A600018080020034B036018465C300860802073
:103A7000106070477409002001460831002241603F
:103A8000D243C16082600161002101607047002162
:103A90000161704730B50B685A1C02D002460832EB
:103AA00002E0026904E02246546825689D42FAD982
:103AB00053684B6099608A60516008610168491CD5
:103AC000016030BD42684A6093688B6093685960BA
:103AD000916008610168491C0160704772B6044832
:103AE0000168491C0160BFF34F8FBFF36F8F7047B0
:103AF000A000002005490868002804D0401E086086
:103B000000D162B6704772B6FEE70000A000002048
:103B100010B5002815D00446083C00F0D9F8094833
:103B2000616800E01046026853688B42FAD3226055
:103B3000046004486168083802688918016000F070
:103B400021FC10BD900000200120044900074860BE
:103B5000BFF34F8FBFF36F8F7047000000ED00E0A1
:103B600010B5074B0022D4001C59002C03D0521C66
:103B7000082AF8D310BDD2009950D118486010BD62
:103B8000FC01002070B515460E460446FFF7A6FF5F
:103B900020464030042282560021521C00D101717F
:103BA00005228256521C00D14171FFF7A3FFA06B82
:103BB000002805D120462A463146243000F03CF842
:103BC0002046FFF78FFE70BD10B502000FD00948E8
:103BD000806B002801D072B6FEE700F079F8002172
:103BE0001046FFF7A7FB00F0CDFB002801D1FFF73F
:103BF000ABFF10BD3400002002498A6A02604969A7
:103C0000416070473400002001490120486270473C
:103C10003400002010B50C46002809D00549096879
:103C20001831FFF737FF01212046FFF783FB10BD56
:103C300072B6FEE73400002070B514460D46002829
:103C40000DD0084909681831FFF73CFF002C01D05E
:103C50000025ED4321462846FFF76CFB70BD72B688
:103C6000FEE700003400002030B587B00024039444
:103C700005AA04A903A80494FFF7EAFE049903988F
:103C800000940191029000230DA10F48059A00F0C5
:103C90007CFA0E4D0028686310D000F0CBFB0128A1
:103CA00003D0401C0AD172B6FEE772B60020C043B2
:103CB00028630120E8616C6100F03EF807B030BD78
:103CC00049444C45000000006135000834000020E4
:103CD0000248816B491C816370470000340000205A
:103CE00010B51348816B002902D00121416210BD3B
:103CF0000021416281690F4A02E0002915D0491E66
:103D000014234B43D358002BF7D014234B439A185A
:103D1000536814465B6808345360A34201D15B6862
:103D20005360DA680260816110BD72B6FEE7000080
:103D3000340000203C02002070B50F48016AFF22C9
:103D4000120411430162016A1202114301620B4C19
:103D500000252561A5610A487D21C9000068FCF79E
:103D6000FDF9401E60610720206106480560FCF7F0
:103D7000ABF9002070BD000000ED00E000E000E0C5
:103D800030000020A0000020F8B5069D002806D0D5
:103D9000002B06D0002A08D0002904D009E072B612
:103DA000FEE772B6FEE772B6FEE7002901D072B6F2
:103DB000FEE750241C46012640339E712B4600949A
:103DC000FFF7F4FB2046F8BD70B50D46040025D082
:103DD000FFF784FE216CE06B484321684118616065
:103DE0000021A1632168A160E06B216C401E484363
:103DF00021684118E1600021C9432046403001712B
:103E000041713038002D0BD0FFF736FE20462430AC
:103E1000FFF732FEFFF76EFE012070BD72B6FEE7BF
:103E200021690029F6D000F07BFA0028F2D0FFF7D4
:103E30008BFEEFE7FFB5002683B01D46040003D0DC
:103E40000498002802D006E072B6FEE7206C002835
:103E500001D072B6FEE7022D04D1E06B012801D03B
:103E600072B6FEE700F0B4F90027002804D10598E7
:103E7000002801D072B6FEE7FFF730FEA06BE16BC1
:103E8000884207D3022D05D00598002817D0002EB0
:103E900018D01BE02A4620460499FFF716FB616AFA
:103EA000002903D02046243000F03AFA002801D03F
:103EB000FFF74AFEFFF71EFE012007B0F0BDFFF737
:103EC00019FE22E06846FFF797FE0126FFF712FE73
:103ED000FFF7FEFEFFF702FE204640300421415668
:103EE000491C00D1077105214156491C00D1477179
:103EF000FFF700FE05A9684600F0F0F8002806D09C
:103F00002046FFF7EFFC00F03DFA0020D5E7FFF771
:103F1000E5FDA06BE16B884210D1FFF7EBFD204679
:103F200010300599FFF776FE2046FFF7DBFC00F026
:103F300029FA0028A0D1FFF707FE9DE7FFF7DAFD79
:103F40002046FFF7CFFC00F01DFA95E7FFB581B0E2
:103F50001E46040003D00298002802D006E072B684
:103F6000FEE7206C002801D072B6FEE7022E04D1D5
:103F7000E06B012801D072B6FEE7FCF7B9F80090BB
:103F8000A06BE16B884208D3022E06D00024009873
:103F9000FCF7B2F8204605B0F0BD204640300525BC
:103FA00045570746324620460299FFF78EFA681CAD
:103FB00003D06D1C7D710124E9E7606A0028FAD006
:103FC0002046243000F0ACF90028F4D003980028F3
:103FD000F1D001210160EEE7F7B5002582B00400C1
:103FE00003D00398002802D006E072B6FEE7206CEA
:103FF000002801D072B6FEE700F0EAF8002600289B
:1040000004D10498002801D072B6FEE7FFF766FDE0
:10401000A76B002F15D020460399FFF743FA7F1EA8
:10402000A7632069002807D02046103000F078F9F7
:10403000002801D0FFF788FDFFF75CFD012005B0E7
:10404000F0BD0498002802D0002D03D006E0FFF751
:1040500051FD27E06846FFF7CFFD0125FFF74AFD38
:10406000FFF736FEFFF73AFD204640300421415667
:10407000491C00D1067105214156491C00D14671E9
:10408000FFF738FD04A9684600F028F8002820460C
:104090000AD0FFF727FC00F075F92046FFF7F8FA81
:1040A0000028B3D00020CAE7FFF7F2FA00280ED0AC
:1040B000204624300499FFF7ADFD2046FFF712FC9F
:1040C00000F060F90028A1D1FFF73EFD9EE72046F1
:1040D000FFF708FC00F056F998E70000F8B50C4629
:1040E000050012D0002C12D0FFF7F8FC114B5A69D2
:1040F0006E682068911B471C0BD02F689B6A9F42FB
:104100000CD096420AD8012404E072B6FEE772B6DB
:10411000FEE70024FFF7EEFC2046F8BD884205D9F3
:10412000401A20602846FFF767FDF2E70020206074
:10413000E9E7000034000020FFB585B01646900086
:104140000F9FFFF707FC05001CD05C20FFF702FC67
:10415000040014D000205921256308550E990091C0
:104160000390019702943246089B06990598FFF741
:104170002EFA2046FFF70AF9012009B0F0BD2846C3
:10418000FFF7C6FC0020C043F7E7F0B585B007464F
:104190000B9D0C9C0A98002D15D0002C15D05C2688
:1041A0002563022559263555002504AE0090019659
:1041B000039502943846FFF70AFA2046FFF7E6F81F
:1041C000049805B0F0BD72B6FEE772B6FEE70000D7
:1041D0000648C169002904D0806B002803D0002064
:1041E0007047012070470220704700003400002013
:1041F000014840697047000034000020F8B52C4C9D
:104200000027A06B002808D0206A401C2062606A4A
:10421000002800D001273846F8BD6669761C666123
:104220000ED160680068002801D072B6FEE76068B1
:10423000A1686160A060A06A401CA062FFF7E2FA7A
:10424000206B86420AD360680068002810D060683E
:10425000C068C568686886420DD220632068142152
:10426000C06A4843134908580128D0D90127CEE72E
:104270000020C043F1E7281DFFF7D6FBA86A0028FD
:1042800003D028461830FFF7CFFBE86AA1698842BF
:1042900000D9A0611421484306494018291DFFF7A1
:1042A00011FCE86A2168C96A8842CCD30127CAE7B1
:1042B000340000203C02002070B500210446002894
:1042C00028D0154D2868844201D072B6FEE7206DD3
:1042D000002808D0401E2065E36CE26A9A4219D09B
:1042E000002802D016E072B6FEE7201DFFF79CFB07
:1042F000E06C3821E062081AA061E06AA96988428E
:1043000000D9A8611421484304494018211DFFF732
:10431000D9FB0121084670BD340000203C0200207A
:1043200070B5C068C468002C0BD020461830064613
:10433000FFF77AFB104DA86B002804D031460F48D8
:104340000EE072B6FEE7201DFFF76EFBE06AA9697A
:10435000884200D9A8611421484309494018211D09
:10436000FFF7B0FBE06A2968C96A884202D90120D8
:10437000686270BD002070BD34000020C4060020BB
:104380003C020020F8B5284C0025A06B2E460028E2
:1043900008D0FFF7A3FBA06B401EA063A06B002812
:1043A00002D03CE072B6FEE72169204F00291CD103
:1043B00035E0F868C56828461830FFF735FB281D3A
:1043C000FFF732FBE86AA169884200D9A061142195
:1043D000484317494018291DFFF774FBE86A216814
:1043E000C96A884201D30120606238680028E0D1A0
:1043F000002D01D0FFF706FA256A002D09D001270C
:10440000FFF7FCFE002800D067626D1EF8D1002087
:104410002062606A002802D00126FFF795FBFFF7B3
:1044200069FB3046F8BD000034000020C4060020BF
:104430003C02002010B586B0FFF706F80F4CA068CC
:10444000002819D000200390049005AA04A903A80D
:10445000FFF708FB0220039A049900900292019151
:10446000002307A10848059AFFF78FFEE0600028A7
:1044700002D0012006B010BD72B6FEE77000002029
:10448000546D722053766300C1380008F0B51D46A4
:1044900085B0034600200A9E002B13D00F4CA7685E
:1044A000002F0DD068460EC0062910DAFFF790FEE7
:1044B000022809D000231A466946A068FFF7BAFC13
:1044C00005B0F0BD72B6FEE700233246F4E70023E4
:1044D0002A4669463846FFF739FDF1E770000020AB
:1044E0006C45000800000000000000000000000013
:1044F00000000000000100001800000000000000A3
:1045000000000000784500080000000000000000E6
:10451000000000000000000000040000080000008F
:1045200000000000000000006445000800000000DA
:10453000000000000000000000000000000100007A
:104540000800000000000000000000000000000063
:104550000000000001020304060708090000000033
:10456000010203044C45444F6666000064656661C1
:10457000756C745461736B004C45444F6E000000C1
:10458000A045000800000020A4000000B828000892
:1045900044460008A40000202C170000C82800088A
:1045A000000000000000000000000000000000000B
:1045B00000000000000000000000000000000000FB
:1045C00000000000010000000400000000000000E6
:1045D00000127A000000000000000000000000004F
:1045E00000000000000000000000000000000000CB
:1045F00000000000000000000000000000000000BB
:1046000000000000000000000000000000000000AA
:10461000000000000000000000000000000000009A
:104620000000000000000000F8070000000000008B
:10463000000000000000000000000000000000007A
:04464000AAAAAAAACE
:04000005080000B53A
:00000001FF
